{
  "_format": "hh-sol-artifact-1",
  "contractName": "boilerGotchi",
  "sourceName": "Contracts/initalize.sol",
  "abi": [
    {
      "inputs": [],
      "stateMutability": "nonpayable",
      "type": "constructor"
    },
    {
      "inputs": [
        {
          "internalType": "address",
          "name": "sender",
          "type": "address"
        },
        {
          "internalType": "uint256",
          "name": "tokenId",
          "type": "uint256"
        },
        {
          "internalType": "address",
          "name": "owner",
          "type": "address"
        }
      ],
      "name": "ERC721IncorrectOwner",
      "type": "error"
    },
    {
      "inputs": [
        {
          "internalType": "address",
          "name": "operator",
          "type": "address"
        },
        {
          "internalType": "uint256",
          "name": "tokenId",
          "type": "uint256"
        }
      ],
      "name": "ERC721InsufficientApproval",
      "type": "error"
    },
    {
      "inputs": [
        {
          "internalType": "address",
          "name": "approver",
          "type": "address"
        }
      ],
      "name": "ERC721InvalidApprover",
      "type": "error"
    },
    {
      "inputs": [
        {
          "internalType": "address",
          "name": "operator",
          "type": "address"
        }
      ],
      "name": "ERC721InvalidOperator",
      "type": "error"
    },
    {
      "inputs": [
        {
          "internalType": "address",
          "name": "owner",
          "type": "address"
        }
      ],
      "name": "ERC721InvalidOwner",
      "type": "error"
    },
    {
      "inputs": [
        {
          "internalType": "address",
          "name": "receiver",
          "type": "address"
        }
      ],
      "name": "ERC721InvalidReceiver",
      "type": "error"
    },
    {
      "inputs": [
        {
          "internalType": "address",
          "name": "sender",
          "type": "address"
        }
      ],
      "name": "ERC721InvalidSender",
      "type": "error"
    },
    {
      "inputs": [
        {
          "internalType": "uint256",
          "name": "tokenId",
          "type": "uint256"
        }
      ],
      "name": "ERC721NonexistentToken",
      "type": "error"
    },
    {
      "anonymous": false,
      "inputs": [
        {
          "indexed": true,
          "internalType": "address",
          "name": "owner",
          "type": "address"
        },
        {
          "indexed": true,
          "internalType": "address",
          "name": "approved",
          "type": "address"
        },
        {
          "indexed": true,
          "internalType": "uint256",
          "name": "tokenId",
          "type": "uint256"
        }
      ],
      "name": "Approval",
      "type": "event"
    },
    {
      "anonymous": false,
      "inputs": [
        {
          "indexed": true,
          "internalType": "address",
          "name": "owner",
          "type": "address"
        },
        {
          "indexed": true,
          "internalType": "address",
          "name": "operator",
          "type": "address"
        },
        {
          "indexed": false,
          "internalType": "bool",
          "name": "approved",
          "type": "bool"
        }
      ],
      "name": "ApprovalForAll",
      "type": "event"
    },
    {
      "anonymous": false,
      "inputs": [
        {
          "indexed": true,
          "internalType": "address",
          "name": "from",
          "type": "address"
        },
        {
          "indexed": true,
          "internalType": "address",
          "name": "to",
          "type": "address"
        },
        {
          "indexed": true,
          "internalType": "uint256",
          "name": "tokenId",
          "type": "uint256"
        }
      ],
      "name": "Transfer",
      "type": "event"
    },
    {
      "inputs": [
        {
          "internalType": "address",
          "name": "to",
          "type": "address"
        },
        {
          "internalType": "uint256",
          "name": "tokenId",
          "type": "uint256"
        }
      ],
      "name": "approve",
      "outputs": [],
      "stateMutability": "nonpayable",
      "type": "function"
    },
    {
      "inputs": [
        {
          "internalType": "address",
          "name": "owner",
          "type": "address"
        }
      ],
      "name": "balanceOf",
      "outputs": [
        {
          "internalType": "uint256",
          "name": "",
          "type": "uint256"
        }
      ],
      "stateMutability": "view",
      "type": "function"
    },
    {
      "inputs": [],
      "name": "checkStatus",
      "outputs": [
        {
          "internalType": "string",
          "name": "",
          "type": "string"
        }
      ],
      "stateMutability": "view",
      "type": "function"
    },
    {
      "inputs": [],
      "name": "checkSuicidal",
      "outputs": [
        {
          "internalType": "bool",
          "name": "",
          "type": "bool"
        }
      ],
      "stateMutability": "view",
      "type": "function"
    },
    {
      "inputs": [
        {
          "internalType": "string",
          "name": "name",
          "type": "string"
        }
      ],
      "name": "createGotchi",
      "outputs": [],
      "stateMutability": "nonpayable",
      "type": "function"
    },
    {
      "inputs": [],
      "name": "deleteGotchi",
      "outputs": [],
      "stateMutability": "nonpayable",
      "type": "function"
    },
    {
      "inputs": [],
      "name": "feedBoilerGotchi",
      "outputs": [],
      "stateMutability": "nonpayable",
      "type": "function"
    },
    {
      "inputs": [
        {
          "internalType": "uint256",
          "name": "tokenId",
          "type": "uint256"
        }
      ],
      "name": "getApproved",
      "outputs": [
        {
          "internalType": "address",
          "name": "",
          "type": "address"
        }
      ],
      "stateMutability": "view",
      "type": "function"
    },
    {
      "inputs": [],
      "name": "getBoilergotchiEnergyPoints",
      "outputs": [
        {
          "internalType": "uint256",
          "name": "",
          "type": "uint256"
        }
      ],
      "stateMutability": "view",
      "type": "function"
    },
    {
      "inputs": [
        {
          "internalType": "address",
          "name": "user_addr",
          "type": "address"
        }
      ],
      "name": "getBoilergotchiName",
      "outputs": [
        {
          "internalType": "string",
          "name": "",
          "type": "string"
        }
      ],
      "stateMutability": "view",
      "type": "function"
    },
    {
      "inputs": [],
      "name": "getMood",
      "outputs": [
        {
          "internalType": "string",
          "name": "",
          "type": "string"
        }
      ],
      "stateMutability": "view",
      "type": "function"
    },
    {
      "inputs": [
        {
          "internalType": "address",
          "name": "",
          "type": "address"
        }
      ],
      "name": "gotchis",
      "outputs": [
        {
          "internalType": "string",
          "name": "name",
          "type": "string"
        },
        {
          "internalType": "uint256",
          "name": "mood",
          "type": "uint256"
        },
        {
          "internalType": "uint256",
          "name": "energy",
          "type": "uint256"
        },
        {
          "internalType": "address",
          "name": "owner",
          "type": "address"
        },
        {
          "internalType": "uint256",
          "name": "lastPlayed",
          "type": "uint256"
        }
      ],
      "stateMutability": "view",
      "type": "function"
    },
    {
      "inputs": [
        {
          "internalType": "address",
          "name": "owner",
          "type": "address"
        },
        {
          "internalType": "address",
          "name": "operator",
          "type": "address"
        }
      ],
      "name": "isApprovedForAll",
      "outputs": [
        {
          "internalType": "bool",
          "name": "",
          "type": "bool"
        }
      ],
      "stateMutability": "view",
      "type": "function"
    },
    {
      "inputs": [],
      "name": "name",
      "outputs": [
        {
          "internalType": "string",
          "name": "",
          "type": "string"
        }
      ],
      "stateMutability": "view",
      "type": "function"
    },
    {
      "inputs": [],
      "name": "nextID",
      "outputs": [
        {
          "internalType": "uint256",
          "name": "",
          "type": "uint256"
        }
      ],
      "stateMutability": "view",
      "type": "function"
    },
    {
      "inputs": [
        {
          "internalType": "uint256",
          "name": "tokenId",
          "type": "uint256"
        }
      ],
      "name": "ownerOf",
      "outputs": [
        {
          "internalType": "address",
          "name": "",
          "type": "address"
        }
      ],
      "stateMutability": "view",
      "type": "function"
    },
    {
      "inputs": [],
      "name": "playBoilerGotchi",
      "outputs": [],
      "stateMutability": "nonpayable",
      "type": "function"
    },
    {
      "inputs": [
        {
          "internalType": "address",
          "name": "from",
          "type": "address"
        },
        {
          "internalType": "address",
          "name": "to",
          "type": "address"
        },
        {
          "internalType": "uint256",
          "name": "tokenId",
          "type": "uint256"
        }
      ],
      "name": "safeTransferFrom",
      "outputs": [],
      "stateMutability": "nonpayable",
      "type": "function"
    },
    {
      "inputs": [
        {
          "internalType": "address",
          "name": "from",
          "type": "address"
        },
        {
          "internalType": "address",
          "name": "to",
          "type": "address"
        },
        {
          "internalType": "uint256",
          "name": "tokenId",
          "type": "uint256"
        },
        {
          "internalType": "bytes",
          "name": "data",
          "type": "bytes"
        }
      ],
      "name": "safeTransferFrom",
      "outputs": [],
      "stateMutability": "nonpayable",
      "type": "function"
    },
    {
      "inputs": [
        {
          "internalType": "address",
          "name": "operator",
          "type": "address"
        },
        {
          "internalType": "bool",
          "name": "approved",
          "type": "bool"
        }
      ],
      "name": "setApprovalForAll",
      "outputs": [],
      "stateMutability": "nonpayable",
      "type": "function"
    },
    {
      "inputs": [
        {
          "internalType": "uint256",
          "name": "energy",
          "type": "uint256"
        }
      ],
      "name": "setBoilergotchiEnergyPoints",
      "outputs": [],
      "stateMutability": "nonpayable",
      "type": "function"
    },
    {
      "inputs": [
        {
          "internalType": "address",
          "name": "user_addr",
          "type": "address"
        },
        {
          "internalType": "string",
          "name": "name",
          "type": "string"
        }
      ],
      "name": "setBoilergotchiName",
      "outputs": [],
      "stateMutability": "nonpayable",
      "type": "function"
    },
    {
      "inputs": [
        {
          "internalType": "bytes4",
          "name": "interfaceId",
          "type": "bytes4"
        }
      ],
      "name": "supportsInterface",
      "outputs": [
        {
          "internalType": "bool",
          "name": "",
          "type": "bool"
        }
      ],
      "stateMutability": "view",
      "type": "function"
    },
    {
      "inputs": [],
      "name": "symbol",
      "outputs": [
        {
          "internalType": "string",
          "name": "",
          "type": "string"
        }
      ],
      "stateMutability": "view",
      "type": "function"
    },
    {
      "inputs": [
        {
          "internalType": "uint256",
          "name": "tokenId",
          "type": "uint256"
        }
      ],
      "name": "tokenURI",
      "outputs": [
        {
          "internalType": "string",
          "name": "",
          "type": "string"
        }
      ],
      "stateMutability": "view",
      "type": "function"
    },
    {
      "inputs": [
        {
          "internalType": "address",
          "name": "from",
          "type": "address"
        },
        {
          "internalType": "address",
          "name": "to",
          "type": "address"
        }
      ],
      "name": "transfer",
      "outputs": [],
      "stateMutability": "nonpayable",
      "type": "function"
    },
    {
      "inputs": [
        {
          "internalType": "address",
          "name": "from",
          "type": "address"
        },
        {
          "internalType": "address",
          "name": "to",
          "type": "address"
        },
        {
          "internalType": "uint256",
          "name": "tokenId",
          "type": "uint256"
        }
      ],
      "name": "transferFrom",
      "outputs": [],
      "stateMutability": "nonpayable",
      "type": "function"
    }
  ],
  "bytecode": "0x608060405260016008553480156200001657600080fd5b506040518060400160405280600c81526020017f426f696c6572476f7463686900000000000000000000000000000000000000008152506040518060400160405280600281526020017f4247000000000000000000000000000000000000000000000000000000000000815250816000908162000094919062000329565b508060019081620000a6919062000329565b50505062000410565b600081519050919050565b7f4e487b7100000000000000000000000000000000000000000000000000000000600052604160045260246000fd5b7f4e487b7100000000000000000000000000000000000000000000000000000000600052602260045260246000fd5b600060028204905060018216806200013157607f821691505b602082108103620001475762000146620000e9565b5b50919050565b60008190508160005260206000209050919050565b60006020601f8301049050919050565b600082821b905092915050565b600060088302620001b17fffffffffffffffffffffffffffffffffffffffffffffffffffffffffffffffff8262000172565b620001bd868362000172565b95508019841693508086168417925050509392505050565b6000819050919050565b6000819050919050565b60006200020a62000204620001fe84620001d5565b620001df565b620001d5565b9050919050565b6000819050919050565b6200022683620001e9565b6200023e620002358262000211565b8484546200017f565b825550505050565b600090565b6200025562000246565b620002628184846200021b565b505050565b5b818110156200028a576200027e6000826200024b565b60018101905062000268565b5050565b601f821115620002d957620002a3816200014d565b620002ae8462000162565b81016020851015620002be578190505b620002d6620002cd8562000162565b83018262000267565b50505b505050565b600082821c905092915050565b6000620002fe60001984600802620002de565b1980831691505092915050565b6000620003198383620002eb565b9150826002028217905092915050565b6200033482620000af565b67ffffffffffffffff81111562000350576200034f620000ba565b5b6200035c825462000118565b620003698282856200028e565b600060209050601f831160018114620003a157600084156200038c578287015190505b6200039885826200030b565b86555062000408565b601f198416620003b1866200014d565b60005b82811015620003db57848901518255600182019150602085019450602081019050620003b4565b86831015620003fb5784890151620003f7601f891682620002eb565b8355505b6001600288020188555050505b505050505050565b613cc680620004206000396000f3fe608060405234801561001057600080fd5b50600436106101a95760003560e01c806370a08231116100f9578063b88d4fde11610097578063c016063d11610071578063c016063d14610484578063c87b56dd146104a2578063e985e9c5146104d2578063eb8acadc14610502576101a9565b8063b88d4fde14610430578063ba45b0b81461044c578063bd11ccd914610468576101a9565b806395d89b41116100d357806395d89b41146103ce5780639d0c1397146103ec578063a22cb4651461040a578063ab6720e514610426576101a9565b806370a082311461035257806383ec35951461038257806385e8f4d3146103b2576101a9565b80631e96917d116101665780633b7104f2116101405780633b7104f2146102de57806342842e0e146102fc5780634ce89ce4146103185780636352211e14610322576101a9565b80631e96917d1461028657806323b872dd146102a4578063380df28c146102c0576101a9565b806301ffc9a7146101ae57806306fdde03146101de5780630759b783146101fc578063081812fc14610206578063095ea7b3146102365780630fe9c9b214610252575b600080fd5b6101c860048036038101906101c39190612a1a565b61051e565b6040516101d59190612a62565b60405180910390f35b6101e6610600565b6040516101f39190612b0d565b60405180910390f35b610204610692565b005b610220600480360381019061021b9190612b65565b61085c565b60405161022d9190612bd3565b60405180910390f35b610250600480360381019061024b9190612c1a565b610878565b005b61026c60048036038101906102679190612c5a565b61088e565b60405161027d959493929190612c96565b60405180910390f35b61028e61096c565b60405161029b9190612cf0565b60405180910390f35b6102be60048036038101906102b99190612d0b565b610972565b005b6102c8610a74565b6040516102d59190612a62565b60405180910390f35b6102e6610ad4565b6040516102f39190612b0d565b60405180910390f35b61031660048036038101906103119190612d0b565b610b5f565b005b610320610b7f565b005b61033c60048036038101906103379190612b65565b610cc8565b6040516103499190612bd3565b60405180910390f35b61036c60048036038101906103679190612c5a565b610cda565b6040516103799190612cf0565b60405180910390f35b61039c60048036038101906103979190612c5a565b610d94565b6040516103a99190612b0d565b60405180910390f35b6103cc60048036038101906103c79190612b65565b610f36565b005b6103d6611056565b6040516103e39190612b0d565b60405180910390f35b6103f46110e8565b6040516104019190612b0d565b60405180910390f35b610424600480360381019061041f9190612d8a565b61125b565b005b61042e611271565b005b61044a60048036038101906104459190612eff565b6113eb565b005b61046660048036038101906104619190612f82565b611408565b005b610482600480360381019061047d9190613063565b611425565b005b61048c61165f565b6040516104999190612cf0565b60405180910390f35b6104bc60048036038101906104b79190612b65565b6116ae565b6040516104c99190612b0d565b60405180910390f35b6104ec60048036038101906104e79190612f82565b611717565b6040516104f99190612a62565b60405180910390f35b61051c600480360381019061051791906130ac565b6117ab565b005b60007f80ac58cd000000000000000000000000000000000000000000000000000000007bffffffffffffffffffffffffffffffffffffffffffffffffffffffff1916827bffffffffffffffffffffffffffffffffffffffffffffffffffffffff191614806105e957507f5b5e139f000000000000000000000000000000000000000000000000000000007bffffffffffffffffffffffffffffffffffffffffffffffffffffffff1916827bffffffffffffffffffffffffffffffffffffffffffffffffffffffff1916145b806105f957506105f88261186a565b5b9050919050565b60606000805461060f90613137565b80601f016020809104026020016040519081016040528092919081815260200182805461063b90613137565b80156106885780601f1061065d57610100808354040283529160200191610688565b820191906000526020600020905b81548152906001019060200180831161066b57829003601f168201915b5050505050905090565b6000600660003373ffffffffffffffffffffffffffffffffffffffff1673ffffffffffffffffffffffffffffffffffffffff1681526020019081526020016000206002015403610717576040517f08c379a000000000000000000000000000000000000000000000000000000000815260040161070e906131b4565b60405180910390fd5b61016d600660003373ffffffffffffffffffffffffffffffffffffffff1673ffffffffffffffffffffffffffffffffffffffff16815260200190815260200160002060010154146107bb57600660003373ffffffffffffffffffffffffffffffffffffffff1673ffffffffffffffffffffffffffffffffffffffff16815260200190815260200160002060010160008154809291906107b590613203565b91905055505b600660003373ffffffffffffffffffffffffffffffffffffffff1673ffffffffffffffffffffffffffffffffffffffff168152602001908152602001600020600201600081548092919061080e9061324b565b919050555042600660003373ffffffffffffffffffffffffffffffffffffffff1673ffffffffffffffffffffffffffffffffffffffff16815260200190815260200160002060040181905550565b6000610867826118d4565b506108718261195c565b9050919050565b61088a8282610885611999565b6119a1565b5050565b60066020528060005260406000206000915090508060000180546108b190613137565b80601f01602080910402602001604051908101604052809291908181526020018280546108dd90613137565b801561092a5780601f106108ff5761010080835404028352916020019161092a565b820191906000526020600020905b81548152906001019060200180831161090d57829003601f168201915b5050505050908060010154908060020154908060030160009054906101000a900473ffffffffffffffffffffffffffffffffffffffff16908060040154905085565b60085481565b600073ffffffffffffffffffffffffffffffffffffffff168273ffffffffffffffffffffffffffffffffffffffff16036109e45760006040517f64a0ae920000000000000000000000000000000000000000000000000000000081526004016109db9190612bd3565b60405180910390fd5b60006109f883836109f3611999565b6119b3565b90508373ffffffffffffffffffffffffffffffffffffffff168173ffffffffffffffffffffffffffffffffffffffff1614610a6e578382826040517f64283d7b000000000000000000000000000000000000000000000000000000008152600401610a6593929190613274565b60405180910390fd5b50505050565b600080600660003373ffffffffffffffffffffffffffffffffffffffff1673ffffffffffffffffffffffffffffffffffffffff16815260200190815260200160002090506301e13380816004015442610acd91906132ab565b1191505090565b60606000600660003373ffffffffffffffffffffffffffffffffffffffff1673ffffffffffffffffffffffffffffffffffffffff16815260200190815260200160002090506000610b236110e8565b90508160000181610b378460020154611bcd565b604051602001610b4993929190613497565b6040516020818303038152906040529250505090565b610b7a838383604051806020016040528060008152506113eb565b505050565b6064600660003373ffffffffffffffffffffffffffffffffffffffff1673ffffffffffffffffffffffffffffffffffffffff1681526020019081526020016000206002015414610c2257600660003373ffffffffffffffffffffffffffffffffffffffff1673ffffffffffffffffffffffffffffffffffffffff1681526020019081526020016000206002016000815480929190610c1c90613203565b91905055505b61016d600660003373ffffffffffffffffffffffffffffffffffffffff1673ffffffffffffffffffffffffffffffffffffffff1681526020019081526020016000206001015414610cc657600660003373ffffffffffffffffffffffffffffffffffffffff1673ffffffffffffffffffffffffffffffffffffffff1681526020019081526020016000206001016000815480929190610cc090613203565b91905055505b565b6000610cd3826118d4565b9050919050565b60008073ffffffffffffffffffffffffffffffffffffffff168273ffffffffffffffffffffffffffffffffffffffff1603610d4d5760006040517f89c62b64000000000000000000000000000000000000000000000000000000008152600401610d449190612bd3565b60405180910390fd5b600360008373ffffffffffffffffffffffffffffffffffffffff1673ffffffffffffffffffffffffffffffffffffffff168152602001908152602001600020549050919050565b6060600073ffffffffffffffffffffffffffffffffffffffff16600660008473ffffffffffffffffffffffffffffffffffffffff1673ffffffffffffffffffffffffffffffffffffffff16815260200190815260200160002060030160009054906101000a900473ffffffffffffffffffffffffffffffffffffffff1673ffffffffffffffffffffffffffffffffffffffff1603610e67576040517f08c379a0000000000000000000000000000000000000000000000000000000008152600401610e5e90613535565b60405180910390fd5b600760008373ffffffffffffffffffffffffffffffffffffffff1673ffffffffffffffffffffffffffffffffffffffff1681526020019081526020016000208054610eb190613137565b80601f0160208091040260200160405190810160405280929190818152602001828054610edd90613137565b8015610f2a5780601f10610eff57610100808354040283529160200191610f2a565b820191906000526020600020905b815481529060010190602001808311610f0d57829003601f168201915b50505050509050919050565b3373ffffffffffffffffffffffffffffffffffffffff16600660003373ffffffffffffffffffffffffffffffffffffffff1673ffffffffffffffffffffffffffffffffffffffff16815260200190815260200160002060030160009054906101000a900473ffffffffffffffffffffffffffffffffffffffff1673ffffffffffffffffffffffffffffffffffffffff1614611006576040517f08c379a0000000000000000000000000000000000000000000000000000000008152600401610ffd906135a1565b60405180910390fd5b6000600660003373ffffffffffffffffffffffffffffffffffffffff1673ffffffffffffffffffffffffffffffffffffffff16815260200190815260200160002090508181600201819055505050565b60606001805461106590613137565b80601f016020809104026020016040519081016040528092919081815260200182805461109190613137565b80156110de5780601f106110b3576101008083540402835291602001916110de565b820191906000526020600020905b8154815290600101906020018083116110c157829003601f168201915b5050505050905090565b60606000600660003373ffffffffffffffffffffffffffffffffffffffff1673ffffffffffffffffffffffffffffffffffffffff1681526020019081526020016000209050611135610a74565b15611178576040518060400160405280600881526020017f537569636964616c000000000000000000000000000000000000000000000000815250915050611258565b60c88160010154106111c2576040518060400160405280600581526020017f4861707079000000000000000000000000000000000000000000000000000000815250915050611258565b606481600101541061120c576040518060400160405280600581526020017f4368696c6c000000000000000000000000000000000000000000000000000000815250915050611258565b6001816001015410611256576040518060400160405280600381526020017f5361640000000000000000000000000000000000000000000000000000000000815250915050611258565b505b90565b61126d611266611999565b8383611d2d565b5050565b3373ffffffffffffffffffffffffffffffffffffffff16600660003373ffffffffffffffffffffffffffffffffffffffff1673ffffffffffffffffffffffffffffffffffffffff16815260200190815260200160002060030160009054906101000a900473ffffffffffffffffffffffffffffffffffffffff1673ffffffffffffffffffffffffffffffffffffffff1614611341576040517f08c379a00000000000000000000000000000000000000000000000000000000081526004016113389061360d565b60405180910390fd5b600061134c33611e9c565b905061135781612022565b600660003373ffffffffffffffffffffffffffffffffffffffff1673ffffffffffffffffffffffffffffffffffffffff168152602001908152602001600020600080820160006113a79190612951565b600182016000905560028201600090556003820160006101000a81549073ffffffffffffffffffffffffffffffffffffffff02191690556004820160009055505050565b6113f6848484610972565b611402848484846120a8565b50505050565b600061141383611e9c565b9050611420838383610972565b505050565b6000815111611469576040517f08c379a000000000000000000000000000000000000000000000000000000000815260040161146090613679565b60405180910390fd5b600073ffffffffffffffffffffffffffffffffffffffff16600660003373ffffffffffffffffffffffffffffffffffffffff1673ffffffffffffffffffffffffffffffffffffffff16815260200190815260200160002060030160009054906101000a900473ffffffffffffffffffffffffffffffffffffffff1673ffffffffffffffffffffffffffffffffffffffff161461153a576040517f08c379a0000000000000000000000000000000000000000000000000000000008152600401611531906136e5565b60405180910390fd5b60006008600081548092919061154f90613203565b91905055905061155f338261225f565b6040518060a0016040528083815260200160648152602001606481526020013373ffffffffffffffffffffffffffffffffffffffff16815260200142815250600660003373ffffffffffffffffffffffffffffffffffffffff1673ffffffffffffffffffffffffffffffffffffffff16815260200190815260200160002060008201518160000190816115f2919061389c565b50602082015181600101556040820151816002015560608201518160030160006101000a81548173ffffffffffffffffffffffffffffffffffffffff021916908373ffffffffffffffffffffffffffffffffffffffff160217905550608082015181600401559050505050565b600080600660003373ffffffffffffffffffffffffffffffffffffffff1673ffffffffffffffffffffffffffffffffffffffff1681526020019081526020016000209050806002015491505090565b60606116b9826118d4565b5060006116c461227d565b905060008151116116e4576040518060200160405280600081525061170f565b806116ee84612294565b6040516020016116ff92919061396e565b6040516020818303038152906040525b915050919050565b6000600560008473ffffffffffffffffffffffffffffffffffffffff1673ffffffffffffffffffffffffffffffffffffffff16815260200190815260200160002060008373ffffffffffffffffffffffffffffffffffffffff1673ffffffffffffffffffffffffffffffffffffffff16815260200190815260200160002060009054906101000a900460ff16905092915050565b3373ffffffffffffffffffffffffffffffffffffffff168273ffffffffffffffffffffffffffffffffffffffff1614611819576040517f08c379a0000000000000000000000000000000000000000000000000000000008152600401611810906135a1565b60405180910390fd5b80600760008473ffffffffffffffffffffffffffffffffffffffff1673ffffffffffffffffffffffffffffffffffffffff1681526020019081526020016000209081611865919061389c565b505050565b60007f01ffc9a7000000000000000000000000000000000000000000000000000000007bffffffffffffffffffffffffffffffffffffffffffffffffffffffff1916827bffffffffffffffffffffffffffffffffffffffffffffffffffffffff1916149050919050565b6000806118e083612362565b9050600073ffffffffffffffffffffffffffffffffffffffff168173ffffffffffffffffffffffffffffffffffffffff160361195357826040517f7e27328900000000000000000000000000000000000000000000000000000000815260040161194a9190612cf0565b60405180910390fd5b80915050919050565b60006004600083815260200190815260200160002060009054906101000a900473ffffffffffffffffffffffffffffffffffffffff169050919050565b600033905090565b6119ae838383600161239f565b505050565b6000806119bf84612362565b9050600073ffffffffffffffffffffffffffffffffffffffff168373ffffffffffffffffffffffffffffffffffffffff1614611a0157611a00818486612564565b5b600073ffffffffffffffffffffffffffffffffffffffff168173ffffffffffffffffffffffffffffffffffffffff1614611a9257611a4360008560008061239f565b6001600360008373ffffffffffffffffffffffffffffffffffffffff1673ffffffffffffffffffffffffffffffffffffffff168152602001908152602001600020600082825403925050819055505b600073ffffffffffffffffffffffffffffffffffffffff168573ffffffffffffffffffffffffffffffffffffffff1614611b15576001600360008773ffffffffffffffffffffffffffffffffffffffff1673ffffffffffffffffffffffffffffffffffffffff168152602001908152602001600020600082825401925050819055505b846002600086815260200190815260200160002060006101000a81548173ffffffffffffffffffffffffffffffffffffffff021916908373ffffffffffffffffffffffffffffffffffffffff160217905550838573ffffffffffffffffffffffffffffffffffffffff168273ffffffffffffffffffffffffffffffffffffffff167fddf252ad1be2c89b69c2b068fc378daa952ba7f163c4a11628f55a4df523b3ef60405160405180910390a4809150509392505050565b606060008203611c14576040518060400160405280600181526020017f30000000000000000000000000000000000000000000000000000000000000008152509050611d28565b600082905060005b60008214611c46578080611c2f90613203565b915050600a82611c3f91906139c1565b9150611c1c565b60008167ffffffffffffffff811115611c6257611c61612dd4565b5b6040519080825280601f01601f191660200182016040528015611c945781602001600182028036833780820191505090505b5090505b60008514611d2157600182611cad91906132ab565b9150600a85611cbc91906139f2565b6030611cc89190613a23565b60f81b818381518110611cde57611cdd613a57565b5b60200101907effffffffffffffffffffffffffffffffffffffffffffffffffffffffffffff1916908160001a905350600a85611d1a91906139c1565b9450611c98565b8093505050505b919050565b600073ffffffffffffffffffffffffffffffffffffffff168273ffffffffffffffffffffffffffffffffffffffff1603611d9e57816040517f5b08ba18000000000000000000000000000000000000000000000000000000008152600401611d959190612bd3565b60405180910390fd5b80600560008573ffffffffffffffffffffffffffffffffffffffff1673ffffffffffffffffffffffffffffffffffffffff16815260200190815260200160002060008473ffffffffffffffffffffffffffffffffffffffff1673ffffffffffffffffffffffffffffffffffffffff16815260200190815260200160002060006101000a81548160ff0219169083151502179055508173ffffffffffffffffffffffffffffffffffffffff168373ffffffffffffffffffffffffffffffffffffffff167f17307eab39ab6107e8899845ad3d59bd9653f200f220920489ca2b5937696c3183604051611e8f9190612a62565b60405180910390a3505050565b60008173ffffffffffffffffffffffffffffffffffffffff16600660008473ffffffffffffffffffffffffffffffffffffffff1673ffffffffffffffffffffffffffffffffffffffff16815260200190815260200160002060030160009054906101000a900473ffffffffffffffffffffffffffffffffffffffff1673ffffffffffffffffffffffffffffffffffffffff1614611f6e576040517f08c379a0000000000000000000000000000000000000000000000000000000008152600401611f6590613af8565b60405180910390fd5b600080600190505b6008548111611fd5578373ffffffffffffffffffffffffffffffffffffffff16611f9f82610cc8565b73ffffffffffffffffffffffffffffffffffffffff1603611fc257809150611fd5565b8080611fcd90613203565b915050611f76565b5060008103612019576040517f08c379a000000000000000000000000000000000000000000000000000000000815260040161201090613b64565b60405180910390fd5b80915050919050565b600061203160008360006119b3565b9050600073ffffffffffffffffffffffffffffffffffffffff168173ffffffffffffffffffffffffffffffffffffffff16036120a457816040517f7e27328900000000000000000000000000000000000000000000000000000000815260040161209b9190612cf0565b60405180910390fd5b5050565b60008373ffffffffffffffffffffffffffffffffffffffff163b1115612259578273ffffffffffffffffffffffffffffffffffffffff1663150b7a026120ec611999565b8685856040518563ffffffff1660e01b815260040161210e9493929190613bd9565b6020604051808303816000875af192505050801561214a57506040513d601f19601f820116820180604052508101906121479190613c3a565b60015b6121ce573d806000811461217a576040519150601f19603f3d011682016040523d82523d6000602084013e61217f565b606091505b5060008151036121c657836040517f64a0ae920000000000000000000000000000000000000000000000000000000081526004016121bd9190612bd3565b60405180910390fd5b805181602001fd5b63150b7a0260e01b7bffffffffffffffffffffffffffffffffffffffffffffffffffffffff1916817bffffffffffffffffffffffffffffffffffffffffffffffffffffffff19161461225757836040517f64a0ae9200000000000000000000000000000000000000000000000000000000815260040161224e9190612bd3565b60405180910390fd5b505b50505050565b612279828260405180602001604052806000815250612628565b5050565b606060405180602001604052806000815250905090565b6060600060016122a384612644565b01905060008167ffffffffffffffff8111156122c2576122c1612dd4565b5b6040519080825280601f01601f1916602001820160405280156122f45781602001600182028036833780820191505090505b509050600082602001820190505b600115612357578080600190039150507f3031323334353637383961626364656600000000000000000000000000000000600a86061a8153600a858161234b5761234a613992565b5b04945060008503612302575b819350505050919050565b60006002600083815260200190815260200160002060009054906101000a900473ffffffffffffffffffffffffffffffffffffffff169050919050565b80806123d85750600073ffffffffffffffffffffffffffffffffffffffff168273ffffffffffffffffffffffffffffffffffffffff1614155b1561250c5760006123e8846118d4565b9050600073ffffffffffffffffffffffffffffffffffffffff168373ffffffffffffffffffffffffffffffffffffffff161415801561245357508273ffffffffffffffffffffffffffffffffffffffff168173ffffffffffffffffffffffffffffffffffffffff1614155b801561246657506124648184611717565b155b156124a857826040517fa9fbf51f00000000000000000000000000000000000000000000000000000000815260040161249f9190612bd3565b60405180910390fd5b811561250a57838573ffffffffffffffffffffffffffffffffffffffff168273ffffffffffffffffffffffffffffffffffffffff167f8c5be1e5ebec7d5bd14f71427d1e84f3dd0314c0f7b2291e5b200ac8c7c3b92560405160405180910390a45b505b836004600085815260200190815260200160002060006101000a81548173ffffffffffffffffffffffffffffffffffffffff021916908373ffffffffffffffffffffffffffffffffffffffff16021790555050505050565b61256f838383612797565b61262357600073ffffffffffffffffffffffffffffffffffffffff168373ffffffffffffffffffffffffffffffffffffffff16036125e457806040517f7e2732890000000000000000000000000000000000000000000000000000000081526004016125db9190612cf0565b60405180910390fd5b81816040517f177e802f00000000000000000000000000000000000000000000000000000000815260040161261a929190613c67565b60405180910390fd5b505050565b6126328383612858565b61263f60008484846120a8565b505050565b600080600090507a184f03e93ff9f4daa797ed6e38ed64bf6a1f01000000000000000083106126a2577a184f03e93ff9f4daa797ed6e38ed64bf6a1f010000000000000000838161269857612697613992565b5b0492506040810190505b6d04ee2d6d415b85acef810000000083106126df576d04ee2d6d415b85acef810000000083816126d5576126d4613992565b5b0492506020810190505b662386f26fc10000831061270e57662386f26fc10000838161270457612703613992565b5b0492506010810190505b6305f5e1008310612737576305f5e100838161272d5761272c613992565b5b0492506008810190505b612710831061275c57612710838161275257612751613992565b5b0492506004810190505b6064831061277f576064838161277557612774613992565b5b0492506002810190505b600a831061278e576001810190505b80915050919050565b60008073ffffffffffffffffffffffffffffffffffffffff168373ffffffffffffffffffffffffffffffffffffffff161415801561284f57508273ffffffffffffffffffffffffffffffffffffffff168473ffffffffffffffffffffffffffffffffffffffff161480612810575061280f8484611717565b5b8061284e57508273ffffffffffffffffffffffffffffffffffffffff166128368361195c565b73ffffffffffffffffffffffffffffffffffffffff16145b5b90509392505050565b600073ffffffffffffffffffffffffffffffffffffffff168273ffffffffffffffffffffffffffffffffffffffff16036128ca5760006040517f64a0ae920000000000000000000000000000000000000000000000000000000081526004016128c19190612bd3565b60405180910390fd5b60006128d8838360006119b3565b9050600073ffffffffffffffffffffffffffffffffffffffff168173ffffffffffffffffffffffffffffffffffffffff161461294c5760006040517f73c6ac6e0000000000000000000000000000000000000000000000000000000081526004016129439190612bd3565b60405180910390fd5b505050565b50805461295d90613137565b6000825580601f1061296f575061298e565b601f01602090049060005260206000209081019061298d9190612991565b5b50565b5b808211156129aa576000816000905550600101612992565b5090565b6000604051905090565b600080fd5b600080fd5b60007fffffffff0000000000000000000000000000000000000000000000000000000082169050919050565b6129f7816129c2565b8114612a0257600080fd5b50565b600081359050612a14816129ee565b92915050565b600060208284031215612a3057612a2f6129b8565b5b6000612a3e84828501612a05565b91505092915050565b60008115159050919050565b612a5c81612a47565b82525050565b6000602082019050612a776000830184612a53565b92915050565b600081519050919050565b600082825260208201905092915050565b60005b83811015612ab7578082015181840152602081019050612a9c565b60008484015250505050565b6000601f19601f8301169050919050565b6000612adf82612a7d565b612ae98185612a88565b9350612af9818560208601612a99565b612b0281612ac3565b840191505092915050565b60006020820190508181036000830152612b278184612ad4565b905092915050565b6000819050919050565b612b4281612b2f565b8114612b4d57600080fd5b50565b600081359050612b5f81612b39565b92915050565b600060208284031215612b7b57612b7a6129b8565b5b6000612b8984828501612b50565b91505092915050565b600073ffffffffffffffffffffffffffffffffffffffff82169050919050565b6000612bbd82612b92565b9050919050565b612bcd81612bb2565b82525050565b6000602082019050612be86000830184612bc4565b92915050565b612bf781612bb2565b8114612c0257600080fd5b50565b600081359050612c1481612bee565b92915050565b60008060408385031215612c3157612c306129b8565b5b6000612c3f85828601612c05565b9250506020612c5085828601612b50565b9150509250929050565b600060208284031215612c7057612c6f6129b8565b5b6000612c7e84828501612c05565b91505092915050565b612c9081612b2f565b82525050565b600060a0820190508181036000830152612cb08188612ad4565b9050612cbf6020830187612c87565b612ccc6040830186612c87565b612cd96060830185612bc4565b612ce66080830184612c87565b9695505050505050565b6000602082019050612d056000830184612c87565b92915050565b600080600060608486031215612d2457612d236129b8565b5b6000612d3286828701612c05565b9350506020612d4386828701612c05565b9250506040612d5486828701612b50565b9150509250925092565b612d6781612a47565b8114612d7257600080fd5b50565b600081359050612d8481612d5e565b92915050565b60008060408385031215612da157612da06129b8565b5b6000612daf85828601612c05565b9250506020612dc085828601612d75565b9150509250929050565b600080fd5b600080fd5b7f4e487b7100000000000000000000000000000000000000000000000000000000600052604160045260246000fd5b612e0c82612ac3565b810181811067ffffffffffffffff82111715612e2b57612e2a612dd4565b5b80604052505050565b6000612e3e6129ae565b9050612e4a8282612e03565b919050565b600067ffffffffffffffff821115612e6a57612e69612dd4565b5b612e7382612ac3565b9050602081019050919050565b82818337600083830152505050565b6000612ea2612e9d84612e4f565b612e34565b905082815260208101848484011115612ebe57612ebd612dcf565b5b612ec9848285612e80565b509392505050565b600082601f830112612ee657612ee5612dca565b5b8135612ef6848260208601612e8f565b91505092915050565b60008060008060808587031215612f1957612f186129b8565b5b6000612f2787828801612c05565b9450506020612f3887828801612c05565b9350506040612f4987828801612b50565b925050606085013567ffffffffffffffff811115612f6a57612f696129bd565b5b612f7687828801612ed1565b91505092959194509250565b60008060408385031215612f9957612f986129b8565b5b6000612fa785828601612c05565b9250506020612fb885828601612c05565b9150509250929050565b600067ffffffffffffffff821115612fdd57612fdc612dd4565b5b612fe682612ac3565b9050602081019050919050565b600061300661300184612fc2565b612e34565b90508281526020810184848401111561302257613021612dcf565b5b61302d848285612e80565b509392505050565b600082601f83011261304a57613049612dca565b5b813561305a848260208601612ff3565b91505092915050565b600060208284031215613079576130786129b8565b5b600082013567ffffffffffffffff811115613097576130966129bd565b5b6130a384828501613035565b91505092915050565b600080604083850312156130c3576130c26129b8565b5b60006130d185828601612c05565b925050602083013567ffffffffffffffff8111156130f2576130f16129bd565b5b6130fe85828601613035565b9150509250929050565b7f4e487b7100000000000000000000000000000000000000000000000000000000600052602260045260246000fd5b6000600282049050600182168061314f57607f821691505b60208210810361316257613161613108565b5b50919050565b7f596f757220676f7463686920686173206e6f20656e6572677900000000000000600082015250565b600061319e601983612a88565b91506131a982613168565b602082019050919050565b600060208201905081810360008301526131cd81613191565b9050919050565b7f4e487b7100000000000000000000000000000000000000000000000000000000600052601160045260246000fd5b600061320e82612b2f565b91507fffffffffffffffffffffffffffffffffffffffffffffffffffffffffffffffff82036132405761323f6131d4565b5b600182019050919050565b600061325682612b2f565b915060008203613269576132686131d4565b5b600182039050919050565b60006060820190506132896000830186612bc4565b6132966020830185612c87565b6132a36040830184612bc4565b949350505050565b60006132b682612b2f565b91506132c183612b2f565b92508282039050818111156132d9576132d86131d4565b5b92915050565b600081905092915050565b7f4e616d653a200000000000000000000000000000000000000000000000000000600082015250565b60006133206006836132df565b915061332b826132ea565b600682019050919050565b60008190508160005260206000209050919050565b6000815461335881613137565b61336281866132df565b9450600182166000811461337d5760018114613392576133c5565b60ff19831686528115158202860193506133c5565b61339b85613336565b60005b838110156133bd5781548189015260018201915060208101905061339e565b838801955050505b50505092915050565b7f0a4d6f6f643a2000000000000000000000000000000000000000000000000000600082015250565b60006134046007836132df565b915061340f826133ce565b600782019050919050565b600061342582612a7d565b61342f81856132df565b935061343f818560208601612a99565b80840191505092915050565b7f0a456e657267793a200000000000000000000000000000000000000000000000600082015250565b60006134816009836132df565b915061348c8261344b565b600982019050919050565b60006134a282613313565b91506134ae828661334b565b91506134b9826133f7565b91506134c5828561341a565b91506134d082613474565b91506134dc828461341a565b9150819050949350505050565b7f426f696c6572476f7463686920646f6573206e6f742065786973742e00000000600082015250565b600061351f601c83612a88565b915061352a826134e9565b602082019050919050565b6000602082019050818103600083015261354e81613512565b9050919050565b7f43616c6c6572206973206e6f7420746865206f776e65722e0000000000000000600082015250565b600061358b601883612a88565b915061359682613555565b602082019050919050565b600060208201905081810360008301526135ba8161357e565b9050919050565b7f596f7520646f206e6f74206f776e206120426f696c6572476f74636869000000600082015250565b60006135f7601d83612a88565b9150613602826135c1565b602082019050919050565b60006020820190508181036000830152613626816135ea565b9050919050565b7f4e616d652073686f756c64206e6f7420626520656d7074790000000000000000600082015250565b6000613663601883612a88565b915061366e8261362d565b602082019050919050565b6000602082019050818103600083015261369281613656565b9050919050565b7f596f7520616c72656164792068617665206120676f7463686900000000000000600082015250565b60006136cf601983612a88565b91506136da82613699565b602082019050919050565b600060208201905081810360008301526136fe816136c2565b9050919050565b60006020601f8301049050919050565b600082821b905092915050565b6000600883026137527fffffffffffffffffffffffffffffffffffffffffffffffffffffffffffffffff82613715565b61375c8683613715565b95508019841693508086168417925050509392505050565b6000819050919050565b600061379961379461378f84612b2f565b613774565b612b2f565b9050919050565b6000819050919050565b6137b38361377e565b6137c76137bf826137a0565b848454613722565b825550505050565b600090565b6137dc6137cf565b6137e78184846137aa565b505050565b5b8181101561380b576138006000826137d4565b6001810190506137ed565b5050565b601f8211156138505761382181613336565b61382a84613705565b81016020851015613839578190505b61384d61384585613705565b8301826137ec565b50505b505050565b600082821c905092915050565b600061387360001984600802613855565b1980831691505092915050565b600061388c8383613862565b9150826002028217905092915050565b6138a582612a7d565b67ffffffffffffffff8111156138be576138bd612dd4565b5b6138c88254613137565b6138d382828561380f565b600060209050601f83116001811461390657600084156138f4578287015190505b6138fe8582613880565b865550613966565b601f19841661391486613336565b60005b8281101561393c57848901518255600182019150602085019450602081019050613917565b868310156139595784890151613955601f891682613862565b8355505b6001600288020188555050505b505050505050565b600061397a828561341a565b9150613986828461341a565b91508190509392505050565b7f4e487b7100000000000000000000000000000000000000000000000000000000600052601260045260246000fd5b60006139cc82612b2f565b91506139d783612b2f565b9250826139e7576139e6613992565b5b828204905092915050565b60006139fd82612b2f565b9150613a0883612b2f565b925082613a1857613a17613992565b5b828206905092915050565b6000613a2e82612b2f565b9150613a3983612b2f565b9250828201905080821115613a5157613a506131d4565b5b92915050565b7f4e487b7100000000000000000000000000000000000000000000000000000000600052603260045260246000fd5b7f4f776e657220646f6573206e6f742068617665206120426f696c6572476f746360008201527f6869000000000000000000000000000000000000000000000000000000000000602082015250565b6000613ae2602283612a88565b9150613aed82613a86565b604082019050919050565b60006020820190508181036000830152613b1181613ad5565b9050919050565b7f546f6b656e204944206e6f7420666f756e640000000000000000000000000000600082015250565b6000613b4e601283612a88565b9150613b5982613b18565b602082019050919050565b60006020820190508181036000830152613b7d81613b41565b9050919050565b600081519050919050565b600082825260208201905092915050565b6000613bab82613b84565b613bb58185613b8f565b9350613bc5818560208601612a99565b613bce81612ac3565b840191505092915050565b6000608082019050613bee6000830187612bc4565b613bfb6020830186612bc4565b613c086040830185612c87565b8181036060830152613c1a8184613ba0565b905095945050505050565b600081519050613c34816129ee565b92915050565b600060208284031215613c5057613c4f6129b8565b5b6000613c5e84828501613c25565b91505092915050565b6000604082019050613c7c6000830185612bc4565b613c896020830184612c87565b939250505056fea264697066735822122016ec5a8d6f8de7cdce2ae30b4b9d5412d79c3109682905ee88a7cf1359ee26db64736f6c63430008140033",
  "linkReferences": {},
  "deployedLinkReferences": {}
}