{
  "_format": "hh-sol-artifact-1",
  "contractName": "boilerGotchi",
  "sourceName": "Contracts/initalize.sol",
  "abi": [
    {
      "inputs": [],
      "stateMutability": "nonpayable",
      "type": "constructor"
    },
    {
      "inputs": [
        {
          "internalType": "address",
          "name": "sender",
          "type": "address"
        },
        {
          "internalType": "uint256",
          "name": "tokenId",
          "type": "uint256"
        },
        {
          "internalType": "address",
          "name": "owner",
          "type": "address"
        }
      ],
      "name": "ERC721IncorrectOwner",
      "type": "error"
    },
    {
      "inputs": [
        {
          "internalType": "address",
          "name": "operator",
          "type": "address"
        },
        {
          "internalType": "uint256",
          "name": "tokenId",
          "type": "uint256"
        }
      ],
      "name": "ERC721InsufficientApproval",
      "type": "error"
    },
    {
      "inputs": [
        {
          "internalType": "address",
          "name": "approver",
          "type": "address"
        }
      ],
      "name": "ERC721InvalidApprover",
      "type": "error"
    },
    {
      "inputs": [
        {
          "internalType": "address",
          "name": "operator",
          "type": "address"
        }
      ],
      "name": "ERC721InvalidOperator",
      "type": "error"
    },
    {
      "inputs": [
        {
          "internalType": "address",
          "name": "owner",
          "type": "address"
        }
      ],
      "name": "ERC721InvalidOwner",
      "type": "error"
    },
    {
      "inputs": [
        {
          "internalType": "address",
          "name": "receiver",
          "type": "address"
        }
      ],
      "name": "ERC721InvalidReceiver",
      "type": "error"
    },
    {
      "inputs": [
        {
          "internalType": "address",
          "name": "sender",
          "type": "address"
        }
      ],
      "name": "ERC721InvalidSender",
      "type": "error"
    },
    {
      "inputs": [
        {
          "internalType": "uint256",
          "name": "tokenId",
          "type": "uint256"
        }
      ],
      "name": "ERC721NonexistentToken",
      "type": "error"
    },
    {
      "anonymous": false,
      "inputs": [
        {
          "indexed": true,
          "internalType": "address",
          "name": "owner",
          "type": "address"
        },
        {
          "indexed": true,
          "internalType": "address",
          "name": "approved",
          "type": "address"
        },
        {
          "indexed": true,
          "internalType": "uint256",
          "name": "tokenId",
          "type": "uint256"
        }
      ],
      "name": "Approval",
      "type": "event"
    },
    {
      "anonymous": false,
      "inputs": [
        {
          "indexed": true,
          "internalType": "address",
          "name": "owner",
          "type": "address"
        },
        {
          "indexed": true,
          "internalType": "address",
          "name": "operator",
          "type": "address"
        },
        {
          "indexed": false,
          "internalType": "bool",
          "name": "approved",
          "type": "bool"
        }
      ],
      "name": "ApprovalForAll",
      "type": "event"
    },
    {
      "anonymous": false,
      "inputs": [
        {
          "indexed": true,
          "internalType": "address",
          "name": "from",
          "type": "address"
        },
        {
          "indexed": true,
          "internalType": "address",
          "name": "to",
          "type": "address"
        },
        {
          "indexed": true,
          "internalType": "uint256",
          "name": "tokenId",
          "type": "uint256"
        }
      ],
      "name": "Transfer",
      "type": "event"
    },
    {
      "inputs": [
        {
          "internalType": "address",
          "name": "to",
          "type": "address"
        },
        {
          "internalType": "uint256",
          "name": "tokenId",
          "type": "uint256"
        }
      ],
      "name": "approve",
      "outputs": [],
      "stateMutability": "nonpayable",
      "type": "function"
    },
    {
      "inputs": [
        {
          "internalType": "address",
          "name": "owner",
          "type": "address"
        }
      ],
      "name": "balanceOf",
      "outputs": [
        {
          "internalType": "uint256",
          "name": "",
          "type": "uint256"
        }
      ],
      "stateMutability": "view",
      "type": "function"
    },
    {
      "inputs": [],
      "name": "checkStatus",
      "outputs": [
        {
          "internalType": "string",
          "name": "",
          "type": "string"
        }
      ],
      "stateMutability": "view",
      "type": "function"
    },
    {
      "inputs": [
        {
          "internalType": "string",
          "name": "name",
          "type": "string"
        }
      ],
      "name": "createGotchi",
      "outputs": [],
      "stateMutability": "nonpayable",
      "type": "function"
    },
    {
      "inputs": [],
      "name": "deleteGotchi",
      "outputs": [],
      "stateMutability": "nonpayable",
      "type": "function"
    },
    {
      "inputs": [],
      "name": "feedBoilerGotchi",
      "outputs": [],
      "stateMutability": "nonpayable",
      "type": "function"
    },
    {
      "inputs": [
        {
          "internalType": "uint256",
          "name": "tokenId",
          "type": "uint256"
        }
      ],
      "name": "getApproved",
      "outputs": [
        {
          "internalType": "address",
          "name": "",
          "type": "address"
        }
      ],
      "stateMutability": "view",
      "type": "function"
    },
    {
      "inputs": [],
      "name": "getBoilergotchiEnergyPoints",
      "outputs": [
        {
          "internalType": "uint256",
          "name": "",
          "type": "uint256"
        }
      ],
      "stateMutability": "view",
      "type": "function"
    },
    {
      "inputs": [
        {
          "internalType": "address",
          "name": "user_addr",
          "type": "address"
        }
      ],
      "name": "getBoilergotchiName",
      "outputs": [
        {
          "internalType": "string",
          "name": "",
          "type": "string"
        }
      ],
      "stateMutability": "view",
      "type": "function"
    },
    {
      "inputs": [],
      "name": "getMood",
      "outputs": [
        {
          "internalType": "string",
          "name": "",
          "type": "string"
        }
      ],
      "stateMutability": "view",
      "type": "function"
    },
    {
      "inputs": [
        {
          "internalType": "address",
          "name": "",
          "type": "address"
        }
      ],
      "name": "gotchis",
      "outputs": [
        {
          "internalType": "string",
          "name": "name",
          "type": "string"
        },
        {
          "internalType": "uint256",
          "name": "mood",
          "type": "uint256"
        },
        {
          "internalType": "uint256",
          "name": "energy",
          "type": "uint256"
        },
        {
          "internalType": "address",
          "name": "owner",
          "type": "address"
        },
        {
          "internalType": "uint256",
          "name": "lastPlayed",
          "type": "uint256"
        }
      ],
      "stateMutability": "view",
      "type": "function"
    },
    {
      "inputs": [
        {
          "internalType": "address",
          "name": "owner",
          "type": "address"
        },
        {
          "internalType": "address",
          "name": "operator",
          "type": "address"
        }
      ],
      "name": "isApprovedForAll",
      "outputs": [
        {
          "internalType": "bool",
          "name": "",
          "type": "bool"
        }
      ],
      "stateMutability": "view",
      "type": "function"
    },
    {
      "inputs": [],
      "name": "name",
      "outputs": [
        {
          "internalType": "string",
          "name": "",
          "type": "string"
        }
      ],
      "stateMutability": "view",
      "type": "function"
    },
    {
      "inputs": [],
      "name": "nextID",
      "outputs": [
        {
          "internalType": "uint256",
          "name": "",
          "type": "uint256"
        }
      ],
      "stateMutability": "view",
      "type": "function"
    },
    {
      "inputs": [
        {
          "internalType": "uint256",
          "name": "tokenId",
          "type": "uint256"
        }
      ],
      "name": "ownerOf",
      "outputs": [
        {
          "internalType": "address",
          "name": "",
          "type": "address"
        }
      ],
      "stateMutability": "view",
      "type": "function"
    },
    {
      "inputs": [],
      "name": "playBoilerGotchi",
      "outputs": [],
      "stateMutability": "nonpayable",
      "type": "function"
    },
    {
      "inputs": [
        {
          "internalType": "address",
          "name": "from",
          "type": "address"
        },
        {
          "internalType": "address",
          "name": "to",
          "type": "address"
        },
        {
          "internalType": "uint256",
          "name": "tokenId",
          "type": "uint256"
        }
      ],
      "name": "safeTransferFrom",
      "outputs": [],
      "stateMutability": "nonpayable",
      "type": "function"
    },
    {
      "inputs": [
        {
          "internalType": "address",
          "name": "from",
          "type": "address"
        },
        {
          "internalType": "address",
          "name": "to",
          "type": "address"
        },
        {
          "internalType": "uint256",
          "name": "tokenId",
          "type": "uint256"
        },
        {
          "internalType": "bytes",
          "name": "data",
          "type": "bytes"
        }
      ],
      "name": "safeTransferFrom",
      "outputs": [],
      "stateMutability": "nonpayable",
      "type": "function"
    },
    {
      "inputs": [
        {
          "internalType": "address",
          "name": "operator",
          "type": "address"
        },
        {
          "internalType": "bool",
          "name": "approved",
          "type": "bool"
        }
      ],
      "name": "setApprovalForAll",
      "outputs": [],
      "stateMutability": "nonpayable",
      "type": "function"
    },
    {
      "inputs": [
        {
          "internalType": "uint256",
          "name": "id",
          "type": "uint256"
        },
        {
          "internalType": "uint256",
          "name": "energy",
          "type": "uint256"
        }
      ],
      "name": "setBoilergotchiEnergyPoints",
      "outputs": [],
      "stateMutability": "nonpayable",
      "type": "function"
    },
    {
      "inputs": [
        {
          "internalType": "address",
          "name": "user_addr",
          "type": "address"
        },
        {
          "internalType": "string",
          "name": "name",
          "type": "string"
        }
      ],
      "name": "setBoilergotchiName",
      "outputs": [],
      "stateMutability": "nonpayable",
      "type": "function"
    },
    {
      "inputs": [
        {
          "internalType": "bytes4",
          "name": "interfaceId",
          "type": "bytes4"
        }
      ],
      "name": "supportsInterface",
      "outputs": [
        {
          "internalType": "bool",
          "name": "",
          "type": "bool"
        }
      ],
      "stateMutability": "view",
      "type": "function"
    },
    {
      "inputs": [],
      "name": "symbol",
      "outputs": [
        {
          "internalType": "string",
          "name": "",
          "type": "string"
        }
      ],
      "stateMutability": "view",
      "type": "function"
    },
    {
      "inputs": [
        {
          "internalType": "uint256",
          "name": "tokenId",
          "type": "uint256"
        }
      ],
      "name": "tokenURI",
      "outputs": [
        {
          "internalType": "string",
          "name": "",
          "type": "string"
        }
      ],
      "stateMutability": "view",
      "type": "function"
    },
    {
      "inputs": [
        {
          "internalType": "address",
          "name": "from",
          "type": "address"
        },
        {
          "internalType": "address",
          "name": "to",
          "type": "address"
        }
      ],
      "name": "transfer",
      "outputs": [],
      "stateMutability": "nonpayable",
      "type": "function"
    },
    {
      "inputs": [
        {
          "internalType": "address",
          "name": "from",
          "type": "address"
        },
        {
          "internalType": "address",
          "name": "to",
          "type": "address"
        },
        {
          "internalType": "uint256",
          "name": "tokenId",
          "type": "uint256"
        }
      ],
      "name": "transferFrom",
      "outputs": [],
      "stateMutability": "nonpayable",
      "type": "function"
    }
  ],
  "bytecode": "0x608060405260016008553480156200001657600080fd5b506040518060400160405280600c81526020017f426f696c6572476f7463686900000000000000000000000000000000000000008152506040518060400160405280600281526020017f4247000000000000000000000000000000000000000000000000000000000000815250816000908162000094919062000329565b508060019081620000a6919062000329565b50505062000410565b600081519050919050565b7f4e487b7100000000000000000000000000000000000000000000000000000000600052604160045260246000fd5b7f4e487b7100000000000000000000000000000000000000000000000000000000600052602260045260246000fd5b600060028204905060018216806200013157607f821691505b602082108103620001475762000146620000e9565b5b50919050565b60008190508160005260206000209050919050565b60006020601f8301049050919050565b600082821b905092915050565b600060088302620001b17fffffffffffffffffffffffffffffffffffffffffffffffffffffffffffffffff8262000172565b620001bd868362000172565b95508019841693508086168417925050509392505050565b6000819050919050565b6000819050919050565b60006200020a62000204620001fe84620001d5565b620001df565b620001d5565b9050919050565b6000819050919050565b6200022683620001e9565b6200023e620002358262000211565b8484546200017f565b825550505050565b600090565b6200025562000246565b620002628184846200021b565b505050565b5b818110156200028a576200027e6000826200024b565b60018101905062000268565b5050565b601f821115620002d957620002a3816200014d565b620002ae8462000162565b81016020851015620002be578190505b620002d6620002cd8562000162565b83018262000267565b50505b505050565b600082821c905092915050565b6000620002fe60001984600802620002de565b1980831691505092915050565b6000620003198383620002eb565b9150826002028217905092915050565b6200033482620000af565b67ffffffffffffffff81111562000350576200034f620000ba565b5b6200035c825462000118565b620003698282856200028e565b600060209050601f831160018114620003a157600084156200038c578287015190505b6200039885826200030b565b86555062000408565b601f198416620003b1866200014d565b60005b82811015620003db57848901518255600182019150602085019450602081019050620003b4565b86831015620003fb5784890151620003f7601f891682620002eb565b8355505b6001600288020188555050505b505050505050565b613b8780620004206000396000f3fe608060405234801561001057600080fd5b506004361061018e5760003560e01c806383ec3595116100de578063b88d4fde11610097578063c016063d11610071578063c016063d1461044b578063c87b56dd14610469578063e985e9c514610499578063eb8acadc146104c95761018e565b8063b88d4fde146103f7578063ba45b0b814610413578063bd11ccd91461042f5761018e565b806383ec35951461034957806391deac611461037957806395d89b41146103955780639d0c1397146103b3578063a22cb465146103d1578063ab6720e5146103ed5761018e565b80631e96917d1161014b57806342842e0e1161012557806342842e0e146102c35780634ce89ce4146102df5780636352211e146102e957806370a08231146103195761018e565b80631e96917d1461026b57806323b872dd146102895780633b7104f2146102a55761018e565b806301ffc9a71461019357806306fdde03146101c35780630759b783146101e1578063081812fc146101eb578063095ea7b31461021b5780630fe9c9b214610237575b600080fd5b6101ad60048036038101906101a89190612907565b6104e5565b6040516101ba919061294f565b60405180910390f35b6101cb6105c7565b6040516101d891906129fa565b60405180910390f35b6101e9610659565b005b61020560048036038101906102009190612a52565b6107a2565b6040516102129190612ac0565b60405180910390f35b61023560048036038101906102309190612b07565b6107be565b005b610251600480360381019061024c9190612b47565b6107d4565b604051610262959493929190612b83565b60405180910390f35b6102736108b2565b6040516102809190612bdd565b60405180910390f35b6102a3600480360381019061029e9190612bf8565b6108b8565b005b6102ad6109ba565b6040516102ba91906129fa565b60405180910390f35b6102dd60048036038101906102d89190612bf8565b610a45565b005b6102e7610a65565b005b61030360048036038101906102fe9190612a52565b610bae565b6040516103109190612ac0565b60405180910390f35b610333600480360381019061032e9190612b47565b610bc0565b6040516103409190612bdd565b60405180910390f35b610363600480360381019061035e9190612b47565b610c7a565b60405161037091906129fa565b60405180910390f35b610393600480360381019061038e9190612c4b565b610e1c565b005b61039d610ee3565b6040516103aa91906129fa565b60405180910390f35b6103bb610f75565b6040516103c891906129fa565b60405180910390f35b6103eb60048036038101906103e69190612cb7565b6110e8565b005b6103f56110fe565b005b610411600480360381019061040c9190612e2c565b611278565b005b61042d60048036038101906104289190612eaf565b611295565b005b61044960048036038101906104449190612f90565b6112b2565b005b6104536114ec565b6040516104609190612bdd565b60405180910390f35b610483600480360381019061047e9190612a52565b61153b565b60405161049091906129fa565b60405180910390f35b6104b360048036038101906104ae9190612eaf565b6115a4565b6040516104c0919061294f565b60405180910390f35b6104e360048036038101906104de9190612fd9565b611638565b005b60007f80ac58cd000000000000000000000000000000000000000000000000000000007bffffffffffffffffffffffffffffffffffffffffffffffffffffffff1916827bffffffffffffffffffffffffffffffffffffffffffffffffffffffff191614806105b057507f5b5e139f000000000000000000000000000000000000000000000000000000007bffffffffffffffffffffffffffffffffffffffffffffffffffffffff1916827bffffffffffffffffffffffffffffffffffffffffffffffffffffffff1916145b806105c057506105bf826116f7565b5b9050919050565b6060600080546105d690613064565b80601f016020809104026020016040519081016040528092919081815260200182805461060290613064565b801561064f5780601f106106245761010080835404028352916020019161064f565b820191906000526020600020905b81548152906001019060200180831161063257829003601f168201915b5050505050905090565b61016d600660003373ffffffffffffffffffffffffffffffffffffffff1673ffffffffffffffffffffffffffffffffffffffff16815260200190815260200160002060010154146106fd57600660003373ffffffffffffffffffffffffffffffffffffffff1673ffffffffffffffffffffffffffffffffffffffff16815260200190815260200160002060010160008154809291906106f7906130c4565b91905055505b6000600660003373ffffffffffffffffffffffffffffffffffffffff1673ffffffffffffffffffffffffffffffffffffffff16815260200190815260200160002060020154146107a057600660003373ffffffffffffffffffffffffffffffffffffffff1673ffffffffffffffffffffffffffffffffffffffff168152602001908152602001600020600201600081548092919061079a9061310c565b91905055505b565b60006107ad82611761565b506107b7826117e9565b9050919050565b6107d082826107cb611826565b61182e565b5050565b60066020528060005260406000206000915090508060000180546107f790613064565b80601f016020809104026020016040519081016040528092919081815260200182805461082390613064565b80156108705780601f1061084557610100808354040283529160200191610870565b820191906000526020600020905b81548152906001019060200180831161085357829003601f168201915b5050505050908060010154908060020154908060030160009054906101000a900473ffffffffffffffffffffffffffffffffffffffff16908060040154905085565b60085481565b600073ffffffffffffffffffffffffffffffffffffffff168273ffffffffffffffffffffffffffffffffffffffff160361092a5760006040517f64a0ae920000000000000000000000000000000000000000000000000000000081526004016109219190612ac0565b60405180910390fd5b600061093e8383610939611826565b611840565b90508373ffffffffffffffffffffffffffffffffffffffff168173ffffffffffffffffffffffffffffffffffffffff16146109b4578382826040517f64283d7b0000000000000000000000000000000000000000000000000000000081526004016109ab93929190613135565b60405180910390fd5b50505050565b60606000600660003373ffffffffffffffffffffffffffffffffffffffff1673ffffffffffffffffffffffffffffffffffffffff16815260200190815260200160002090506000610a09610f75565b90508160000181610a1d8460020154611a5a565b604051602001610a2f93929190613324565b6040516020818303038152906040529250505090565b610a6083838360405180602001604052806000815250611278565b505050565b6064600660003373ffffffffffffffffffffffffffffffffffffffff1673ffffffffffffffffffffffffffffffffffffffff1681526020019081526020016000206002015414610b0857600660003373ffffffffffffffffffffffffffffffffffffffff1673ffffffffffffffffffffffffffffffffffffffff1681526020019081526020016000206002016000815480929190610b02906130c4565b91905055505b61016d600660003373ffffffffffffffffffffffffffffffffffffffff1673ffffffffffffffffffffffffffffffffffffffff1681526020019081526020016000206001015414610bac57600660003373ffffffffffffffffffffffffffffffffffffffff1673ffffffffffffffffffffffffffffffffffffffff1681526020019081526020016000206001016000815480929190610ba6906130c4565b91905055505b565b6000610bb982611761565b9050919050565b60008073ffffffffffffffffffffffffffffffffffffffff168273ffffffffffffffffffffffffffffffffffffffff1603610c335760006040517f89c62b64000000000000000000000000000000000000000000000000000000008152600401610c2a9190612ac0565b60405180910390fd5b600360008373ffffffffffffffffffffffffffffffffffffffff1673ffffffffffffffffffffffffffffffffffffffff168152602001908152602001600020549050919050565b6060600073ffffffffffffffffffffffffffffffffffffffff16600660008473ffffffffffffffffffffffffffffffffffffffff1673ffffffffffffffffffffffffffffffffffffffff16815260200190815260200160002060030160009054906101000a900473ffffffffffffffffffffffffffffffffffffffff1673ffffffffffffffffffffffffffffffffffffffff1603610d4d576040517f08c379a0000000000000000000000000000000000000000000000000000000008152600401610d44906133c2565b60405180910390fd5b600760008373ffffffffffffffffffffffffffffffffffffffff1673ffffffffffffffffffffffffffffffffffffffff1681526020019081526020016000208054610d9790613064565b80601f0160208091040260200160405190810160405280929190818152602001828054610dc390613064565b8015610e105780601f10610de557610100808354040283529160200191610e10565b820191906000526020600020905b815481529060010190602001808311610df357829003601f168201915b50505050509050919050565b610e2582610bae565b73ffffffffffffffffffffffffffffffffffffffff163373ffffffffffffffffffffffffffffffffffffffff1614610e92576040517f08c379a0000000000000000000000000000000000000000000000000000000008152600401610e899061342e565b60405180910390fd5b6000600660003373ffffffffffffffffffffffffffffffffffffffff1673ffffffffffffffffffffffffffffffffffffffff1681526020019081526020016000209050818160020181905550505050565b606060018054610ef290613064565b80601f0160208091040260200160405190810160405280929190818152602001828054610f1e90613064565b8015610f6b5780601f10610f4057610100808354040283529160200191610f6b565b820191906000526020600020905b815481529060010190602001808311610f4e57829003601f168201915b5050505050905090565b60606000600660003373ffffffffffffffffffffffffffffffffffffffff1673ffffffffffffffffffffffffffffffffffffffff1681526020019081526020016000209050610fc2611bba565b15611005576040518060400160405280600881526020017f537569636964616c0000000000000000000000000000000000000000000000008152509150506110e5565b60c881600101541061104f576040518060400160405280600581526020017f48617070790000000000000000000000000000000000000000000000000000008152509150506110e5565b6064816001015410611099576040518060400160405280600581526020017f4368696c6c0000000000000000000000000000000000000000000000000000008152509150506110e5565b60018160010154106110e3576040518060400160405280600381526020017f53616400000000000000000000000000000000000000000000000000000000008152509150506110e5565b505b90565b6110fa6110f3611826565b8383611c1a565b5050565b3373ffffffffffffffffffffffffffffffffffffffff16600660003373ffffffffffffffffffffffffffffffffffffffff1673ffffffffffffffffffffffffffffffffffffffff16815260200190815260200160002060030160009054906101000a900473ffffffffffffffffffffffffffffffffffffffff1673ffffffffffffffffffffffffffffffffffffffff16146111ce576040517f08c379a00000000000000000000000000000000000000000000000000000000081526004016111c59061349a565b60405180910390fd5b60006111d933611d89565b90506111e481611f0f565b600660003373ffffffffffffffffffffffffffffffffffffffff1673ffffffffffffffffffffffffffffffffffffffff16815260200190815260200160002060008082016000611234919061283e565b600182016000905560028201600090556003820160006101000a81549073ffffffffffffffffffffffffffffffffffffffff02191690556004820160009055505050565b6112838484846108b8565b61128f84848484611f95565b50505050565b60006112a083611d89565b90506112ad8383836108b8565b505050565b60008151116112f6576040517f08c379a00000000000000000000000000000000000000000000000000000000081526004016112ed90613506565b60405180910390fd5b600073ffffffffffffffffffffffffffffffffffffffff16600660003373ffffffffffffffffffffffffffffffffffffffff1673ffffffffffffffffffffffffffffffffffffffff16815260200190815260200160002060030160009054906101000a900473ffffffffffffffffffffffffffffffffffffffff1673ffffffffffffffffffffffffffffffffffffffff16146113c7576040517f08c379a00000000000000000000000000000000000000000000000000000000081526004016113be90613572565b60405180910390fd5b6000600860008154809291906113dc906130c4565b9190505590506113ec338261214c565b6040518060a0016040528083815260200160648152602001606481526020013373ffffffffffffffffffffffffffffffffffffffff16815260200142815250600660003373ffffffffffffffffffffffffffffffffffffffff1673ffffffffffffffffffffffffffffffffffffffff168152602001908152602001600020600082015181600001908161147f9190613729565b50602082015181600101556040820151816002015560608201518160030160006101000a81548173ffffffffffffffffffffffffffffffffffffffff021916908373ffffffffffffffffffffffffffffffffffffffff160217905550608082015181600401559050505050565b600080600660003373ffffffffffffffffffffffffffffffffffffffff1673ffffffffffffffffffffffffffffffffffffffff1681526020019081526020016000209050806002015491505090565b606061154682611761565b50600061155161216a565b90506000815111611571576040518060200160405280600081525061159c565b8061157b84612181565b60405160200161158c9291906137fb565b6040516020818303038152906040525b915050919050565b6000600560008473ffffffffffffffffffffffffffffffffffffffff1673ffffffffffffffffffffffffffffffffffffffff16815260200190815260200160002060008373ffffffffffffffffffffffffffffffffffffffff1673ffffffffffffffffffffffffffffffffffffffff16815260200190815260200160002060009054906101000a900460ff16905092915050565b3373ffffffffffffffffffffffffffffffffffffffff168273ffffffffffffffffffffffffffffffffffffffff16146116a6576040517f08c379a000000000000000000000000000000000000000000000000000000000815260040161169d9061342e565b60405180910390fd5b80600760008473ffffffffffffffffffffffffffffffffffffffff1673ffffffffffffffffffffffffffffffffffffffff16815260200190815260200160002090816116f29190613729565b505050565b60007f01ffc9a7000000000000000000000000000000000000000000000000000000007bffffffffffffffffffffffffffffffffffffffffffffffffffffffff1916827bffffffffffffffffffffffffffffffffffffffffffffffffffffffff1916149050919050565b60008061176d8361224f565b9050600073ffffffffffffffffffffffffffffffffffffffff168173ffffffffffffffffffffffffffffffffffffffff16036117e057826040517f7e2732890000000000000000000000000000000000000000000000000000000081526004016117d79190612bdd565b60405180910390fd5b80915050919050565b60006004600083815260200190815260200160002060009054906101000a900473ffffffffffffffffffffffffffffffffffffffff169050919050565b600033905090565b61183b838383600161228c565b505050565b60008061184c8461224f565b9050600073ffffffffffffffffffffffffffffffffffffffff168373ffffffffffffffffffffffffffffffffffffffff161461188e5761188d818486612451565b5b600073ffffffffffffffffffffffffffffffffffffffff168173ffffffffffffffffffffffffffffffffffffffff161461191f576118d060008560008061228c565b6001600360008373ffffffffffffffffffffffffffffffffffffffff1673ffffffffffffffffffffffffffffffffffffffff168152602001908152602001600020600082825403925050819055505b600073ffffffffffffffffffffffffffffffffffffffff168573ffffffffffffffffffffffffffffffffffffffff16146119a2576001600360008773ffffffffffffffffffffffffffffffffffffffff1673ffffffffffffffffffffffffffffffffffffffff168152602001908152602001600020600082825401925050819055505b846002600086815260200190815260200160002060006101000a81548173ffffffffffffffffffffffffffffffffffffffff021916908373ffffffffffffffffffffffffffffffffffffffff160217905550838573ffffffffffffffffffffffffffffffffffffffff168273ffffffffffffffffffffffffffffffffffffffff167fddf252ad1be2c89b69c2b068fc378daa952ba7f163c4a11628f55a4df523b3ef60405160405180910390a4809150509392505050565b606060008203611aa1576040518060400160405280600181526020017f30000000000000000000000000000000000000000000000000000000000000008152509050611bb5565b600082905060005b60008214611ad3578080611abc906130c4565b915050600a82611acc919061384e565b9150611aa9565b60008167ffffffffffffffff811115611aef57611aee612d01565b5b6040519080825280601f01601f191660200182016040528015611b215781602001600182028036833780820191505090505b5090505b60008514611bae57600182611b3a919061387f565b9150600a85611b4991906138b3565b6030611b5591906138e4565b60f81b818381518110611b6b57611b6a613918565b5b60200101907effffffffffffffffffffffffffffffffffffffffffffffffffffffffffffff1916908160001a905350600a85611ba7919061384e565b9450611b25565b8093505050505b919050565b600080600660003373ffffffffffffffffffffffffffffffffffffffff1673ffffffffffffffffffffffffffffffffffffffff16815260200190815260200160002090506301e13380816004015442611c13919061387f565b1191505090565b600073ffffffffffffffffffffffffffffffffffffffff168273ffffffffffffffffffffffffffffffffffffffff1603611c8b57816040517f5b08ba18000000000000000000000000000000000000000000000000000000008152600401611c829190612ac0565b60405180910390fd5b80600560008573ffffffffffffffffffffffffffffffffffffffff1673ffffffffffffffffffffffffffffffffffffffff16815260200190815260200160002060008473ffffffffffffffffffffffffffffffffffffffff1673ffffffffffffffffffffffffffffffffffffffff16815260200190815260200160002060006101000a81548160ff0219169083151502179055508173ffffffffffffffffffffffffffffffffffffffff168373ffffffffffffffffffffffffffffffffffffffff167f17307eab39ab6107e8899845ad3d59bd9653f200f220920489ca2b5937696c3183604051611d7c919061294f565b60405180910390a3505050565b60008173ffffffffffffffffffffffffffffffffffffffff16600660008473ffffffffffffffffffffffffffffffffffffffff1673ffffffffffffffffffffffffffffffffffffffff16815260200190815260200160002060030160009054906101000a900473ffffffffffffffffffffffffffffffffffffffff1673ffffffffffffffffffffffffffffffffffffffff1614611e5b576040517f08c379a0000000000000000000000000000000000000000000000000000000008152600401611e52906139b9565b60405180910390fd5b600080600190505b6008548111611ec2578373ffffffffffffffffffffffffffffffffffffffff16611e8c82610bae565b73ffffffffffffffffffffffffffffffffffffffff1603611eaf57809150611ec2565b8080611eba906130c4565b915050611e63565b5060008103611f06576040517f08c379a0000000000000000000000000000000000000000000000000000000008152600401611efd90613a25565b60405180910390fd5b80915050919050565b6000611f1e6000836000611840565b9050600073ffffffffffffffffffffffffffffffffffffffff168173ffffffffffffffffffffffffffffffffffffffff1603611f9157816040517f7e273289000000000000000000000000000000000000000000000000000000008152600401611f889190612bdd565b60405180910390fd5b5050565b60008373ffffffffffffffffffffffffffffffffffffffff163b1115612146578273ffffffffffffffffffffffffffffffffffffffff1663150b7a02611fd9611826565b8685856040518563ffffffff1660e01b8152600401611ffb9493929190613a9a565b6020604051808303816000875af192505050801561203757506040513d601f19601f820116820180604052508101906120349190613afb565b60015b6120bb573d8060008114612067576040519150601f19603f3d011682016040523d82523d6000602084013e61206c565b606091505b5060008151036120b357836040517f64a0ae920000000000000000000000000000000000000000000000000000000081526004016120aa9190612ac0565b60405180910390fd5b805181602001fd5b63150b7a0260e01b7bffffffffffffffffffffffffffffffffffffffffffffffffffffffff1916817bffffffffffffffffffffffffffffffffffffffffffffffffffffffff19161461214457836040517f64a0ae9200000000000000000000000000000000000000000000000000000000815260040161213b9190612ac0565b60405180910390fd5b505b50505050565b612166828260405180602001604052806000815250612515565b5050565b606060405180602001604052806000815250905090565b60606000600161219084612531565b01905060008167ffffffffffffffff8111156121af576121ae612d01565b5b6040519080825280601f01601f1916602001820160405280156121e15781602001600182028036833780820191505090505b509050600082602001820190505b600115612244578080600190039150507f3031323334353637383961626364656600000000000000000000000000000000600a86061a8153600a85816122385761223761381f565b5b049450600085036121ef575b819350505050919050565b60006002600083815260200190815260200160002060009054906101000a900473ffffffffffffffffffffffffffffffffffffffff169050919050565b80806122c55750600073ffffffffffffffffffffffffffffffffffffffff168273ffffffffffffffffffffffffffffffffffffffff1614155b156123f95760006122d584611761565b9050600073ffffffffffffffffffffffffffffffffffffffff168373ffffffffffffffffffffffffffffffffffffffff161415801561234057508273ffffffffffffffffffffffffffffffffffffffff168173ffffffffffffffffffffffffffffffffffffffff1614155b8015612353575061235181846115a4565b155b1561239557826040517fa9fbf51f00000000000000000000000000000000000000000000000000000000815260040161238c9190612ac0565b60405180910390fd5b81156123f757838573ffffffffffffffffffffffffffffffffffffffff168273ffffffffffffffffffffffffffffffffffffffff167f8c5be1e5ebec7d5bd14f71427d1e84f3dd0314c0f7b2291e5b200ac8c7c3b92560405160405180910390a45b505b836004600085815260200190815260200160002060006101000a81548173ffffffffffffffffffffffffffffffffffffffff021916908373ffffffffffffffffffffffffffffffffffffffff16021790555050505050565b61245c838383612684565b61251057600073ffffffffffffffffffffffffffffffffffffffff168373ffffffffffffffffffffffffffffffffffffffff16036124d157806040517f7e2732890000000000000000000000000000000000000000000000000000000081526004016124c89190612bdd565b60405180910390fd5b81816040517f177e802f000000000000000000000000000000000000000000000000000000008152600401612507929190613b28565b60405180910390fd5b505050565b61251f8383612745565b61252c6000848484611f95565b505050565b600080600090507a184f03e93ff9f4daa797ed6e38ed64bf6a1f010000000000000000831061258f577a184f03e93ff9f4daa797ed6e38ed64bf6a1f01000000000000000083816125855761258461381f565b5b0492506040810190505b6d04ee2d6d415b85acef810000000083106125cc576d04ee2d6d415b85acef810000000083816125c2576125c161381f565b5b0492506020810190505b662386f26fc1000083106125fb57662386f26fc1000083816125f1576125f061381f565b5b0492506010810190505b6305f5e1008310612624576305f5e100838161261a5761261961381f565b5b0492506008810190505b612710831061264957612710838161263f5761263e61381f565b5b0492506004810190505b6064831061266c57606483816126625761266161381f565b5b0492506002810190505b600a831061267b576001810190505b80915050919050565b60008073ffffffffffffffffffffffffffffffffffffffff168373ffffffffffffffffffffffffffffffffffffffff161415801561273c57508273ffffffffffffffffffffffffffffffffffffffff168473ffffffffffffffffffffffffffffffffffffffff1614806126fd57506126fc84846115a4565b5b8061273b57508273ffffffffffffffffffffffffffffffffffffffff16612723836117e9565b73ffffffffffffffffffffffffffffffffffffffff16145b5b90509392505050565b600073ffffffffffffffffffffffffffffffffffffffff168273ffffffffffffffffffffffffffffffffffffffff16036127b75760006040517f64a0ae920000000000000000000000000000000000000000000000000000000081526004016127ae9190612ac0565b60405180910390fd5b60006127c583836000611840565b9050600073ffffffffffffffffffffffffffffffffffffffff168173ffffffffffffffffffffffffffffffffffffffff16146128395760006040517f73c6ac6e0000000000000000000000000000000000000000000000000000000081526004016128309190612ac0565b60405180910390fd5b505050565b50805461284a90613064565b6000825580601f1061285c575061287b565b601f01602090049060005260206000209081019061287a919061287e565b5b50565b5b8082111561289757600081600090555060010161287f565b5090565b6000604051905090565b600080fd5b600080fd5b60007fffffffff0000000000000000000000000000000000000000000000000000000082169050919050565b6128e4816128af565b81146128ef57600080fd5b50565b600081359050612901816128db565b92915050565b60006020828403121561291d5761291c6128a5565b5b600061292b848285016128f2565b91505092915050565b60008115159050919050565b61294981612934565b82525050565b60006020820190506129646000830184612940565b92915050565b600081519050919050565b600082825260208201905092915050565b60005b838110156129a4578082015181840152602081019050612989565b60008484015250505050565b6000601f19601f8301169050919050565b60006129cc8261296a565b6129d68185612975565b93506129e6818560208601612986565b6129ef816129b0565b840191505092915050565b60006020820190508181036000830152612a1481846129c1565b905092915050565b6000819050919050565b612a2f81612a1c565b8114612a3a57600080fd5b50565b600081359050612a4c81612a26565b92915050565b600060208284031215612a6857612a676128a5565b5b6000612a7684828501612a3d565b91505092915050565b600073ffffffffffffffffffffffffffffffffffffffff82169050919050565b6000612aaa82612a7f565b9050919050565b612aba81612a9f565b82525050565b6000602082019050612ad56000830184612ab1565b92915050565b612ae481612a9f565b8114612aef57600080fd5b50565b600081359050612b0181612adb565b92915050565b60008060408385031215612b1e57612b1d6128a5565b5b6000612b2c85828601612af2565b9250506020612b3d85828601612a3d565b9150509250929050565b600060208284031215612b5d57612b5c6128a5565b5b6000612b6b84828501612af2565b91505092915050565b612b7d81612a1c565b82525050565b600060a0820190508181036000830152612b9d81886129c1565b9050612bac6020830187612b74565b612bb96040830186612b74565b612bc66060830185612ab1565b612bd36080830184612b74565b9695505050505050565b6000602082019050612bf26000830184612b74565b92915050565b600080600060608486031215612c1157612c106128a5565b5b6000612c1f86828701612af2565b9350506020612c3086828701612af2565b9250506040612c4186828701612a3d565b9150509250925092565b60008060408385031215612c6257612c616128a5565b5b6000612c7085828601612a3d565b9250506020612c8185828601612a3d565b9150509250929050565b612c9481612934565b8114612c9f57600080fd5b50565b600081359050612cb181612c8b565b92915050565b60008060408385031215612cce57612ccd6128a5565b5b6000612cdc85828601612af2565b9250506020612ced85828601612ca2565b9150509250929050565b600080fd5b600080fd5b7f4e487b7100000000000000000000000000000000000000000000000000000000600052604160045260246000fd5b612d39826129b0565b810181811067ffffffffffffffff82111715612d5857612d57612d01565b5b80604052505050565b6000612d6b61289b565b9050612d778282612d30565b919050565b600067ffffffffffffffff821115612d9757612d96612d01565b5b612da0826129b0565b9050602081019050919050565b82818337600083830152505050565b6000612dcf612dca84612d7c565b612d61565b905082815260208101848484011115612deb57612dea612cfc565b5b612df6848285612dad565b509392505050565b600082601f830112612e1357612e12612cf7565b5b8135612e23848260208601612dbc565b91505092915050565b60008060008060808587031215612e4657612e456128a5565b5b6000612e5487828801612af2565b9450506020612e6587828801612af2565b9350506040612e7687828801612a3d565b925050606085013567ffffffffffffffff811115612e9757612e966128aa565b5b612ea387828801612dfe565b91505092959194509250565b60008060408385031215612ec657612ec56128a5565b5b6000612ed485828601612af2565b9250506020612ee585828601612af2565b9150509250929050565b600067ffffffffffffffff821115612f0a57612f09612d01565b5b612f13826129b0565b9050602081019050919050565b6000612f33612f2e84612eef565b612d61565b905082815260208101848484011115612f4f57612f4e612cfc565b5b612f5a848285612dad565b509392505050565b600082601f830112612f7757612f76612cf7565b5b8135612f87848260208601612f20565b91505092915050565b600060208284031215612fa657612fa56128a5565b5b600082013567ffffffffffffffff811115612fc457612fc36128aa565b5b612fd084828501612f62565b91505092915050565b60008060408385031215612ff057612fef6128a5565b5b6000612ffe85828601612af2565b925050602083013567ffffffffffffffff81111561301f5761301e6128aa565b5b61302b85828601612f62565b9150509250929050565b7f4e487b7100000000000000000000000000000000000000000000000000000000600052602260045260246000fd5b6000600282049050600182168061307c57607f821691505b60208210810361308f5761308e613035565b5b50919050565b7f4e487b7100000000000000000000000000000000000000000000000000000000600052601160045260246000fd5b60006130cf82612a1c565b91507fffffffffffffffffffffffffffffffffffffffffffffffffffffffffffffffff820361310157613100613095565b5b600182019050919050565b600061311782612a1c565b91506000820361312a57613129613095565b5b600182039050919050565b600060608201905061314a6000830186612ab1565b6131576020830185612b74565b6131646040830184612ab1565b949350505050565b600081905092915050565b7f4e616d653a200000000000000000000000000000000000000000000000000000600082015250565b60006131ad60068361316c565b91506131b882613177565b600682019050919050565b60008190508160005260206000209050919050565b600081546131e581613064565b6131ef818661316c565b9450600182166000811461320a576001811461321f57613252565b60ff1983168652811515820286019350613252565b613228856131c3565b60005b8381101561324a5781548189015260018201915060208101905061322b565b838801955050505b50505092915050565b7f0a4d6f6f643a2000000000000000000000000000000000000000000000000000600082015250565b600061329160078361316c565b915061329c8261325b565b600782019050919050565b60006132b28261296a565b6132bc818561316c565b93506132cc818560208601612986565b80840191505092915050565b7f0a456e657267793a200000000000000000000000000000000000000000000000600082015250565b600061330e60098361316c565b9150613319826132d8565b600982019050919050565b600061332f826131a0565b915061333b82866131d8565b915061334682613284565b915061335282856132a7565b915061335d82613301565b915061336982846132a7565b9150819050949350505050565b7f426f696c6572476f7463686920646f6573206e6f742065786973742e00000000600082015250565b60006133ac601c83612975565b91506133b782613376565b602082019050919050565b600060208201905081810360008301526133db8161339f565b9050919050565b7f43616c6c6572206973206e6f7420746865206f776e65722e0000000000000000600082015250565b6000613418601883612975565b9150613423826133e2565b602082019050919050565b600060208201905081810360008301526134478161340b565b9050919050565b7f596f7520646f206e6f74206f776e206120426f696c6572476f74636869000000600082015250565b6000613484601d83612975565b915061348f8261344e565b602082019050919050565b600060208201905081810360008301526134b381613477565b9050919050565b7f4e616d652073686f756c64206e6f7420626520656d7074790000000000000000600082015250565b60006134f0601883612975565b91506134fb826134ba565b602082019050919050565b6000602082019050818103600083015261351f816134e3565b9050919050565b7f596f7520616c72656164792068617665206120676f7463686900000000000000600082015250565b600061355c601983612975565b915061356782613526565b602082019050919050565b6000602082019050818103600083015261358b8161354f565b9050919050565b60006020601f8301049050919050565b600082821b905092915050565b6000600883026135df7fffffffffffffffffffffffffffffffffffffffffffffffffffffffffffffffff826135a2565b6135e986836135a2565b95508019841693508086168417925050509392505050565b6000819050919050565b600061362661362161361c84612a1c565b613601565b612a1c565b9050919050565b6000819050919050565b6136408361360b565b61365461364c8261362d565b8484546135af565b825550505050565b600090565b61366961365c565b613674818484613637565b505050565b5b818110156136985761368d600082613661565b60018101905061367a565b5050565b601f8211156136dd576136ae816131c3565b6136b784613592565b810160208510156136c6578190505b6136da6136d285613592565b830182613679565b50505b505050565b600082821c905092915050565b6000613700600019846008026136e2565b1980831691505092915050565b600061371983836136ef565b9150826002028217905092915050565b6137328261296a565b67ffffffffffffffff81111561374b5761374a612d01565b5b6137558254613064565b61376082828561369c565b600060209050601f8311600181146137935760008415613781578287015190505b61378b858261370d565b8655506137f3565b601f1984166137a1866131c3565b60005b828110156137c9578489015182556001820191506020850194506020810190506137a4565b868310156137e657848901516137e2601f8916826136ef565b8355505b6001600288020188555050505b505050505050565b600061380782856132a7565b915061381382846132a7565b91508190509392505050565b7f4e487b7100000000000000000000000000000000000000000000000000000000600052601260045260246000fd5b600061385982612a1c565b915061386483612a1c565b9250826138745761387361381f565b5b828204905092915050565b600061388a82612a1c565b915061389583612a1c565b92508282039050818111156138ad576138ac613095565b5b92915050565b60006138be82612a1c565b91506138c983612a1c565b9250826138d9576138d861381f565b5b828206905092915050565b60006138ef82612a1c565b91506138fa83612a1c565b925082820190508082111561391257613911613095565b5b92915050565b7f4e487b7100000000000000000000000000000000000000000000000000000000600052603260045260246000fd5b7f4f776e657220646f6573206e6f742068617665206120426f696c6572476f746360008201527f6869000000000000000000000000000000000000000000000000000000000000602082015250565b60006139a3602283612975565b91506139ae82613947565b604082019050919050565b600060208201905081810360008301526139d281613996565b9050919050565b7f546f6b656e204944206e6f7420666f756e640000000000000000000000000000600082015250565b6000613a0f601283612975565b9150613a1a826139d9565b602082019050919050565b60006020820190508181036000830152613a3e81613a02565b9050919050565b600081519050919050565b600082825260208201905092915050565b6000613a6c82613a45565b613a768185613a50565b9350613a86818560208601612986565b613a8f816129b0565b840191505092915050565b6000608082019050613aaf6000830187612ab1565b613abc6020830186612ab1565b613ac96040830185612b74565b8181036060830152613adb8184613a61565b905095945050505050565b600081519050613af5816128db565b92915050565b600060208284031215613b1157613b106128a5565b5b6000613b1f84828501613ae6565b91505092915050565b6000604082019050613b3d6000830185612ab1565b613b4a6020830184612b74565b939250505056fea2646970667358221220121acd3ef6f9bca5ff0333df58c365e316821650364797c319f915a682e1ebb564736f6c63430008140033",
  "linkReferences": {},
  "deployedLinkReferences": {}
}