{
  "_format": "hh-sol-artifact-1",
  "contractName": "boilerGotchi",
  "sourceName": "Contracts/initalize.sol",
  "abi": [
    {
      "inputs": [],
      "stateMutability": "nonpayable",
      "type": "constructor"
    },
    {
      "inputs": [
        {
          "internalType": "address",
          "name": "sender",
          "type": "address"
        },
        {
          "internalType": "uint256",
          "name": "tokenId",
          "type": "uint256"
        },
        {
          "internalType": "address",
          "name": "owner",
          "type": "address"
        }
      ],
      "name": "ERC721IncorrectOwner",
      "type": "error"
    },
    {
      "inputs": [
        {
          "internalType": "address",
          "name": "operator",
          "type": "address"
        },
        {
          "internalType": "uint256",
          "name": "tokenId",
          "type": "uint256"
        }
      ],
      "name": "ERC721InsufficientApproval",
      "type": "error"
    },
    {
      "inputs": [
        {
          "internalType": "address",
          "name": "approver",
          "type": "address"
        }
      ],
      "name": "ERC721InvalidApprover",
      "type": "error"
    },
    {
      "inputs": [
        {
          "internalType": "address",
          "name": "operator",
          "type": "address"
        }
      ],
      "name": "ERC721InvalidOperator",
      "type": "error"
    },
    {
      "inputs": [
        {
          "internalType": "address",
          "name": "owner",
          "type": "address"
        }
      ],
      "name": "ERC721InvalidOwner",
      "type": "error"
    },
    {
      "inputs": [
        {
          "internalType": "address",
          "name": "receiver",
          "type": "address"
        }
      ],
      "name": "ERC721InvalidReceiver",
      "type": "error"
    },
    {
      "inputs": [
        {
          "internalType": "address",
          "name": "sender",
          "type": "address"
        }
      ],
      "name": "ERC721InvalidSender",
      "type": "error"
    },
    {
      "inputs": [
        {
          "internalType": "uint256",
          "name": "tokenId",
          "type": "uint256"
        }
      ],
      "name": "ERC721NonexistentToken",
      "type": "error"
    },
    {
      "anonymous": false,
      "inputs": [
        {
          "indexed": true,
          "internalType": "address",
          "name": "owner",
          "type": "address"
        },
        {
          "indexed": true,
          "internalType": "address",
          "name": "approved",
          "type": "address"
        },
        {
          "indexed": true,
          "internalType": "uint256",
          "name": "tokenId",
          "type": "uint256"
        }
      ],
      "name": "Approval",
      "type": "event"
    },
    {
      "anonymous": false,
      "inputs": [
        {
          "indexed": true,
          "internalType": "address",
          "name": "owner",
          "type": "address"
        },
        {
          "indexed": true,
          "internalType": "address",
          "name": "operator",
          "type": "address"
        },
        {
          "indexed": false,
          "internalType": "bool",
          "name": "approved",
          "type": "bool"
        }
      ],
      "name": "ApprovalForAll",
      "type": "event"
    },
    {
      "anonymous": false,
      "inputs": [
        {
          "indexed": true,
          "internalType": "address",
          "name": "from",
          "type": "address"
        },
        {
          "indexed": true,
          "internalType": "address",
          "name": "to",
          "type": "address"
        },
        {
          "indexed": true,
          "internalType": "uint256",
          "name": "tokenId",
          "type": "uint256"
        }
      ],
      "name": "Transfer",
      "type": "event"
    },
    {
      "inputs": [
        {
          "internalType": "address",
          "name": "to",
          "type": "address"
        },
        {
          "internalType": "uint256",
          "name": "tokenId",
          "type": "uint256"
        }
      ],
      "name": "approve",
      "outputs": [],
      "stateMutability": "nonpayable",
      "type": "function"
    },
    {
      "inputs": [
        {
          "internalType": "address",
          "name": "owner",
          "type": "address"
        }
      ],
      "name": "balanceOf",
      "outputs": [
        {
          "internalType": "uint256",
          "name": "",
          "type": "uint256"
        }
      ],
      "stateMutability": "view",
      "type": "function"
    },
    {
      "inputs": [],
      "name": "checkStatus",
      "outputs": [
        {
          "internalType": "string",
          "name": "",
          "type": "string"
        }
      ],
      "stateMutability": "view",
      "type": "function"
    },
    {
      "inputs": [
        {
          "internalType": "string",
          "name": "name",
          "type": "string"
        }
      ],
      "name": "createGotchi",
      "outputs": [],
      "stateMutability": "nonpayable",
      "type": "function"
    },
    {
      "inputs": [],
      "name": "deleteGotchi",
      "outputs": [],
      "stateMutability": "nonpayable",
      "type": "function"
    },
    {
      "inputs": [],
      "name": "feedBoilerGotchi",
      "outputs": [],
      "stateMutability": "nonpayable",
      "type": "function"
    },
    {
      "inputs": [
        {
          "internalType": "uint256",
          "name": "tokenId",
          "type": "uint256"
        }
      ],
      "name": "getApproved",
      "outputs": [
        {
          "internalType": "address",
          "name": "",
          "type": "address"
        }
      ],
      "stateMutability": "view",
      "type": "function"
    },
    {
      "inputs": [
        {
          "internalType": "uint256",
          "name": "id",
          "type": "uint256"
        }
      ],
      "name": "getBoilergotchiEnergyPoints",
      "outputs": [
        {
          "internalType": "uint256",
          "name": "",
          "type": "uint256"
        }
      ],
      "stateMutability": "view",
      "type": "function"
    },
    {
      "inputs": [
        {
          "internalType": "address",
          "name": "user_addr",
          "type": "address"
        }
      ],
      "name": "getBoilergotchiName",
      "outputs": [
        {
          "internalType": "string",
          "name": "",
          "type": "string"
        }
      ],
      "stateMutability": "view",
      "type": "function"
    },
    {
      "inputs": [],
      "name": "getMood",
      "outputs": [
        {
          "internalType": "string",
          "name": "",
          "type": "string"
        }
      ],
      "stateMutability": "view",
      "type": "function"
    },
    {
      "inputs": [
        {
          "internalType": "address",
          "name": "",
          "type": "address"
        }
      ],
      "name": "gotchis",
      "outputs": [
        {
          "internalType": "string",
          "name": "name",
          "type": "string"
        },
        {
          "internalType": "uint256",
          "name": "mood",
          "type": "uint256"
        },
        {
          "internalType": "uint256",
          "name": "energy",
          "type": "uint256"
        },
        {
          "internalType": "address",
          "name": "owner",
          "type": "address"
        },
        {
          "internalType": "uint256",
          "name": "lastPlayed",
          "type": "uint256"
        }
      ],
      "stateMutability": "view",
      "type": "function"
    },
    {
      "inputs": [
        {
          "internalType": "address",
          "name": "owner",
          "type": "address"
        },
        {
          "internalType": "address",
          "name": "operator",
          "type": "address"
        }
      ],
      "name": "isApprovedForAll",
      "outputs": [
        {
          "internalType": "bool",
          "name": "",
          "type": "bool"
        }
      ],
      "stateMutability": "view",
      "type": "function"
    },
    {
      "inputs": [],
      "name": "name",
      "outputs": [
        {
          "internalType": "string",
          "name": "",
          "type": "string"
        }
      ],
      "stateMutability": "view",
      "type": "function"
    },
    {
      "inputs": [],
      "name": "nextID",
      "outputs": [
        {
          "internalType": "uint256",
          "name": "",
          "type": "uint256"
        }
      ],
      "stateMutability": "view",
      "type": "function"
    },
    {
      "inputs": [
        {
          "internalType": "uint256",
          "name": "tokenId",
          "type": "uint256"
        }
      ],
      "name": "ownerOf",
      "outputs": [
        {
          "internalType": "address",
          "name": "",
          "type": "address"
        }
      ],
      "stateMutability": "view",
      "type": "function"
    },
    {
      "inputs": [],
      "name": "playBoilerGotchi",
      "outputs": [],
      "stateMutability": "nonpayable",
      "type": "function"
    },
    {
      "inputs": [
        {
          "internalType": "address",
          "name": "from",
          "type": "address"
        },
        {
          "internalType": "address",
          "name": "to",
          "type": "address"
        },
        {
          "internalType": "uint256",
          "name": "tokenId",
          "type": "uint256"
        }
      ],
      "name": "safeTransferFrom",
      "outputs": [],
      "stateMutability": "nonpayable",
      "type": "function"
    },
    {
      "inputs": [
        {
          "internalType": "address",
          "name": "from",
          "type": "address"
        },
        {
          "internalType": "address",
          "name": "to",
          "type": "address"
        },
        {
          "internalType": "uint256",
          "name": "tokenId",
          "type": "uint256"
        },
        {
          "internalType": "bytes",
          "name": "data",
          "type": "bytes"
        }
      ],
      "name": "safeTransferFrom",
      "outputs": [],
      "stateMutability": "nonpayable",
      "type": "function"
    },
    {
      "inputs": [
        {
          "internalType": "address",
          "name": "operator",
          "type": "address"
        },
        {
          "internalType": "bool",
          "name": "approved",
          "type": "bool"
        }
      ],
      "name": "setApprovalForAll",
      "outputs": [],
      "stateMutability": "nonpayable",
      "type": "function"
    },
    {
      "inputs": [
        {
          "internalType": "uint256",
          "name": "id",
          "type": "uint256"
        },
        {
          "internalType": "uint256",
          "name": "energy",
          "type": "uint256"
        }
      ],
      "name": "setBoilergotchiEnergyPoints",
      "outputs": [],
      "stateMutability": "nonpayable",
      "type": "function"
    },
    {
      "inputs": [
        {
          "internalType": "address",
          "name": "user_addr",
          "type": "address"
        },
        {
          "internalType": "string",
          "name": "name",
          "type": "string"
        }
      ],
      "name": "setBoilergotchiName",
      "outputs": [],
      "stateMutability": "nonpayable",
      "type": "function"
    },
    {
      "inputs": [
        {
          "internalType": "bytes4",
          "name": "interfaceId",
          "type": "bytes4"
        }
      ],
      "name": "supportsInterface",
      "outputs": [
        {
          "internalType": "bool",
          "name": "",
          "type": "bool"
        }
      ],
      "stateMutability": "view",
      "type": "function"
    },
    {
      "inputs": [],
      "name": "symbol",
      "outputs": [
        {
          "internalType": "string",
          "name": "",
          "type": "string"
        }
      ],
      "stateMutability": "view",
      "type": "function"
    },
    {
      "inputs": [
        {
          "internalType": "uint256",
          "name": "tokenId",
          "type": "uint256"
        }
      ],
      "name": "tokenURI",
      "outputs": [
        {
          "internalType": "string",
          "name": "",
          "type": "string"
        }
      ],
      "stateMutability": "view",
      "type": "function"
    },
    {
      "inputs": [
        {
          "internalType": "address",
          "name": "from",
          "type": "address"
        },
        {
          "internalType": "address",
          "name": "to",
          "type": "address"
        },
        {
          "internalType": "uint256",
          "name": "tokenId",
          "type": "uint256"
        }
      ],
      "name": "transferFrom",
      "outputs": [],
      "stateMutability": "nonpayable",
      "type": "function"
    }
  ],
  "bytecode": "0x60806040523480156200001157600080fd5b506040518060400160405280600c81526020017f426f696c6572476f7463686900000000000000000000000000000000000000008152506040518060400160405280600281526020017f424700000000000000000000000000000000000000000000000000000000000081525081600090816200008f919062000324565b508060019081620000a1919062000324565b5050506200040b565b600081519050919050565b7f4e487b7100000000000000000000000000000000000000000000000000000000600052604160045260246000fd5b7f4e487b7100000000000000000000000000000000000000000000000000000000600052602260045260246000fd5b600060028204905060018216806200012c57607f821691505b602082108103620001425762000141620000e4565b5b50919050565b60008190508160005260206000209050919050565b60006020601f8301049050919050565b600082821b905092915050565b600060088302620001ac7fffffffffffffffffffffffffffffffffffffffffffffffffffffffffffffffff826200016d565b620001b886836200016d565b95508019841693508086168417925050509392505050565b6000819050919050565b6000819050919050565b600062000205620001ff620001f984620001d0565b620001da565b620001d0565b9050919050565b6000819050919050565b6200022183620001e4565b6200023962000230826200020c565b8484546200017a565b825550505050565b600090565b6200025062000241565b6200025d81848462000216565b505050565b5b8181101562000285576200027960008262000246565b60018101905062000263565b5050565b601f821115620002d4576200029e8162000148565b620002a9846200015d565b81016020851015620002b9578190505b620002d1620002c8856200015d565b83018262000262565b50505b505050565b600082821c905092915050565b6000620002f960001984600802620002d9565b1980831691505092915050565b6000620003148383620002e6565b9150826002028217905092915050565b6200032f82620000aa565b67ffffffffffffffff8111156200034b576200034a620000b5565b5b62000357825462000113565b6200036482828562000289565b600060209050601f8311600181146200039c576000841562000387578287015190505b62000393858262000306565b86555062000403565b601f198416620003ac8662000148565b60005b82811015620003d657848901518255600182019150602085019450602081019050620003af565b86831015620003f65784890151620003f2601f891682620002e6565b8355505b6001600288020188555050505b505050505050565b613b48806200041b6000396000f3fe608060405234801561001057600080fd5b50600436106101735760003560e01c806370a08231116100de578063ab6720e511610097578063c87b56dd11610071578063c87b56dd14610414578063e985e9c514610444578063eb8acadc14610474578063fb09ed541461049057610173565b8063ab6720e5146103d2578063b88d4fde146103dc578063bd11ccd9146103f857610173565b806370a08231146102fe57806383ec35951461032e57806391deac611461035e57806395d89b411461037a5780639d0c139714610398578063a22cb465146103b657610173565b80631e96917d116101305780631e96917d1461025057806323b872dd1461026e5780633b7104f21461028a57806342842e0e146102a85780634ce89ce4146102c45780636352211e146102ce57610173565b806301ffc9a71461017857806306fdde03146101a85780630759b783146101c6578063081812fc146101d0578063095ea7b3146102005780630fe9c9b21461021c575b600080fd5b610192600480360381019061018d91906128c8565b6104c0565b60405161019f9190612910565b60405180910390f35b6101b06105a2565b6040516101bd91906129bb565b60405180910390f35b6101ce610634565b005b6101ea60048036038101906101e59190612a13565b61077d565b6040516101f79190612a81565b60405180910390f35b61021a60048036038101906102159190612ac8565b610799565b005b61023660048036038101906102319190612b08565b6107af565b604051610247959493929190612b44565b60405180910390f35b61025861088d565b6040516102659190612b9e565b60405180910390f35b61028860048036038101906102839190612bb9565b610893565b005b610292610995565b60405161029f91906129bb565b60405180910390f35b6102c260048036038101906102bd9190612bb9565b610a20565b005b6102cc610a40565b005b6102e860048036038101906102e39190612a13565b610b89565b6040516102f59190612a81565b60405180910390f35b61031860048036038101906103139190612b08565b610b9b565b6040516103259190612b9e565b60405180910390f35b61034860048036038101906103439190612b08565b610c55565b60405161035591906129bb565b60405180910390f35b61037860048036038101906103739190612c0c565b610df7565b005b610382610ebe565b60405161038f91906129bb565b60405180910390f35b6103a0610f50565b6040516103ad91906129bb565b60405180910390f35b6103d060048036038101906103cb9190612c78565b6110c3565b005b6103da6110d9565b005b6103f660048036038101906103f19190612ded565b611253565b005b610412600480360381019061040d9190612f11565b611270565b005b61042e60048036038101906104299190612a13565b6114aa565b60405161043b91906129bb565b60405180910390f35b61045e60048036038101906104599190612f5a565b611513565b60405161046b9190612910565b60405180910390f35b61048e60048036038101906104899190612f9a565b6115a7565b005b6104aa60048036038101906104a59190612a13565b611666565b6040516104b79190612b9e565b60405180910390f35b60007f80ac58cd000000000000000000000000000000000000000000000000000000007bffffffffffffffffffffffffffffffffffffffffffffffffffffffff1916827bffffffffffffffffffffffffffffffffffffffffffffffffffffffff1916148061058b57507f5b5e139f000000000000000000000000000000000000000000000000000000007bffffffffffffffffffffffffffffffffffffffffffffffffffffffff1916827bffffffffffffffffffffffffffffffffffffffffffffffffffffffff1916145b8061059b575061059a826116b7565b5b9050919050565b6060600080546105b190613025565b80601f01602080910402602001604051908101604052809291908181526020018280546105dd90613025565b801561062a5780601f106105ff5761010080835404028352916020019161062a565b820191906000526020600020905b81548152906001019060200180831161060d57829003601f168201915b5050505050905090565b61016d600660003373ffffffffffffffffffffffffffffffffffffffff1673ffffffffffffffffffffffffffffffffffffffff16815260200190815260200160002060010154146106d857600660003373ffffffffffffffffffffffffffffffffffffffff1673ffffffffffffffffffffffffffffffffffffffff16815260200190815260200160002060010160008154809291906106d290613085565b91905055505b6000600660003373ffffffffffffffffffffffffffffffffffffffff1673ffffffffffffffffffffffffffffffffffffffff168152602001908152602001600020600201541461077b57600660003373ffffffffffffffffffffffffffffffffffffffff1673ffffffffffffffffffffffffffffffffffffffff1681526020019081526020016000206002016000815480929190610775906130cd565b91905055505b565b600061078882611721565b50610792826117a9565b9050919050565b6107ab82826107a66117e6565b6117ee565b5050565b60066020528060005260406000206000915090508060000180546107d290613025565b80601f01602080910402602001604051908101604052809291908181526020018280546107fe90613025565b801561084b5780601f106108205761010080835404028352916020019161084b565b820191906000526020600020905b81548152906001019060200180831161082e57829003601f168201915b5050505050908060010154908060020154908060030160009054906101000a900473ffffffffffffffffffffffffffffffffffffffff16908060040154905085565b60085481565b600073ffffffffffffffffffffffffffffffffffffffff168273ffffffffffffffffffffffffffffffffffffffff16036109055760006040517f64a0ae920000000000000000000000000000000000000000000000000000000081526004016108fc9190612a81565b60405180910390fd5b600061091983836109146117e6565b611800565b90508373ffffffffffffffffffffffffffffffffffffffff168173ffffffffffffffffffffffffffffffffffffffff161461098f578382826040517f64283d7b000000000000000000000000000000000000000000000000000000008152600401610986939291906130f6565b60405180910390fd5b50505050565b60606000600660003373ffffffffffffffffffffffffffffffffffffffff1673ffffffffffffffffffffffffffffffffffffffff168152602001908152602001600020905060006109e4610f50565b905081600001816109f88460020154611a1a565b604051602001610a0a939291906132e5565b6040516020818303038152906040529250505090565b610a3b83838360405180602001604052806000815250611253565b505050565b6064600660003373ffffffffffffffffffffffffffffffffffffffff1673ffffffffffffffffffffffffffffffffffffffff1681526020019081526020016000206002015414610ae357600660003373ffffffffffffffffffffffffffffffffffffffff1673ffffffffffffffffffffffffffffffffffffffff1681526020019081526020016000206002016000815480929190610add90613085565b91905055505b61016d600660003373ffffffffffffffffffffffffffffffffffffffff1673ffffffffffffffffffffffffffffffffffffffff1681526020019081526020016000206001015414610b8757600660003373ffffffffffffffffffffffffffffffffffffffff1673ffffffffffffffffffffffffffffffffffffffff1681526020019081526020016000206001016000815480929190610b8190613085565b91905055505b565b6000610b9482611721565b9050919050565b60008073ffffffffffffffffffffffffffffffffffffffff168273ffffffffffffffffffffffffffffffffffffffff1603610c0e5760006040517f89c62b64000000000000000000000000000000000000000000000000000000008152600401610c059190612a81565b60405180910390fd5b600360008373ffffffffffffffffffffffffffffffffffffffff1673ffffffffffffffffffffffffffffffffffffffff168152602001908152602001600020549050919050565b6060600073ffffffffffffffffffffffffffffffffffffffff16600660008473ffffffffffffffffffffffffffffffffffffffff1673ffffffffffffffffffffffffffffffffffffffff16815260200190815260200160002060030160009054906101000a900473ffffffffffffffffffffffffffffffffffffffff1673ffffffffffffffffffffffffffffffffffffffff1603610d28576040517f08c379a0000000000000000000000000000000000000000000000000000000008152600401610d1f90613383565b60405180910390fd5b600760008373ffffffffffffffffffffffffffffffffffffffff1673ffffffffffffffffffffffffffffffffffffffff1681526020019081526020016000208054610d7290613025565b80601f0160208091040260200160405190810160405280929190818152602001828054610d9e90613025565b8015610deb5780601f10610dc057610100808354040283529160200191610deb565b820191906000526020600020905b815481529060010190602001808311610dce57829003601f168201915b50505050509050919050565b610e0082610b89565b73ffffffffffffffffffffffffffffffffffffffff163373ffffffffffffffffffffffffffffffffffffffff1614610e6d576040517f08c379a0000000000000000000000000000000000000000000000000000000008152600401610e64906133ef565b60405180910390fd5b6000600660003373ffffffffffffffffffffffffffffffffffffffff1673ffffffffffffffffffffffffffffffffffffffff1681526020019081526020016000209050818160020181905550505050565b606060018054610ecd90613025565b80601f0160208091040260200160405190810160405280929190818152602001828054610ef990613025565b8015610f465780601f10610f1b57610100808354040283529160200191610f46565b820191906000526020600020905b815481529060010190602001808311610f2957829003601f168201915b5050505050905090565b60606000600660003373ffffffffffffffffffffffffffffffffffffffff1673ffffffffffffffffffffffffffffffffffffffff1681526020019081526020016000209050610f9d611b7a565b15610fe0576040518060400160405280600881526020017f537569636964616c0000000000000000000000000000000000000000000000008152509150506110c0565b60c881600101541061102a576040518060400160405280600581526020017f48617070790000000000000000000000000000000000000000000000000000008152509150506110c0565b6064816001015410611074576040518060400160405280600581526020017f4368696c6c0000000000000000000000000000000000000000000000000000008152509150506110c0565b60018160010154106110be576040518060400160405280600381526020017f53616400000000000000000000000000000000000000000000000000000000008152509150506110c0565b505b90565b6110d56110ce6117e6565b8383611bda565b5050565b3373ffffffffffffffffffffffffffffffffffffffff16600660003373ffffffffffffffffffffffffffffffffffffffff1673ffffffffffffffffffffffffffffffffffffffff16815260200190815260200160002060030160009054906101000a900473ffffffffffffffffffffffffffffffffffffffff1673ffffffffffffffffffffffffffffffffffffffff16146111a9576040517f08c379a00000000000000000000000000000000000000000000000000000000081526004016111a09061345b565b60405180910390fd5b60006111b433611d49565b90506111bf81611ed0565b600660003373ffffffffffffffffffffffffffffffffffffffff1673ffffffffffffffffffffffffffffffffffffffff1681526020019081526020016000206000808201600061120f91906127ff565b600182016000905560028201600090556003820160006101000a81549073ffffffffffffffffffffffffffffffffffffffff02191690556004820160009055505050565b61125e848484610893565b61126a84848484611f56565b50505050565b60008151116112b4576040517f08c379a00000000000000000000000000000000000000000000000000000000081526004016112ab906134c7565b60405180910390fd5b600073ffffffffffffffffffffffffffffffffffffffff16600660003373ffffffffffffffffffffffffffffffffffffffff1673ffffffffffffffffffffffffffffffffffffffff16815260200190815260200160002060030160009054906101000a900473ffffffffffffffffffffffffffffffffffffffff1673ffffffffffffffffffffffffffffffffffffffff1614611385576040517f08c379a000000000000000000000000000000000000000000000000000000000815260040161137c90613533565b60405180910390fd5b60006008600081548092919061139a90613085565b9190505590506113aa338261210d565b6040518060a0016040528083815260200160648152602001606481526020013373ffffffffffffffffffffffffffffffffffffffff16815260200142815250600660003373ffffffffffffffffffffffffffffffffffffffff1673ffffffffffffffffffffffffffffffffffffffff168152602001908152602001600020600082015181600001908161143d91906136ea565b50602082015181600101556040820151816002015560608201518160030160006101000a81548173ffffffffffffffffffffffffffffffffffffffff021916908373ffffffffffffffffffffffffffffffffffffffff160217905550608082015181600401559050505050565b60606114b582611721565b5060006114c061212b565b905060008151116114e0576040518060200160405280600081525061150b565b806114ea84612142565b6040516020016114fb9291906137bc565b6040516020818303038152906040525b915050919050565b6000600560008473ffffffffffffffffffffffffffffffffffffffff1673ffffffffffffffffffffffffffffffffffffffff16815260200190815260200160002060008373ffffffffffffffffffffffffffffffffffffffff1673ffffffffffffffffffffffffffffffffffffffff16815260200190815260200160002060009054906101000a900460ff16905092915050565b3373ffffffffffffffffffffffffffffffffffffffff168273ffffffffffffffffffffffffffffffffffffffff1614611615576040517f08c379a000000000000000000000000000000000000000000000000000000000815260040161160c906133ef565b60405180910390fd5b80600760008473ffffffffffffffffffffffffffffffffffffffff1673ffffffffffffffffffffffffffffffffffffffff168152602001908152602001600020908161166191906136ea565b505050565b600080600660003373ffffffffffffffffffffffffffffffffffffffff1673ffffffffffffffffffffffffffffffffffffffff16815260200190815260200160002090508060020154915050919050565b60007f01ffc9a7000000000000000000000000000000000000000000000000000000007bffffffffffffffffffffffffffffffffffffffffffffffffffffffff1916827bffffffffffffffffffffffffffffffffffffffffffffffffffffffff1916149050919050565b60008061172d83612210565b9050600073ffffffffffffffffffffffffffffffffffffffff168173ffffffffffffffffffffffffffffffffffffffff16036117a057826040517f7e2732890000000000000000000000000000000000000000000000000000000081526004016117979190612b9e565b60405180910390fd5b80915050919050565b60006004600083815260200190815260200160002060009054906101000a900473ffffffffffffffffffffffffffffffffffffffff169050919050565b600033905090565b6117fb838383600161224d565b505050565b60008061180c84612210565b9050600073ffffffffffffffffffffffffffffffffffffffff168373ffffffffffffffffffffffffffffffffffffffff161461184e5761184d818486612412565b5b600073ffffffffffffffffffffffffffffffffffffffff168173ffffffffffffffffffffffffffffffffffffffff16146118df5761189060008560008061224d565b6001600360008373ffffffffffffffffffffffffffffffffffffffff1673ffffffffffffffffffffffffffffffffffffffff168152602001908152602001600020600082825403925050819055505b600073ffffffffffffffffffffffffffffffffffffffff168573ffffffffffffffffffffffffffffffffffffffff1614611962576001600360008773ffffffffffffffffffffffffffffffffffffffff1673ffffffffffffffffffffffffffffffffffffffff168152602001908152602001600020600082825401925050819055505b846002600086815260200190815260200160002060006101000a81548173ffffffffffffffffffffffffffffffffffffffff021916908373ffffffffffffffffffffffffffffffffffffffff160217905550838573ffffffffffffffffffffffffffffffffffffffff168273ffffffffffffffffffffffffffffffffffffffff167fddf252ad1be2c89b69c2b068fc378daa952ba7f163c4a11628f55a4df523b3ef60405160405180910390a4809150509392505050565b606060008203611a61576040518060400160405280600181526020017f30000000000000000000000000000000000000000000000000000000000000008152509050611b75565b600082905060005b60008214611a93578080611a7c90613085565b915050600a82611a8c919061380f565b9150611a69565b60008167ffffffffffffffff811115611aaf57611aae612cc2565b5b6040519080825280601f01601f191660200182016040528015611ae15781602001600182028036833780820191505090505b5090505b60008514611b6e57600182611afa9190613840565b9150600a85611b099190613874565b6030611b1591906138a5565b60f81b818381518110611b2b57611b2a6138d9565b5b60200101907effffffffffffffffffffffffffffffffffffffffffffffffffffffffffffff1916908160001a905350600a85611b67919061380f565b9450611ae5565b8093505050505b919050565b600080600660003373ffffffffffffffffffffffffffffffffffffffff1673ffffffffffffffffffffffffffffffffffffffff16815260200190815260200160002090506301e13380816004015442611bd39190613840565b1191505090565b600073ffffffffffffffffffffffffffffffffffffffff168273ffffffffffffffffffffffffffffffffffffffff1603611c4b57816040517f5b08ba18000000000000000000000000000000000000000000000000000000008152600401611c429190612a81565b60405180910390fd5b80600560008573ffffffffffffffffffffffffffffffffffffffff1673ffffffffffffffffffffffffffffffffffffffff16815260200190815260200160002060008473ffffffffffffffffffffffffffffffffffffffff1673ffffffffffffffffffffffffffffffffffffffff16815260200190815260200160002060006101000a81548160ff0219169083151502179055508173ffffffffffffffffffffffffffffffffffffffff168373ffffffffffffffffffffffffffffffffffffffff167f17307eab39ab6107e8899845ad3d59bd9653f200f220920489ca2b5937696c3183604051611d3c9190612910565b60405180910390a3505050565b60008173ffffffffffffffffffffffffffffffffffffffff16600660008473ffffffffffffffffffffffffffffffffffffffff1673ffffffffffffffffffffffffffffffffffffffff16815260200190815260200160002060030160009054906101000a900473ffffffffffffffffffffffffffffffffffffffff1673ffffffffffffffffffffffffffffffffffffffff1614611e1b576040517f08c379a0000000000000000000000000000000000000000000000000000000008152600401611e129061397a565b60405180910390fd5b600080600090505b600854811015611e83578373ffffffffffffffffffffffffffffffffffffffff16611e4d82610b89565b73ffffffffffffffffffffffffffffffffffffffff1603611e7057809150611e83565b8080611e7b90613085565b915050611e23565b5060008103611ec7576040517f08c379a0000000000000000000000000000000000000000000000000000000008152600401611ebe906139e6565b60405180910390fd5b80915050919050565b6000611edf6000836000611800565b9050600073ffffffffffffffffffffffffffffffffffffffff168173ffffffffffffffffffffffffffffffffffffffff1603611f5257816040517f7e273289000000000000000000000000000000000000000000000000000000008152600401611f499190612b9e565b60405180910390fd5b5050565b60008373ffffffffffffffffffffffffffffffffffffffff163b1115612107578273ffffffffffffffffffffffffffffffffffffffff1663150b7a02611f9a6117e6565b8685856040518563ffffffff1660e01b8152600401611fbc9493929190613a5b565b6020604051808303816000875af1925050508015611ff857506040513d601f19601f82011682018060405250810190611ff59190613abc565b60015b61207c573d8060008114612028576040519150601f19603f3d011682016040523d82523d6000602084013e61202d565b606091505b50600081510361207457836040517f64a0ae9200000000000000000000000000000000000000000000000000000000815260040161206b9190612a81565b60405180910390fd5b805181602001fd5b63150b7a0260e01b7bffffffffffffffffffffffffffffffffffffffffffffffffffffffff1916817bffffffffffffffffffffffffffffffffffffffffffffffffffffffff19161461210557836040517f64a0ae920000000000000000000000000000000000000000000000000000000081526004016120fc9190612a81565b60405180910390fd5b505b50505050565b6121278282604051806020016040528060008152506124d6565b5050565b606060405180602001604052806000815250905090565b606060006001612151846124f2565b01905060008167ffffffffffffffff8111156121705761216f612cc2565b5b6040519080825280601f01601f1916602001820160405280156121a25781602001600182028036833780820191505090505b509050600082602001820190505b600115612205578080600190039150507f3031323334353637383961626364656600000000000000000000000000000000600a86061a8153600a85816121f9576121f86137e0565b5b049450600085036121b0575b819350505050919050565b60006002600083815260200190815260200160002060009054906101000a900473ffffffffffffffffffffffffffffffffffffffff169050919050565b80806122865750600073ffffffffffffffffffffffffffffffffffffffff168273ffffffffffffffffffffffffffffffffffffffff1614155b156123ba57600061229684611721565b9050600073ffffffffffffffffffffffffffffffffffffffff168373ffffffffffffffffffffffffffffffffffffffff161415801561230157508273ffffffffffffffffffffffffffffffffffffffff168173ffffffffffffffffffffffffffffffffffffffff1614155b801561231457506123128184611513565b155b1561235657826040517fa9fbf51f00000000000000000000000000000000000000000000000000000000815260040161234d9190612a81565b60405180910390fd5b81156123b857838573ffffffffffffffffffffffffffffffffffffffff168273ffffffffffffffffffffffffffffffffffffffff167f8c5be1e5ebec7d5bd14f71427d1e84f3dd0314c0f7b2291e5b200ac8c7c3b92560405160405180910390a45b505b836004600085815260200190815260200160002060006101000a81548173ffffffffffffffffffffffffffffffffffffffff021916908373ffffffffffffffffffffffffffffffffffffffff16021790555050505050565b61241d838383612645565b6124d157600073ffffffffffffffffffffffffffffffffffffffff168373ffffffffffffffffffffffffffffffffffffffff160361249257806040517f7e2732890000000000000000000000000000000000000000000000000000000081526004016124899190612b9e565b60405180910390fd5b81816040517f177e802f0000000000000000000000000000000000000000000000000000000081526004016124c8929190613ae9565b60405180910390fd5b505050565b6124e08383612706565b6124ed6000848484611f56565b505050565b600080600090507a184f03e93ff9f4daa797ed6e38ed64bf6a1f0100000000000000008310612550577a184f03e93ff9f4daa797ed6e38ed64bf6a1f0100000000000000008381612546576125456137e0565b5b0492506040810190505b6d04ee2d6d415b85acef8100000000831061258d576d04ee2d6d415b85acef81000000008381612583576125826137e0565b5b0492506020810190505b662386f26fc1000083106125bc57662386f26fc1000083816125b2576125b16137e0565b5b0492506010810190505b6305f5e10083106125e5576305f5e10083816125db576125da6137e0565b5b0492506008810190505b612710831061260a576127108381612600576125ff6137e0565b5b0492506004810190505b6064831061262d5760648381612623576126226137e0565b5b0492506002810190505b600a831061263c576001810190505b80915050919050565b60008073ffffffffffffffffffffffffffffffffffffffff168373ffffffffffffffffffffffffffffffffffffffff16141580156126fd57508273ffffffffffffffffffffffffffffffffffffffff168473ffffffffffffffffffffffffffffffffffffffff1614806126be57506126bd8484611513565b5b806126fc57508273ffffffffffffffffffffffffffffffffffffffff166126e4836117a9565b73ffffffffffffffffffffffffffffffffffffffff16145b5b90509392505050565b600073ffffffffffffffffffffffffffffffffffffffff168273ffffffffffffffffffffffffffffffffffffffff16036127785760006040517f64a0ae9200000000000000000000000000000000000000000000000000000000815260040161276f9190612a81565b60405180910390fd5b600061278683836000611800565b9050600073ffffffffffffffffffffffffffffffffffffffff168173ffffffffffffffffffffffffffffffffffffffff16146127fa5760006040517f73c6ac6e0000000000000000000000000000000000000000000000000000000081526004016127f19190612a81565b60405180910390fd5b505050565b50805461280b90613025565b6000825580601f1061281d575061283c565b601f01602090049060005260206000209081019061283b919061283f565b5b50565b5b80821115612858576000816000905550600101612840565b5090565b6000604051905090565b600080fd5b600080fd5b60007fffffffff0000000000000000000000000000000000000000000000000000000082169050919050565b6128a581612870565b81146128b057600080fd5b50565b6000813590506128c28161289c565b92915050565b6000602082840312156128de576128dd612866565b5b60006128ec848285016128b3565b91505092915050565b60008115159050919050565b61290a816128f5565b82525050565b60006020820190506129256000830184612901565b92915050565b600081519050919050565b600082825260208201905092915050565b60005b8381101561296557808201518184015260208101905061294a565b60008484015250505050565b6000601f19601f8301169050919050565b600061298d8261292b565b6129978185612936565b93506129a7818560208601612947565b6129b081612971565b840191505092915050565b600060208201905081810360008301526129d58184612982565b905092915050565b6000819050919050565b6129f0816129dd565b81146129fb57600080fd5b50565b600081359050612a0d816129e7565b92915050565b600060208284031215612a2957612a28612866565b5b6000612a37848285016129fe565b91505092915050565b600073ffffffffffffffffffffffffffffffffffffffff82169050919050565b6000612a6b82612a40565b9050919050565b612a7b81612a60565b82525050565b6000602082019050612a966000830184612a72565b92915050565b612aa581612a60565b8114612ab057600080fd5b50565b600081359050612ac281612a9c565b92915050565b60008060408385031215612adf57612ade612866565b5b6000612aed85828601612ab3565b9250506020612afe858286016129fe565b9150509250929050565b600060208284031215612b1e57612b1d612866565b5b6000612b2c84828501612ab3565b91505092915050565b612b3e816129dd565b82525050565b600060a0820190508181036000830152612b5e8188612982565b9050612b6d6020830187612b35565b612b7a6040830186612b35565b612b876060830185612a72565b612b946080830184612b35565b9695505050505050565b6000602082019050612bb36000830184612b35565b92915050565b600080600060608486031215612bd257612bd1612866565b5b6000612be086828701612ab3565b9350506020612bf186828701612ab3565b9250506040612c02868287016129fe565b9150509250925092565b60008060408385031215612c2357612c22612866565b5b6000612c31858286016129fe565b9250506020612c42858286016129fe565b9150509250929050565b612c55816128f5565b8114612c6057600080fd5b50565b600081359050612c7281612c4c565b92915050565b60008060408385031215612c8f57612c8e612866565b5b6000612c9d85828601612ab3565b9250506020612cae85828601612c63565b9150509250929050565b600080fd5b600080fd5b7f4e487b7100000000000000000000000000000000000000000000000000000000600052604160045260246000fd5b612cfa82612971565b810181811067ffffffffffffffff82111715612d1957612d18612cc2565b5b80604052505050565b6000612d2c61285c565b9050612d388282612cf1565b919050565b600067ffffffffffffffff821115612d5857612d57612cc2565b5b612d6182612971565b9050602081019050919050565b82818337600083830152505050565b6000612d90612d8b84612d3d565b612d22565b905082815260208101848484011115612dac57612dab612cbd565b5b612db7848285612d6e565b509392505050565b600082601f830112612dd457612dd3612cb8565b5b8135612de4848260208601612d7d565b91505092915050565b60008060008060808587031215612e0757612e06612866565b5b6000612e1587828801612ab3565b9450506020612e2687828801612ab3565b9350506040612e37878288016129fe565b925050606085013567ffffffffffffffff811115612e5857612e5761286b565b5b612e6487828801612dbf565b91505092959194509250565b600067ffffffffffffffff821115612e8b57612e8a612cc2565b5b612e9482612971565b9050602081019050919050565b6000612eb4612eaf84612e70565b612d22565b905082815260208101848484011115612ed057612ecf612cbd565b5b612edb848285612d6e565b509392505050565b600082601f830112612ef857612ef7612cb8565b5b8135612f08848260208601612ea1565b91505092915050565b600060208284031215612f2757612f26612866565b5b600082013567ffffffffffffffff811115612f4557612f4461286b565b5b612f5184828501612ee3565b91505092915050565b60008060408385031215612f7157612f70612866565b5b6000612f7f85828601612ab3565b9250506020612f9085828601612ab3565b9150509250929050565b60008060408385031215612fb157612fb0612866565b5b6000612fbf85828601612ab3565b925050602083013567ffffffffffffffff811115612fe057612fdf61286b565b5b612fec85828601612ee3565b9150509250929050565b7f4e487b7100000000000000000000000000000000000000000000000000000000600052602260045260246000fd5b6000600282049050600182168061303d57607f821691505b6020821081036130505761304f612ff6565b5b50919050565b7f4e487b7100000000000000000000000000000000000000000000000000000000600052601160045260246000fd5b6000613090826129dd565b91507fffffffffffffffffffffffffffffffffffffffffffffffffffffffffffffffff82036130c2576130c1613056565b5b600182019050919050565b60006130d8826129dd565b9150600082036130eb576130ea613056565b5b600182039050919050565b600060608201905061310b6000830186612a72565b6131186020830185612b35565b6131256040830184612a72565b949350505050565b600081905092915050565b7f4e616d653a200000000000000000000000000000000000000000000000000000600082015250565b600061316e60068361312d565b915061317982613138565b600682019050919050565b60008190508160005260206000209050919050565b600081546131a681613025565b6131b0818661312d565b945060018216600081146131cb57600181146131e057613213565b60ff1983168652811515820286019350613213565b6131e985613184565b60005b8381101561320b578154818901526001820191506020810190506131ec565b838801955050505b50505092915050565b7f0a4d6f6f643a2000000000000000000000000000000000000000000000000000600082015250565b600061325260078361312d565b915061325d8261321c565b600782019050919050565b60006132738261292b565b61327d818561312d565b935061328d818560208601612947565b80840191505092915050565b7f0a456e657267793a200000000000000000000000000000000000000000000000600082015250565b60006132cf60098361312d565b91506132da82613299565b600982019050919050565b60006132f082613161565b91506132fc8286613199565b915061330782613245565b91506133138285613268565b915061331e826132c2565b915061332a8284613268565b9150819050949350505050565b7f426f696c6572476f7463686920646f6573206e6f742065786973742e00000000600082015250565b600061336d601c83612936565b915061337882613337565b602082019050919050565b6000602082019050818103600083015261339c81613360565b9050919050565b7f43616c6c6572206973206e6f7420746865206f776e65722e0000000000000000600082015250565b60006133d9601883612936565b91506133e4826133a3565b602082019050919050565b60006020820190508181036000830152613408816133cc565b9050919050565b7f596f7520646f206e6f74206f776e206120426f696c6572476f74636869000000600082015250565b6000613445601d83612936565b91506134508261340f565b602082019050919050565b6000602082019050818103600083015261347481613438565b9050919050565b7f4e616d652073686f756c64206e6f7420626520656d7074790000000000000000600082015250565b60006134b1601883612936565b91506134bc8261347b565b602082019050919050565b600060208201905081810360008301526134e0816134a4565b9050919050565b7f596f7520616c72656164792068617665206120676f7463686900000000000000600082015250565b600061351d601983612936565b9150613528826134e7565b602082019050919050565b6000602082019050818103600083015261354c81613510565b9050919050565b60006020601f8301049050919050565b600082821b905092915050565b6000600883026135a07fffffffffffffffffffffffffffffffffffffffffffffffffffffffffffffffff82613563565b6135aa8683613563565b95508019841693508086168417925050509392505050565b6000819050919050565b60006135e76135e26135dd846129dd565b6135c2565b6129dd565b9050919050565b6000819050919050565b613601836135cc565b61361561360d826135ee565b848454613570565b825550505050565b600090565b61362a61361d565b6136358184846135f8565b505050565b5b818110156136595761364e600082613622565b60018101905061363b565b5050565b601f82111561369e5761366f81613184565b61367884613553565b81016020851015613687578190505b61369b61369385613553565b83018261363a565b50505b505050565b600082821c905092915050565b60006136c1600019846008026136a3565b1980831691505092915050565b60006136da83836136b0565b9150826002028217905092915050565b6136f38261292b565b67ffffffffffffffff81111561370c5761370b612cc2565b5b6137168254613025565b61372182828561365d565b600060209050601f8311600181146137545760008415613742578287015190505b61374c85826136ce565b8655506137b4565b601f19841661376286613184565b60005b8281101561378a57848901518255600182019150602085019450602081019050613765565b868310156137a757848901516137a3601f8916826136b0565b8355505b6001600288020188555050505b505050505050565b60006137c88285613268565b91506137d48284613268565b91508190509392505050565b7f4e487b7100000000000000000000000000000000000000000000000000000000600052601260045260246000fd5b600061381a826129dd565b9150613825836129dd565b925082613835576138346137e0565b5b828204905092915050565b600061384b826129dd565b9150613856836129dd565b925082820390508181111561386e5761386d613056565b5b92915050565b600061387f826129dd565b915061388a836129dd565b92508261389a576138996137e0565b5b828206905092915050565b60006138b0826129dd565b91506138bb836129dd565b92508282019050808211156138d3576138d2613056565b5b92915050565b7f4e487b7100000000000000000000000000000000000000000000000000000000600052603260045260246000fd5b7f4f776e657220646f6573206e6f742068617665206120426f696c6572476f746360008201527f6869000000000000000000000000000000000000000000000000000000000000602082015250565b6000613964602283612936565b915061396f82613908565b604082019050919050565b6000602082019050818103600083015261399381613957565b9050919050565b7f546f6b656e204944206e6f7420666f756e640000000000000000000000000000600082015250565b60006139d0601283612936565b91506139db8261399a565b602082019050919050565b600060208201905081810360008301526139ff816139c3565b9050919050565b600081519050919050565b600082825260208201905092915050565b6000613a2d82613a06565b613a378185613a11565b9350613a47818560208601612947565b613a5081612971565b840191505092915050565b6000608082019050613a706000830187612a72565b613a7d6020830186612a72565b613a8a6040830185612b35565b8181036060830152613a9c8184613a22565b905095945050505050565b600081519050613ab68161289c565b92915050565b600060208284031215613ad257613ad1612866565b5b6000613ae084828501613aa7565b91505092915050565b6000604082019050613afe6000830185612a72565b613b0b6020830184612b35565b939250505056fea2646970667358221220cb66a55eb617c7cc28a14001fb7d07514e2561de7d4b30e23f1cf18aba66272d64736f6c63430008140033",
  "linkReferences": {},
  "deployedLinkReferences": {}
}