{
  "_format": "hh-sol-artifact-1",
  "contractName": "boilerGotchi",
  "sourceName": "Contracts/initalize.sol",
  "abi": [
    {
      "inputs": [],
      "stateMutability": "nonpayable",
      "type": "constructor"
    },
    {
      "inputs": [
        {
          "internalType": "address",
          "name": "sender",
          "type": "address"
        },
        {
          "internalType": "uint256",
          "name": "tokenId",
          "type": "uint256"
        },
        {
          "internalType": "address",
          "name": "owner",
          "type": "address"
        }
      ],
      "name": "ERC721IncorrectOwner",
      "type": "error"
    },
    {
      "inputs": [
        {
          "internalType": "address",
          "name": "operator",
          "type": "address"
        },
        {
          "internalType": "uint256",
          "name": "tokenId",
          "type": "uint256"
        }
      ],
      "name": "ERC721InsufficientApproval",
      "type": "error"
    },
    {
      "inputs": [
        {
          "internalType": "address",
          "name": "approver",
          "type": "address"
        }
      ],
      "name": "ERC721InvalidApprover",
      "type": "error"
    },
    {
      "inputs": [
        {
          "internalType": "address",
          "name": "operator",
          "type": "address"
        }
      ],
      "name": "ERC721InvalidOperator",
      "type": "error"
    },
    {
      "inputs": [
        {
          "internalType": "address",
          "name": "owner",
          "type": "address"
        }
      ],
      "name": "ERC721InvalidOwner",
      "type": "error"
    },
    {
      "inputs": [
        {
          "internalType": "address",
          "name": "receiver",
          "type": "address"
        }
      ],
      "name": "ERC721InvalidReceiver",
      "type": "error"
    },
    {
      "inputs": [
        {
          "internalType": "address",
          "name": "sender",
          "type": "address"
        }
      ],
      "name": "ERC721InvalidSender",
      "type": "error"
    },
    {
      "inputs": [
        {
          "internalType": "uint256",
          "name": "tokenId",
          "type": "uint256"
        }
      ],
      "name": "ERC721NonexistentToken",
      "type": "error"
    },
    {
      "anonymous": false,
      "inputs": [
        {
          "indexed": true,
          "internalType": "address",
          "name": "owner",
          "type": "address"
        },
        {
          "indexed": true,
          "internalType": "address",
          "name": "approved",
          "type": "address"
        },
        {
          "indexed": true,
          "internalType": "uint256",
          "name": "tokenId",
          "type": "uint256"
        }
      ],
      "name": "Approval",
      "type": "event"
    },
    {
      "anonymous": false,
      "inputs": [
        {
          "indexed": true,
          "internalType": "address",
          "name": "owner",
          "type": "address"
        },
        {
          "indexed": true,
          "internalType": "address",
          "name": "operator",
          "type": "address"
        },
        {
          "indexed": false,
          "internalType": "bool",
          "name": "approved",
          "type": "bool"
        }
      ],
      "name": "ApprovalForAll",
      "type": "event"
    },
    {
      "anonymous": false,
      "inputs": [
        {
          "indexed": true,
          "internalType": "address",
          "name": "from",
          "type": "address"
        },
        {
          "indexed": true,
          "internalType": "address",
          "name": "to",
          "type": "address"
        },
        {
          "indexed": true,
          "internalType": "uint256",
          "name": "tokenId",
          "type": "uint256"
        }
      ],
      "name": "Transfer",
      "type": "event"
    },
    {
      "inputs": [
        {
          "internalType": "address",
          "name": "to",
          "type": "address"
        },
        {
          "internalType": "uint256",
          "name": "tokenId",
          "type": "uint256"
        }
      ],
      "name": "approve",
      "outputs": [],
      "stateMutability": "nonpayable",
      "type": "function"
    },
    {
      "inputs": [
        {
          "internalType": "address",
          "name": "owner",
          "type": "address"
        }
      ],
      "name": "balanceOf",
      "outputs": [
        {
          "internalType": "uint256",
          "name": "",
          "type": "uint256"
        }
      ],
      "stateMutability": "view",
      "type": "function"
    },
    {
      "inputs": [],
      "name": "checkStatus",
      "outputs": [
        {
          "internalType": "string",
          "name": "",
          "type": "string"
        }
      ],
      "stateMutability": "view",
      "type": "function"
    },
    {
      "inputs": [],
      "name": "checkSuicidal",
      "outputs": [
        {
          "internalType": "bool",
          "name": "",
          "type": "bool"
        }
      ],
      "stateMutability": "view",
      "type": "function"
    },
    {
      "inputs": [
        {
          "internalType": "string",
          "name": "name",
          "type": "string"
        }
      ],
      "name": "createGotchi",
      "outputs": [],
      "stateMutability": "nonpayable",
      "type": "function"
    },
    {
      "inputs": [],
      "name": "deleteGotchi",
      "outputs": [],
      "stateMutability": "nonpayable",
      "type": "function"
    },
    {
      "inputs": [],
      "name": "feedBoilerGotchi",
      "outputs": [],
      "stateMutability": "nonpayable",
      "type": "function"
    },
    {
      "inputs": [
        {
          "internalType": "uint256",
          "name": "tokenId",
          "type": "uint256"
        }
      ],
      "name": "getApproved",
      "outputs": [
        {
          "internalType": "address",
          "name": "",
          "type": "address"
        }
      ],
      "stateMutability": "view",
      "type": "function"
    },
    {
      "inputs": [],
      "name": "getBoilergotchiEnergyPoints",
      "outputs": [
        {
          "internalType": "uint256",
          "name": "",
          "type": "uint256"
        }
      ],
      "stateMutability": "view",
      "type": "function"
    },
    {
      "inputs": [],
      "name": "getBoilergotchiName",
      "outputs": [
        {
          "internalType": "string",
          "name": "",
          "type": "string"
        }
      ],
      "stateMutability": "view",
      "type": "function"
    },
    {
      "inputs": [],
      "name": "getMood",
      "outputs": [
        {
          "internalType": "string",
          "name": "",
          "type": "string"
        }
      ],
      "stateMutability": "view",
      "type": "function"
    },
    {
      "inputs": [
        {
          "internalType": "address",
          "name": "",
          "type": "address"
        }
      ],
      "name": "gotchis",
      "outputs": [
        {
          "internalType": "string",
          "name": "name",
          "type": "string"
        },
        {
          "internalType": "uint256",
          "name": "mood",
          "type": "uint256"
        },
        {
          "internalType": "uint256",
          "name": "energy",
          "type": "uint256"
        },
        {
          "internalType": "address",
          "name": "owner",
          "type": "address"
        },
        {
          "internalType": "uint256",
          "name": "lastPlayed",
          "type": "uint256"
        }
      ],
      "stateMutability": "view",
      "type": "function"
    },
    {
      "inputs": [
        {
          "internalType": "address",
          "name": "owner",
          "type": "address"
        },
        {
          "internalType": "address",
          "name": "operator",
          "type": "address"
        }
      ],
      "name": "isApprovedForAll",
      "outputs": [
        {
          "internalType": "bool",
          "name": "",
          "type": "bool"
        }
      ],
      "stateMutability": "view",
      "type": "function"
    },
    {
      "inputs": [],
      "name": "name",
      "outputs": [
        {
          "internalType": "string",
          "name": "",
          "type": "string"
        }
      ],
      "stateMutability": "view",
      "type": "function"
    },
    {
      "inputs": [],
      "name": "nextID",
      "outputs": [
        {
          "internalType": "uint256",
          "name": "",
          "type": "uint256"
        }
      ],
      "stateMutability": "view",
      "type": "function"
    },
    {
      "inputs": [
        {
          "internalType": "uint256",
          "name": "tokenId",
          "type": "uint256"
        }
      ],
      "name": "ownerOf",
      "outputs": [
        {
          "internalType": "address",
          "name": "",
          "type": "address"
        }
      ],
      "stateMutability": "view",
      "type": "function"
    },
    {
      "inputs": [],
      "name": "playBoilerGotchi",
      "outputs": [],
      "stateMutability": "nonpayable",
      "type": "function"
    },
    {
      "inputs": [
        {
          "internalType": "address",
          "name": "from",
          "type": "address"
        },
        {
          "internalType": "address",
          "name": "to",
          "type": "address"
        },
        {
          "internalType": "uint256",
          "name": "tokenId",
          "type": "uint256"
        }
      ],
      "name": "safeTransferFrom",
      "outputs": [],
      "stateMutability": "nonpayable",
      "type": "function"
    },
    {
      "inputs": [
        {
          "internalType": "address",
          "name": "from",
          "type": "address"
        },
        {
          "internalType": "address",
          "name": "to",
          "type": "address"
        },
        {
          "internalType": "uint256",
          "name": "tokenId",
          "type": "uint256"
        },
        {
          "internalType": "bytes",
          "name": "data",
          "type": "bytes"
        }
      ],
      "name": "safeTransferFrom",
      "outputs": [],
      "stateMutability": "nonpayable",
      "type": "function"
    },
    {
      "inputs": [
        {
          "internalType": "address",
          "name": "operator",
          "type": "address"
        },
        {
          "internalType": "bool",
          "name": "approved",
          "type": "bool"
        }
      ],
      "name": "setApprovalForAll",
      "outputs": [],
      "stateMutability": "nonpayable",
      "type": "function"
    },
    {
      "inputs": [
        {
          "internalType": "uint256",
          "name": "energy",
          "type": "uint256"
        }
      ],
      "name": "setBoilergotchiEnergyPoints",
      "outputs": [],
      "stateMutability": "nonpayable",
      "type": "function"
    },
    {
      "inputs": [
        {
          "internalType": "bytes4",
          "name": "interfaceId",
          "type": "bytes4"
        }
      ],
      "name": "supportsInterface",
      "outputs": [
        {
          "internalType": "bool",
          "name": "",
          "type": "bool"
        }
      ],
      "stateMutability": "view",
      "type": "function"
    },
    {
      "inputs": [],
      "name": "symbol",
      "outputs": [
        {
          "internalType": "string",
          "name": "",
          "type": "string"
        }
      ],
      "stateMutability": "view",
      "type": "function"
    },
    {
      "inputs": [
        {
          "internalType": "uint256",
          "name": "tokenId",
          "type": "uint256"
        }
      ],
      "name": "tokenURI",
      "outputs": [
        {
          "internalType": "string",
          "name": "",
          "type": "string"
        }
      ],
      "stateMutability": "view",
      "type": "function"
    },
    {
      "inputs": [
        {
          "internalType": "address",
          "name": "from",
          "type": "address"
        },
        {
          "internalType": "address",
          "name": "to",
          "type": "address"
        }
      ],
      "name": "transfer",
      "outputs": [],
      "stateMutability": "nonpayable",
      "type": "function"
    },
    {
      "inputs": [
        {
          "internalType": "address",
          "name": "from",
          "type": "address"
        },
        {
          "internalType": "address",
          "name": "to",
          "type": "address"
        },
        {
          "internalType": "uint256",
          "name": "tokenId",
          "type": "uint256"
        }
      ],
      "name": "transferFrom",
      "outputs": [],
      "stateMutability": "nonpayable",
      "type": "function"
    }
  ],
  "bytecode": "0x608060405260006008553480156200001657600080fd5b506040518060400160405280600c81526020017f426f696c6572476f7463686900000000000000000000000000000000000000008152506040518060400160405280600281526020017f4247000000000000000000000000000000000000000000000000000000000000815250816000908162000094919062000329565b508060019081620000a6919062000329565b50505062000410565b600081519050919050565b7f4e487b7100000000000000000000000000000000000000000000000000000000600052604160045260246000fd5b7f4e487b7100000000000000000000000000000000000000000000000000000000600052602260045260246000fd5b600060028204905060018216806200013157607f821691505b602082108103620001475762000146620000e9565b5b50919050565b60008190508160005260206000209050919050565b60006020601f8301049050919050565b600082821b905092915050565b600060088302620001b17fffffffffffffffffffffffffffffffffffffffffffffffffffffffffffffffff8262000172565b620001bd868362000172565b95508019841693508086168417925050509392505050565b6000819050919050565b6000819050919050565b60006200020a62000204620001fe84620001d5565b620001df565b620001d5565b9050919050565b6000819050919050565b6200022683620001e9565b6200023e620002358262000211565b8484546200017f565b825550505050565b600090565b6200025562000246565b620002628184846200021b565b505050565b5b818110156200028a576200027e6000826200024b565b60018101905062000268565b5050565b601f821115620002d957620002a3816200014d565b620002ae8462000162565b81016020851015620002be578190505b620002d6620002cd8562000162565b83018262000267565b50505b505050565b600082821c905092915050565b6000620002fe60001984600802620002de565b1980831691505092915050565b6000620003198383620002eb565b9150826002028217905092915050565b6200033482620000af565b67ffffffffffffffff81111562000350576200034f620000ba565b5b6200035c825462000118565b620003698282856200028e565b600060209050601f831160018114620003a157600084156200038c578287015190505b6200039885826200030b565b86555062000408565b601f198416620003b1866200014d565b60005b82811015620003db57848901518255600182019150602085019450602081019050620003b4565b86831015620003fb5784890151620003f7601f891682620002eb565b8355505b6001600288020188555050505b505050505050565b613b6280620004206000396000f3fe608060405234801561001057600080fd5b506004361061018e5760003560e01c80636352211e116100de578063ab6720e511610097578063bd11ccd911610071578063bd11ccd91461043b578063c016063d14610457578063c87b56dd14610475578063e985e9c5146104a55761018e565b8063ab6720e5146103f9578063b88d4fde14610403578063ba45b0b81461041f5761018e565b80636352211e1461032557806370a082311461035557806385e8f4d31461038557806395d89b41146103a15780639d0c1397146103bf578063a22cb465146103dd5761018e565b80631e96917d1161014b5780633b7104f2116101255780633b7104f2146102c357806342842e0e146102e15780634ce89ce4146102fd57806350c4243a146103075761018e565b80631e96917d1461026b57806323b872dd14610289578063380df28c146102a55761018e565b806301ffc9a71461019357806306fdde03146101c35780630759b783146101e1578063081812fc146101eb578063095ea7b31461021b5780630fe9c9b214610237575b600080fd5b6101ad60048036038101906101a89190612912565b6104d5565b6040516101ba919061295a565b60405180910390f35b6101cb6105b7565b6040516101d89190612a05565b60405180910390f35b6101e9610649565b005b61020560048036038101906102009190612a5d565b610813565b6040516102129190612acb565b60405180910390f35b61023560048036038101906102309190612b12565b61082f565b005b610251600480360381019061024c9190612b52565b610845565b604051610262959493929190612b8e565b60405180910390f35b610273610923565b6040516102809190612be8565b60405180910390f35b6102a3600480360381019061029e9190612c03565b610929565b005b6102ad610a2b565b6040516102ba919061295a565b60405180910390f35b6102cb610a8b565b6040516102d89190612a05565b60405180910390f35b6102fb60048036038101906102f69190612c03565b610b16565b005b610305610b36565b005b61030f610c83565b60405161031c9190612a05565b60405180910390f35b61033f600480360381019061033a9190612a5d565b610e23565b60405161034c9190612acb565b60405180910390f35b61036f600480360381019061036a9190612b52565b610e35565b60405161037c9190612be8565b60405180910390f35b61039f600480360381019061039a9190612a5d565b610eef565b005b6103a961100f565b6040516103b69190612a05565b60405180910390f35b6103c76110a1565b6040516103d49190612a05565b60405180910390f35b6103f760048036038101906103f29190612c82565b611214565b005b61040161122a565b005b61041d60048036038101906104189190612df7565b6113a4565b005b61043960048036038101906104349190612e7a565b6113c1565b005b61045560048036038101906104509190612f5b565b6113de565b005b61045f611616565b60405161046c9190612be8565b60405180910390f35b61048f600480360381019061048a9190612a5d565b611665565b60405161049c9190612a05565b60405180910390f35b6104bf60048036038101906104ba9190612e7a565b6116ce565b6040516104cc919061295a565b60405180910390f35b60007f80ac58cd000000000000000000000000000000000000000000000000000000007bffffffffffffffffffffffffffffffffffffffffffffffffffffffff1916827bffffffffffffffffffffffffffffffffffffffffffffffffffffffff191614806105a057507f5b5e139f000000000000000000000000000000000000000000000000000000007bffffffffffffffffffffffffffffffffffffffffffffffffffffffff1916827bffffffffffffffffffffffffffffffffffffffffffffffffffffffff1916145b806105b057506105af82611762565b5b9050919050565b6060600080546105c690612fd3565b80601f01602080910402602001604051908101604052809291908181526020018280546105f290612fd3565b801561063f5780601f106106145761010080835404028352916020019161063f565b820191906000526020600020905b81548152906001019060200180831161062257829003601f168201915b5050505050905090565b6000600660003373ffffffffffffffffffffffffffffffffffffffff1673ffffffffffffffffffffffffffffffffffffffff16815260200190815260200160002060020154036106ce576040517f08c379a00000000000000000000000000000000000000000000000000000000081526004016106c590613050565b60405180910390fd5b61016d600660003373ffffffffffffffffffffffffffffffffffffffff1673ffffffffffffffffffffffffffffffffffffffff168152602001908152602001600020600101541461077257600660003373ffffffffffffffffffffffffffffffffffffffff1673ffffffffffffffffffffffffffffffffffffffff168152602001908152602001600020600101600081548092919061076c9061309f565b91905055505b600660003373ffffffffffffffffffffffffffffffffffffffff1673ffffffffffffffffffffffffffffffffffffffff16815260200190815260200160002060020160008154809291906107c5906130e7565b919050555042600660003373ffffffffffffffffffffffffffffffffffffffff1673ffffffffffffffffffffffffffffffffffffffff16815260200190815260200160002060040181905550565b600061081e826117cc565b5061082882611854565b9050919050565b610841828261083c611891565b611899565b5050565b600660205280600052604060002060009150905080600001805461086890612fd3565b80601f016020809104026020016040519081016040528092919081815260200182805461089490612fd3565b80156108e15780601f106108b6576101008083540402835291602001916108e1565b820191906000526020600020905b8154815290600101906020018083116108c457829003601f168201915b5050505050908060010154908060020154908060030160009054906101000a900473ffffffffffffffffffffffffffffffffffffffff16908060040154905085565b60085481565b600073ffffffffffffffffffffffffffffffffffffffff168273ffffffffffffffffffffffffffffffffffffffff160361099b5760006040517f64a0ae920000000000000000000000000000000000000000000000000000000081526004016109929190612acb565b60405180910390fd5b60006109af83836109aa611891565b6118ab565b90508373ffffffffffffffffffffffffffffffffffffffff168173ffffffffffffffffffffffffffffffffffffffff1614610a25578382826040517f64283d7b000000000000000000000000000000000000000000000000000000008152600401610a1c93929190613110565b60405180910390fd5b50505050565b600080600660003373ffffffffffffffffffffffffffffffffffffffff1673ffffffffffffffffffffffffffffffffffffffff16815260200190815260200160002090506301e13380816004015442610a849190613147565b1191505090565b60606000600660003373ffffffffffffffffffffffffffffffffffffffff1673ffffffffffffffffffffffffffffffffffffffff16815260200190815260200160002090506000610ada6110a1565b90508160000181610aee8460020154611ac5565b604051602001610b0093929190613333565b6040516020818303038152906040529250505090565b610b31838383604051806020016040528060008152506113a4565b505050565b6064600660003373ffffffffffffffffffffffffffffffffffffffff1673ffffffffffffffffffffffffffffffffffffffff1681526020019081526020016000206002015414610bdb57600a600660003373ffffffffffffffffffffffffffffffffffffffff1673ffffffffffffffffffffffffffffffffffffffff1681526020019081526020016000206002016000828254610bd39190613385565b925050819055505b61015e600660003373ffffffffffffffffffffffffffffffffffffffff1673ffffffffffffffffffffffffffffffffffffffff1681526020019081526020016000206001015414610c81576023600660003373ffffffffffffffffffffffffffffffffffffffff1673ffffffffffffffffffffffffffffffffffffffff1681526020019081526020016000206001016000828254610c799190613385565b925050819055505b565b6060600073ffffffffffffffffffffffffffffffffffffffff16600660003373ffffffffffffffffffffffffffffffffffffffff1673ffffffffffffffffffffffffffffffffffffffff16815260200190815260200160002060030160009054906101000a900473ffffffffffffffffffffffffffffffffffffffff1673ffffffffffffffffffffffffffffffffffffffff1603610d56576040517f08c379a0000000000000000000000000000000000000000000000000000000008152600401610d4d90613405565b60405180910390fd5b600760003373ffffffffffffffffffffffffffffffffffffffff1673ffffffffffffffffffffffffffffffffffffffff1681526020019081526020016000208054610da090612fd3565b80601f0160208091040260200160405190810160405280929190818152602001828054610dcc90612fd3565b8015610e195780601f10610dee57610100808354040283529160200191610e19565b820191906000526020600020905b815481529060010190602001808311610dfc57829003601f168201915b5050505050905090565b6000610e2e826117cc565b9050919050565b60008073ffffffffffffffffffffffffffffffffffffffff168273ffffffffffffffffffffffffffffffffffffffff1603610ea85760006040517f89c62b64000000000000000000000000000000000000000000000000000000008152600401610e9f9190612acb565b60405180910390fd5b600360008373ffffffffffffffffffffffffffffffffffffffff1673ffffffffffffffffffffffffffffffffffffffff168152602001908152602001600020549050919050565b3373ffffffffffffffffffffffffffffffffffffffff16600660003373ffffffffffffffffffffffffffffffffffffffff1673ffffffffffffffffffffffffffffffffffffffff16815260200190815260200160002060030160009054906101000a900473ffffffffffffffffffffffffffffffffffffffff1673ffffffffffffffffffffffffffffffffffffffff1614610fbf576040517f08c379a0000000000000000000000000000000000000000000000000000000008152600401610fb690613471565b60405180910390fd5b6000600660003373ffffffffffffffffffffffffffffffffffffffff1673ffffffffffffffffffffffffffffffffffffffff16815260200190815260200160002090508181600201819055505050565b60606001805461101e90612fd3565b80601f016020809104026020016040519081016040528092919081815260200182805461104a90612fd3565b80156110975780601f1061106c57610100808354040283529160200191611097565b820191906000526020600020905b81548152906001019060200180831161107a57829003601f168201915b5050505050905090565b60606000600660003373ffffffffffffffffffffffffffffffffffffffff1673ffffffffffffffffffffffffffffffffffffffff16815260200190815260200160002090506110ee610a2b565b15611131576040518060400160405280600881526020017f537569636964616c000000000000000000000000000000000000000000000000815250915050611211565b60c881600101541061117b576040518060400160405280600581526020017f4861707079000000000000000000000000000000000000000000000000000000815250915050611211565b60648160010154106111c5576040518060400160405280600581526020017f4368696c6c000000000000000000000000000000000000000000000000000000815250915050611211565b600181600101541061120f576040518060400160405280600381526020017f5361640000000000000000000000000000000000000000000000000000000000815250915050611211565b505b90565b61122661121f611891565b8383611c25565b5050565b3373ffffffffffffffffffffffffffffffffffffffff16600660003373ffffffffffffffffffffffffffffffffffffffff1673ffffffffffffffffffffffffffffffffffffffff16815260200190815260200160002060030160009054906101000a900473ffffffffffffffffffffffffffffffffffffffff1673ffffffffffffffffffffffffffffffffffffffff16146112fa576040517f08c379a00000000000000000000000000000000000000000000000000000000081526004016112f1906134dd565b60405180910390fd5b600061130533611d94565b905061131081611f1a565b600660003373ffffffffffffffffffffffffffffffffffffffff1673ffffffffffffffffffffffffffffffffffffffff168152602001908152602001600020600080820160006113609190612849565b600182016000905560028201600090556003820160006101000a81549073ffffffffffffffffffffffffffffffffffffffff02191690556004820160009055505050565b6113af848484610929565b6113bb84848484611fa0565b50505050565b60006113cc83611d94565b90506113d9838383610929565b505050565b6000815111611422576040517f08c379a000000000000000000000000000000000000000000000000000000000815260040161141990613549565b60405180910390fd5b600073ffffffffffffffffffffffffffffffffffffffff16600660003373ffffffffffffffffffffffffffffffffffffffff1673ffffffffffffffffffffffffffffffffffffffff16815260200190815260200160002060030160009054906101000a900473ffffffffffffffffffffffffffffffffffffffff1673ffffffffffffffffffffffffffffffffffffffff16146114f3576040517f08c379a00000000000000000000000000000000000000000000000000000000081526004016114ea906135b5565b60405180910390fd5b60006008600081546115049061309f565b91905081905590506115163382612157565b6040518060a0016040528083815260200160648152602001606481526020013373ffffffffffffffffffffffffffffffffffffffff16815260200142815250600660003373ffffffffffffffffffffffffffffffffffffffff1673ffffffffffffffffffffffffffffffffffffffff16815260200190815260200160002060008201518160000190816115a9919061376c565b50602082015181600101556040820151816002015560608201518160030160006101000a81548173ffffffffffffffffffffffffffffffffffffffff021916908373ffffffffffffffffffffffffffffffffffffffff160217905550608082015181600401559050505050565b600080600660003373ffffffffffffffffffffffffffffffffffffffff1673ffffffffffffffffffffffffffffffffffffffff1681526020019081526020016000209050806002015491505090565b6060611670826117cc565b50600061167b612175565b9050600081511161169b57604051806020016040528060008152506116c6565b806116a58461218c565b6040516020016116b692919061383e565b6040516020818303038152906040525b915050919050565b6000600560008473ffffffffffffffffffffffffffffffffffffffff1673ffffffffffffffffffffffffffffffffffffffff16815260200190815260200160002060008373ffffffffffffffffffffffffffffffffffffffff1673ffffffffffffffffffffffffffffffffffffffff16815260200190815260200160002060009054906101000a900460ff16905092915050565b60007f01ffc9a7000000000000000000000000000000000000000000000000000000007bffffffffffffffffffffffffffffffffffffffffffffffffffffffff1916827bffffffffffffffffffffffffffffffffffffffffffffffffffffffff1916149050919050565b6000806117d88361225a565b9050600073ffffffffffffffffffffffffffffffffffffffff168173ffffffffffffffffffffffffffffffffffffffff160361184b57826040517f7e2732890000000000000000000000000000000000000000000000000000000081526004016118429190612be8565b60405180910390fd5b80915050919050565b60006004600083815260200190815260200160002060009054906101000a900473ffffffffffffffffffffffffffffffffffffffff169050919050565b600033905090565b6118a68383836001612297565b505050565b6000806118b78461225a565b9050600073ffffffffffffffffffffffffffffffffffffffff168373ffffffffffffffffffffffffffffffffffffffff16146118f9576118f881848661245c565b5b600073ffffffffffffffffffffffffffffffffffffffff168173ffffffffffffffffffffffffffffffffffffffff161461198a5761193b600085600080612297565b6001600360008373ffffffffffffffffffffffffffffffffffffffff1673ffffffffffffffffffffffffffffffffffffffff168152602001908152602001600020600082825403925050819055505b600073ffffffffffffffffffffffffffffffffffffffff168573ffffffffffffffffffffffffffffffffffffffff1614611a0d576001600360008773ffffffffffffffffffffffffffffffffffffffff1673ffffffffffffffffffffffffffffffffffffffff168152602001908152602001600020600082825401925050819055505b846002600086815260200190815260200160002060006101000a81548173ffffffffffffffffffffffffffffffffffffffff021916908373ffffffffffffffffffffffffffffffffffffffff160217905550838573ffffffffffffffffffffffffffffffffffffffff168273ffffffffffffffffffffffffffffffffffffffff167fddf252ad1be2c89b69c2b068fc378daa952ba7f163c4a11628f55a4df523b3ef60405160405180910390a4809150509392505050565b606060008203611b0c576040518060400160405280600181526020017f30000000000000000000000000000000000000000000000000000000000000008152509050611c20565b600082905060005b60008214611b3e578080611b279061309f565b915050600a82611b379190613891565b9150611b14565b60008167ffffffffffffffff811115611b5a57611b59612ccc565b5b6040519080825280601f01601f191660200182016040528015611b8c5781602001600182028036833780820191505090505b5090505b60008514611c1957600182611ba59190613147565b9150600a85611bb491906138c2565b6030611bc09190613385565b60f81b818381518110611bd657611bd56138f3565b5b60200101907effffffffffffffffffffffffffffffffffffffffffffffffffffffffffffff1916908160001a905350600a85611c129190613891565b9450611b90565b8093505050505b919050565b600073ffffffffffffffffffffffffffffffffffffffff168273ffffffffffffffffffffffffffffffffffffffff1603611c9657816040517f5b08ba18000000000000000000000000000000000000000000000000000000008152600401611c8d9190612acb565b60405180910390fd5b80600560008573ffffffffffffffffffffffffffffffffffffffff1673ffffffffffffffffffffffffffffffffffffffff16815260200190815260200160002060008473ffffffffffffffffffffffffffffffffffffffff1673ffffffffffffffffffffffffffffffffffffffff16815260200190815260200160002060006101000a81548160ff0219169083151502179055508173ffffffffffffffffffffffffffffffffffffffff168373ffffffffffffffffffffffffffffffffffffffff167f17307eab39ab6107e8899845ad3d59bd9653f200f220920489ca2b5937696c3183604051611d87919061295a565b60405180910390a3505050565b60008173ffffffffffffffffffffffffffffffffffffffff16600660008473ffffffffffffffffffffffffffffffffffffffff1673ffffffffffffffffffffffffffffffffffffffff16815260200190815260200160002060030160009054906101000a900473ffffffffffffffffffffffffffffffffffffffff1673ffffffffffffffffffffffffffffffffffffffff1614611e66576040517f08c379a0000000000000000000000000000000000000000000000000000000008152600401611e5d90613994565b60405180910390fd5b600080600190505b6008548111611ecd578373ffffffffffffffffffffffffffffffffffffffff16611e9782610e23565b73ffffffffffffffffffffffffffffffffffffffff1603611eba57809150611ecd565b8080611ec59061309f565b915050611e6e565b5060008103611f11576040517f08c379a0000000000000000000000000000000000000000000000000000000008152600401611f0890613a00565b60405180910390fd5b80915050919050565b6000611f2960008360006118ab565b9050600073ffffffffffffffffffffffffffffffffffffffff168173ffffffffffffffffffffffffffffffffffffffff1603611f9c57816040517f7e273289000000000000000000000000000000000000000000000000000000008152600401611f939190612be8565b60405180910390fd5b5050565b60008373ffffffffffffffffffffffffffffffffffffffff163b1115612151578273ffffffffffffffffffffffffffffffffffffffff1663150b7a02611fe4611891565b8685856040518563ffffffff1660e01b81526004016120069493929190613a75565b6020604051808303816000875af192505050801561204257506040513d601f19601f8201168201806040525081019061203f9190613ad6565b60015b6120c6573d8060008114612072576040519150601f19603f3d011682016040523d82523d6000602084013e612077565b606091505b5060008151036120be57836040517f64a0ae920000000000000000000000000000000000000000000000000000000081526004016120b59190612acb565b60405180910390fd5b805181602001fd5b63150b7a0260e01b7bffffffffffffffffffffffffffffffffffffffffffffffffffffffff1916817bffffffffffffffffffffffffffffffffffffffffffffffffffffffff19161461214f57836040517f64a0ae920000000000000000000000000000000000000000000000000000000081526004016121469190612acb565b60405180910390fd5b505b50505050565b612171828260405180602001604052806000815250612520565b5050565b606060405180602001604052806000815250905090565b60606000600161219b8461253c565b01905060008167ffffffffffffffff8111156121ba576121b9612ccc565b5b6040519080825280601f01601f1916602001820160405280156121ec5781602001600182028036833780820191505090505b509050600082602001820190505b60011561224f578080600190039150507f3031323334353637383961626364656600000000000000000000000000000000600a86061a8153600a858161224357612242613862565b5b049450600085036121fa575b819350505050919050565b60006002600083815260200190815260200160002060009054906101000a900473ffffffffffffffffffffffffffffffffffffffff169050919050565b80806122d05750600073ffffffffffffffffffffffffffffffffffffffff168273ffffffffffffffffffffffffffffffffffffffff1614155b156124045760006122e0846117cc565b9050600073ffffffffffffffffffffffffffffffffffffffff168373ffffffffffffffffffffffffffffffffffffffff161415801561234b57508273ffffffffffffffffffffffffffffffffffffffff168173ffffffffffffffffffffffffffffffffffffffff1614155b801561235e575061235c81846116ce565b155b156123a057826040517fa9fbf51f0000000000000000000000000000000000000000000000000000000081526004016123979190612acb565b60405180910390fd5b811561240257838573ffffffffffffffffffffffffffffffffffffffff168273ffffffffffffffffffffffffffffffffffffffff167f8c5be1e5ebec7d5bd14f71427d1e84f3dd0314c0f7b2291e5b200ac8c7c3b92560405160405180910390a45b505b836004600085815260200190815260200160002060006101000a81548173ffffffffffffffffffffffffffffffffffffffff021916908373ffffffffffffffffffffffffffffffffffffffff16021790555050505050565b61246783838361268f565b61251b57600073ffffffffffffffffffffffffffffffffffffffff168373ffffffffffffffffffffffffffffffffffffffff16036124dc57806040517f7e2732890000000000000000000000000000000000000000000000000000000081526004016124d39190612be8565b60405180910390fd5b81816040517f177e802f000000000000000000000000000000000000000000000000000000008152600401612512929190613b03565b60405180910390fd5b505050565b61252a8383612750565b6125376000848484611fa0565b505050565b600080600090507a184f03e93ff9f4daa797ed6e38ed64bf6a1f010000000000000000831061259a577a184f03e93ff9f4daa797ed6e38ed64bf6a1f01000000000000000083816125905761258f613862565b5b0492506040810190505b6d04ee2d6d415b85acef810000000083106125d7576d04ee2d6d415b85acef810000000083816125cd576125cc613862565b5b0492506020810190505b662386f26fc10000831061260657662386f26fc1000083816125fc576125fb613862565b5b0492506010810190505b6305f5e100831061262f576305f5e100838161262557612624613862565b5b0492506008810190505b612710831061265457612710838161264a57612649613862565b5b0492506004810190505b60648310612677576064838161266d5761266c613862565b5b0492506002810190505b600a8310612686576001810190505b80915050919050565b60008073ffffffffffffffffffffffffffffffffffffffff168373ffffffffffffffffffffffffffffffffffffffff161415801561274757508273ffffffffffffffffffffffffffffffffffffffff168473ffffffffffffffffffffffffffffffffffffffff161480612708575061270784846116ce565b5b8061274657508273ffffffffffffffffffffffffffffffffffffffff1661272e83611854565b73ffffffffffffffffffffffffffffffffffffffff16145b5b90509392505050565b600073ffffffffffffffffffffffffffffffffffffffff168273ffffffffffffffffffffffffffffffffffffffff16036127c25760006040517f64a0ae920000000000000000000000000000000000000000000000000000000081526004016127b99190612acb565b60405180910390fd5b60006127d0838360006118ab565b9050600073ffffffffffffffffffffffffffffffffffffffff168173ffffffffffffffffffffffffffffffffffffffff16146128445760006040517f73c6ac6e00000000000000000000000000000000000000000000000000000000815260040161283b9190612acb565b60405180910390fd5b505050565b50805461285590612fd3565b6000825580601f106128675750612886565b601f0160209004906000526020600020908101906128859190612889565b5b50565b5b808211156128a257600081600090555060010161288a565b5090565b6000604051905090565b600080fd5b600080fd5b60007fffffffff0000000000000000000000000000000000000000000000000000000082169050919050565b6128ef816128ba565b81146128fa57600080fd5b50565b60008135905061290c816128e6565b92915050565b600060208284031215612928576129276128b0565b5b6000612936848285016128fd565b91505092915050565b60008115159050919050565b6129548161293f565b82525050565b600060208201905061296f600083018461294b565b92915050565b600081519050919050565b600082825260208201905092915050565b60005b838110156129af578082015181840152602081019050612994565b60008484015250505050565b6000601f19601f8301169050919050565b60006129d782612975565b6129e18185612980565b93506129f1818560208601612991565b6129fa816129bb565b840191505092915050565b60006020820190508181036000830152612a1f81846129cc565b905092915050565b6000819050919050565b612a3a81612a27565b8114612a4557600080fd5b50565b600081359050612a5781612a31565b92915050565b600060208284031215612a7357612a726128b0565b5b6000612a8184828501612a48565b91505092915050565b600073ffffffffffffffffffffffffffffffffffffffff82169050919050565b6000612ab582612a8a565b9050919050565b612ac581612aaa565b82525050565b6000602082019050612ae06000830184612abc565b92915050565b612aef81612aaa565b8114612afa57600080fd5b50565b600081359050612b0c81612ae6565b92915050565b60008060408385031215612b2957612b286128b0565b5b6000612b3785828601612afd565b9250506020612b4885828601612a48565b9150509250929050565b600060208284031215612b6857612b676128b0565b5b6000612b7684828501612afd565b91505092915050565b612b8881612a27565b82525050565b600060a0820190508181036000830152612ba881886129cc565b9050612bb76020830187612b7f565b612bc46040830186612b7f565b612bd16060830185612abc565b612bde6080830184612b7f565b9695505050505050565b6000602082019050612bfd6000830184612b7f565b92915050565b600080600060608486031215612c1c57612c1b6128b0565b5b6000612c2a86828701612afd565b9350506020612c3b86828701612afd565b9250506040612c4c86828701612a48565b9150509250925092565b612c5f8161293f565b8114612c6a57600080fd5b50565b600081359050612c7c81612c56565b92915050565b60008060408385031215612c9957612c986128b0565b5b6000612ca785828601612afd565b9250506020612cb885828601612c6d565b9150509250929050565b600080fd5b600080fd5b7f4e487b7100000000000000000000000000000000000000000000000000000000600052604160045260246000fd5b612d04826129bb565b810181811067ffffffffffffffff82111715612d2357612d22612ccc565b5b80604052505050565b6000612d366128a6565b9050612d428282612cfb565b919050565b600067ffffffffffffffff821115612d6257612d61612ccc565b5b612d6b826129bb565b9050602081019050919050565b82818337600083830152505050565b6000612d9a612d9584612d47565b612d2c565b905082815260208101848484011115612db657612db5612cc7565b5b612dc1848285612d78565b509392505050565b600082601f830112612dde57612ddd612cc2565b5b8135612dee848260208601612d87565b91505092915050565b60008060008060808587031215612e1157612e106128b0565b5b6000612e1f87828801612afd565b9450506020612e3087828801612afd565b9350506040612e4187828801612a48565b925050606085013567ffffffffffffffff811115612e6257612e616128b5565b5b612e6e87828801612dc9565b91505092959194509250565b60008060408385031215612e9157612e906128b0565b5b6000612e9f85828601612afd565b9250506020612eb085828601612afd565b9150509250929050565b600067ffffffffffffffff821115612ed557612ed4612ccc565b5b612ede826129bb565b9050602081019050919050565b6000612efe612ef984612eba565b612d2c565b905082815260208101848484011115612f1a57612f19612cc7565b5b612f25848285612d78565b509392505050565b600082601f830112612f4257612f41612cc2565b5b8135612f52848260208601612eeb565b91505092915050565b600060208284031215612f7157612f706128b0565b5b600082013567ffffffffffffffff811115612f8f57612f8e6128b5565b5b612f9b84828501612f2d565b91505092915050565b7f4e487b7100000000000000000000000000000000000000000000000000000000600052602260045260246000fd5b60006002820490506001821680612feb57607f821691505b602082108103612ffe57612ffd612fa4565b5b50919050565b7f596f757220676f7463686920686173206e6f20656e6572677900000000000000600082015250565b600061303a601983612980565b915061304582613004565b602082019050919050565b600060208201905081810360008301526130698161302d565b9050919050565b7f4e487b7100000000000000000000000000000000000000000000000000000000600052601160045260246000fd5b60006130aa82612a27565b91507fffffffffffffffffffffffffffffffffffffffffffffffffffffffffffffffff82036130dc576130db613070565b5b600182019050919050565b60006130f282612a27565b91506000820361310557613104613070565b5b600182039050919050565b60006060820190506131256000830186612abc565b6131326020830185612b7f565b61313f6040830184612abc565b949350505050565b600061315282612a27565b915061315d83612a27565b925082820390508181111561317557613174613070565b5b92915050565b600081905092915050565b7f4e616d653a200000000000000000000000000000000000000000000000000000600082015250565b60006131bc60068361317b565b91506131c782613186565b600682019050919050565b60008190508160005260206000209050919050565b600081546131f481612fd3565b6131fe818661317b565b94506001821660008114613219576001811461322e57613261565b60ff1983168652811515820286019350613261565b613237856131d2565b60005b838110156132595781548189015260018201915060208101905061323a565b838801955050505b50505092915050565b7f0a4d6f6f643a2000000000000000000000000000000000000000000000000000600082015250565b60006132a060078361317b565b91506132ab8261326a565b600782019050919050565b60006132c182612975565b6132cb818561317b565b93506132db818560208601612991565b80840191505092915050565b7f0a456e657267793a200000000000000000000000000000000000000000000000600082015250565b600061331d60098361317b565b9150613328826132e7565b600982019050919050565b600061333e826131af565b915061334a82866131e7565b915061335582613293565b915061336182856132b6565b915061336c82613310565b915061337882846132b6565b9150819050949350505050565b600061339082612a27565b915061339b83612a27565b92508282019050808211156133b3576133b2613070565b5b92915050565b7f426f696c6572476f7463686920646f6573206e6f742065786973742e00000000600082015250565b60006133ef601c83612980565b91506133fa826133b9565b602082019050919050565b6000602082019050818103600083015261341e816133e2565b9050919050565b7f43616c6c6572206973206e6f7420746865206f776e65722e0000000000000000600082015250565b600061345b601883612980565b915061346682613425565b602082019050919050565b6000602082019050818103600083015261348a8161344e565b9050919050565b7f596f7520646f206e6f74206f776e206120426f696c6572476f74636869000000600082015250565b60006134c7601d83612980565b91506134d282613491565b602082019050919050565b600060208201905081810360008301526134f6816134ba565b9050919050565b7f4e616d652073686f756c64206e6f7420626520656d7074790000000000000000600082015250565b6000613533601883612980565b915061353e826134fd565b602082019050919050565b6000602082019050818103600083015261356281613526565b9050919050565b7f596f7520616c72656164792068617665206120676f7463686900000000000000600082015250565b600061359f601983612980565b91506135aa82613569565b602082019050919050565b600060208201905081810360008301526135ce81613592565b9050919050565b60006020601f8301049050919050565b600082821b905092915050565b6000600883026136227fffffffffffffffffffffffffffffffffffffffffffffffffffffffffffffffff826135e5565b61362c86836135e5565b95508019841693508086168417925050509392505050565b6000819050919050565b600061366961366461365f84612a27565b613644565b612a27565b9050919050565b6000819050919050565b6136838361364e565b61369761368f82613670565b8484546135f2565b825550505050565b600090565b6136ac61369f565b6136b781848461367a565b505050565b5b818110156136db576136d06000826136a4565b6001810190506136bd565b5050565b601f821115613720576136f1816131d2565b6136fa846135d5565b81016020851015613709578190505b61371d613715856135d5565b8301826136bc565b50505b505050565b600082821c905092915050565b600061374360001984600802613725565b1980831691505092915050565b600061375c8383613732565b9150826002028217905092915050565b61377582612975565b67ffffffffffffffff81111561378e5761378d612ccc565b5b6137988254612fd3565b6137a38282856136df565b600060209050601f8311600181146137d657600084156137c4578287015190505b6137ce8582613750565b865550613836565b601f1984166137e4866131d2565b60005b8281101561380c578489015182556001820191506020850194506020810190506137e7565b868310156138295784890151613825601f891682613732565b8355505b6001600288020188555050505b505050505050565b600061384a82856132b6565b915061385682846132b6565b91508190509392505050565b7f4e487b7100000000000000000000000000000000000000000000000000000000600052601260045260246000fd5b600061389c82612a27565b91506138a783612a27565b9250826138b7576138b6613862565b5b828204905092915050565b60006138cd82612a27565b91506138d883612a27565b9250826138e8576138e7613862565b5b828206905092915050565b7f4e487b7100000000000000000000000000000000000000000000000000000000600052603260045260246000fd5b7f4f776e657220646f6573206e6f742068617665206120426f696c6572476f746360008201527f6869000000000000000000000000000000000000000000000000000000000000602082015250565b600061397e602283612980565b915061398982613922565b604082019050919050565b600060208201905081810360008301526139ad81613971565b9050919050565b7f546f6b656e204944206e6f7420666f756e640000000000000000000000000000600082015250565b60006139ea601283612980565b91506139f5826139b4565b602082019050919050565b60006020820190508181036000830152613a19816139dd565b9050919050565b600081519050919050565b600082825260208201905092915050565b6000613a4782613a20565b613a518185613a2b565b9350613a61818560208601612991565b613a6a816129bb565b840191505092915050565b6000608082019050613a8a6000830187612abc565b613a976020830186612abc565b613aa46040830185612b7f565b8181036060830152613ab68184613a3c565b905095945050505050565b600081519050613ad0816128e6565b92915050565b600060208284031215613aec57613aeb6128b0565b5b6000613afa84828501613ac1565b91505092915050565b6000604082019050613b186000830185612abc565b613b256020830184612b7f565b939250505056fea2646970667358221220ac9652f0e2d98d6a15de0d32e365fb26645ce390302346379dd64e53e4fe117464736f6c63430008140033",
  "linkReferences": {},
  "deployedLinkReferences": {}
}