{
  "_format": "hh-sol-artifact-1",
  "contractName": "boilerGotchi",
  "sourceName": "Contracts/initalize.sol",
  "abi": [
    {
      "inputs": [],
      "stateMutability": "nonpayable",
      "type": "constructor"
    },
    {
      "inputs": [
        {
          "internalType": "address",
          "name": "sender",
          "type": "address"
        },
        {
          "internalType": "uint256",
          "name": "tokenId",
          "type": "uint256"
        },
        {
          "internalType": "address",
          "name": "owner",
          "type": "address"
        }
      ],
      "name": "ERC721IncorrectOwner",
      "type": "error"
    },
    {
      "inputs": [
        {
          "internalType": "address",
          "name": "operator",
          "type": "address"
        },
        {
          "internalType": "uint256",
          "name": "tokenId",
          "type": "uint256"
        }
      ],
      "name": "ERC721InsufficientApproval",
      "type": "error"
    },
    {
      "inputs": [
        {
          "internalType": "address",
          "name": "approver",
          "type": "address"
        }
      ],
      "name": "ERC721InvalidApprover",
      "type": "error"
    },
    {
      "inputs": [
        {
          "internalType": "address",
          "name": "operator",
          "type": "address"
        }
      ],
      "name": "ERC721InvalidOperator",
      "type": "error"
    },
    {
      "inputs": [
        {
          "internalType": "address",
          "name": "owner",
          "type": "address"
        }
      ],
      "name": "ERC721InvalidOwner",
      "type": "error"
    },
    {
      "inputs": [
        {
          "internalType": "address",
          "name": "receiver",
          "type": "address"
        }
      ],
      "name": "ERC721InvalidReceiver",
      "type": "error"
    },
    {
      "inputs": [
        {
          "internalType": "address",
          "name": "sender",
          "type": "address"
        }
      ],
      "name": "ERC721InvalidSender",
      "type": "error"
    },
    {
      "inputs": [
        {
          "internalType": "uint256",
          "name": "tokenId",
          "type": "uint256"
        }
      ],
      "name": "ERC721NonexistentToken",
      "type": "error"
    },
    {
      "anonymous": false,
      "inputs": [
        {
          "indexed": true,
          "internalType": "address",
          "name": "owner",
          "type": "address"
        },
        {
          "indexed": true,
          "internalType": "address",
          "name": "approved",
          "type": "address"
        },
        {
          "indexed": true,
          "internalType": "uint256",
          "name": "tokenId",
          "type": "uint256"
        }
      ],
      "name": "Approval",
      "type": "event"
    },
    {
      "anonymous": false,
      "inputs": [
        {
          "indexed": true,
          "internalType": "address",
          "name": "owner",
          "type": "address"
        },
        {
          "indexed": true,
          "internalType": "address",
          "name": "operator",
          "type": "address"
        },
        {
          "indexed": false,
          "internalType": "bool",
          "name": "approved",
          "type": "bool"
        }
      ],
      "name": "ApprovalForAll",
      "type": "event"
    },
    {
      "anonymous": false,
      "inputs": [
        {
          "indexed": true,
          "internalType": "address",
          "name": "from",
          "type": "address"
        },
        {
          "indexed": true,
          "internalType": "address",
          "name": "to",
          "type": "address"
        },
        {
          "indexed": true,
          "internalType": "uint256",
          "name": "tokenId",
          "type": "uint256"
        }
      ],
      "name": "Transfer",
      "type": "event"
    },
    {
      "inputs": [
        {
          "internalType": "address",
          "name": "owner",
          "type": "address"
        }
      ],
      "name": "_getGotchiTokenId",
      "outputs": [
        {
          "internalType": "uint256",
          "name": "",
          "type": "uint256"
        }
      ],
      "stateMutability": "view",
      "type": "function"
    },
    {
      "inputs": [
        {
          "internalType": "address",
          "name": "to",
          "type": "address"
        },
        {
          "internalType": "uint256",
          "name": "tokenId",
          "type": "uint256"
        }
      ],
      "name": "approve",
      "outputs": [],
      "stateMutability": "nonpayable",
      "type": "function"
    },
    {
      "inputs": [
        {
          "internalType": "address",
          "name": "owner",
          "type": "address"
        }
      ],
      "name": "balanceOf",
      "outputs": [
        {
          "internalType": "uint256",
          "name": "",
          "type": "uint256"
        }
      ],
      "stateMutability": "view",
      "type": "function"
    },
    {
      "inputs": [],
      "name": "checkStatus",
      "outputs": [
        {
          "internalType": "string",
          "name": "",
          "type": "string"
        }
      ],
      "stateMutability": "view",
      "type": "function"
    },
    {
      "inputs": [],
      "name": "checkSuicidal",
      "outputs": [
        {
          "internalType": "bool",
          "name": "",
          "type": "bool"
        }
      ],
      "stateMutability": "view",
      "type": "function"
    },
    {
      "inputs": [
        {
          "internalType": "string",
          "name": "name",
          "type": "string"
        }
      ],
      "name": "createGotchi",
      "outputs": [],
      "stateMutability": "nonpayable",
      "type": "function"
    },
    {
      "inputs": [],
      "name": "deleteGotchi",
      "outputs": [],
      "stateMutability": "nonpayable",
      "type": "function"
    },
    {
      "inputs": [],
      "name": "feedBoilerGotchi",
      "outputs": [],
      "stateMutability": "nonpayable",
      "type": "function"
    },
    {
      "inputs": [
        {
          "internalType": "uint256",
          "name": "tokenId",
          "type": "uint256"
        }
      ],
      "name": "getApproved",
      "outputs": [
        {
          "internalType": "address",
          "name": "",
          "type": "address"
        }
      ],
      "stateMutability": "view",
      "type": "function"
    },
    {
      "inputs": [],
      "name": "getBoilergotchiEnergyPoints",
      "outputs": [
        {
          "internalType": "uint256",
          "name": "",
          "type": "uint256"
        }
      ],
      "stateMutability": "view",
      "type": "function"
    },
    {
      "inputs": [],
      "name": "getBoilergotchiName",
      "outputs": [
        {
          "internalType": "string",
          "name": "",
          "type": "string"
        }
      ],
      "stateMutability": "view",
      "type": "function"
    },
    {
      "inputs": [],
      "name": "getMood",
      "outputs": [
        {
          "internalType": "string",
          "name": "",
          "type": "string"
        }
      ],
      "stateMutability": "view",
      "type": "function"
    },
    {
      "inputs": [
        {
          "internalType": "address",
          "name": "",
          "type": "address"
        }
      ],
      "name": "gotchis",
      "outputs": [
        {
          "internalType": "string",
          "name": "name",
          "type": "string"
        },
        {
          "internalType": "uint256",
          "name": "mood",
          "type": "uint256"
        },
        {
          "internalType": "uint256",
          "name": "energy",
          "type": "uint256"
        },
        {
          "internalType": "address",
          "name": "owner",
          "type": "address"
        },
        {
          "internalType": "uint256",
          "name": "lastPlayed",
          "type": "uint256"
        }
      ],
      "stateMutability": "view",
      "type": "function"
    },
    {
      "inputs": [
        {
          "internalType": "address",
          "name": "owner",
          "type": "address"
        },
        {
          "internalType": "address",
          "name": "operator",
          "type": "address"
        }
      ],
      "name": "isApprovedForAll",
      "outputs": [
        {
          "internalType": "bool",
          "name": "",
          "type": "bool"
        }
      ],
      "stateMutability": "view",
      "type": "function"
    },
    {
      "inputs": [],
      "name": "name",
      "outputs": [
        {
          "internalType": "string",
          "name": "",
          "type": "string"
        }
      ],
      "stateMutability": "view",
      "type": "function"
    },
    {
      "inputs": [],
      "name": "nextID",
      "outputs": [
        {
          "internalType": "uint256",
          "name": "",
          "type": "uint256"
        }
      ],
      "stateMutability": "view",
      "type": "function"
    },
    {
      "inputs": [
        {
          "internalType": "uint256",
          "name": "tokenId",
          "type": "uint256"
        }
      ],
      "name": "ownerOf",
      "outputs": [
        {
          "internalType": "address",
          "name": "",
          "type": "address"
        }
      ],
      "stateMutability": "view",
      "type": "function"
    },
    {
      "inputs": [],
      "name": "playBoilerGotchi",
      "outputs": [],
      "stateMutability": "nonpayable",
      "type": "function"
    },
    {
      "inputs": [
        {
          "internalType": "address",
          "name": "from",
          "type": "address"
        },
        {
          "internalType": "address",
          "name": "to",
          "type": "address"
        },
        {
          "internalType": "uint256",
          "name": "tokenId",
          "type": "uint256"
        }
      ],
      "name": "safeTransferFrom",
      "outputs": [],
      "stateMutability": "nonpayable",
      "type": "function"
    },
    {
      "inputs": [
        {
          "internalType": "address",
          "name": "from",
          "type": "address"
        },
        {
          "internalType": "address",
          "name": "to",
          "type": "address"
        },
        {
          "internalType": "uint256",
          "name": "tokenId",
          "type": "uint256"
        },
        {
          "internalType": "bytes",
          "name": "data",
          "type": "bytes"
        }
      ],
      "name": "safeTransferFrom",
      "outputs": [],
      "stateMutability": "nonpayable",
      "type": "function"
    },
    {
      "inputs": [
        {
          "internalType": "address",
          "name": "operator",
          "type": "address"
        },
        {
          "internalType": "bool",
          "name": "approved",
          "type": "bool"
        }
      ],
      "name": "setApprovalForAll",
      "outputs": [],
      "stateMutability": "nonpayable",
      "type": "function"
    },
    {
      "inputs": [
        {
          "internalType": "uint256",
          "name": "energy",
          "type": "uint256"
        }
      ],
      "name": "setBoilergotchiEnergyPoints",
      "outputs": [],
      "stateMutability": "nonpayable",
      "type": "function"
    },
    {
      "inputs": [
        {
          "internalType": "bytes4",
          "name": "interfaceId",
          "type": "bytes4"
        }
      ],
      "name": "supportsInterface",
      "outputs": [
        {
          "internalType": "bool",
          "name": "",
          "type": "bool"
        }
      ],
      "stateMutability": "view",
      "type": "function"
    },
    {
      "inputs": [],
      "name": "symbol",
      "outputs": [
        {
          "internalType": "string",
          "name": "",
          "type": "string"
        }
      ],
      "stateMutability": "view",
      "type": "function"
    },
    {
      "inputs": [
        {
          "internalType": "uint256",
          "name": "tokenId",
          "type": "uint256"
        }
      ],
      "name": "tokenURI",
      "outputs": [
        {
          "internalType": "string",
          "name": "",
          "type": "string"
        }
      ],
      "stateMutability": "view",
      "type": "function"
    },
    {
      "inputs": [
        {
          "internalType": "address",
          "name": "from",
          "type": "address"
        },
        {
          "internalType": "address",
          "name": "to",
          "type": "address"
        }
      ],
      "name": "transfer",
      "outputs": [],
      "stateMutability": "nonpayable",
      "type": "function"
    },
    {
      "inputs": [
        {
          "internalType": "address",
          "name": "from",
          "type": "address"
        },
        {
          "internalType": "address",
          "name": "to",
          "type": "address"
        },
        {
          "internalType": "uint256",
          "name": "tokenId",
          "type": "uint256"
        }
      ],
      "name": "transferFrom",
      "outputs": [],
      "stateMutability": "nonpayable",
      "type": "function"
    }
  ],
  "bytecode": "0x608060405260006008553480156200001657600080fd5b506040518060400160405280600c81526020017f426f696c6572476f7463686900000000000000000000000000000000000000008152506040518060400160405280600281526020017f4247000000000000000000000000000000000000000000000000000000000000815250816000908162000094919062000329565b508060019081620000a6919062000329565b50505062000410565b600081519050919050565b7f4e487b7100000000000000000000000000000000000000000000000000000000600052604160045260246000fd5b7f4e487b7100000000000000000000000000000000000000000000000000000000600052602260045260246000fd5b600060028204905060018216806200013157607f821691505b602082108103620001475762000146620000e9565b5b50919050565b60008190508160005260206000209050919050565b60006020601f8301049050919050565b600082821b905092915050565b600060088302620001b17fffffffffffffffffffffffffffffffffffffffffffffffffffffffffffffffff8262000172565b620001bd868362000172565b95508019841693508086168417925050509392505050565b6000819050919050565b6000819050919050565b60006200020a62000204620001fe84620001d5565b620001df565b620001d5565b9050919050565b6000819050919050565b6200022683620001e9565b6200023e620002358262000211565b8484546200017f565b825550505050565b600090565b6200025562000246565b620002628184846200021b565b505050565b5b818110156200028a576200027e6000826200024b565b60018101905062000268565b5050565b601f821115620002d957620002a3816200014d565b620002ae8462000162565b81016020851015620002be578190505b620002d6620002cd8562000162565b83018262000267565b50505b505050565b600082821c905092915050565b6000620002fe60001984600802620002de565b1980831691505092915050565b6000620003198383620002eb565b9150826002028217905092915050565b6200033482620000af565b67ffffffffffffffff81111562000350576200034f620000ba565b5b6200035c825462000118565b620003698282856200028e565b600060209050601f831160018114620003a157600084156200038c578287015190505b6200039885826200030b565b86555062000408565b601f198416620003b1866200014d565b60005b82811015620003db57848901518255600182019150602085019450602081019050620003b4565b86831015620003fb5784890151620003f7601f891682620002eb565b8355505b6001600288020188555050505b505050505050565b613d0f80620004206000396000f3fe608060405234801561001057600080fd5b50600436106101a95760003560e01c80635f0af2c1116100f9578063ab6720e511610097578063bd11ccd911610071578063bd11ccd914610486578063c016063d146104a2578063c87b56dd146104c0578063e985e9c5146104f0576101a9565b8063ab6720e514610444578063b88d4fde1461044e578063ba45b0b81461046a576101a9565b806385e8f4d3116100d357806385e8f4d3146103d057806395d89b41146103ec5780639d0c13971461040a578063a22cb46514610428576101a9565b80635f0af2c1146103405780636352211e1461037057806370a08231146103a0576101a9565b80631e96917d116101665780633b7104f2116101405780633b7104f2146102de57806342842e0e146102fc5780634ce89ce41461031857806350c4243a14610322576101a9565b80631e96917d1461028657806323b872dd146102a4578063380df28c146102c0576101a9565b806301ffc9a7146101ae57806306fdde03146101de5780630759b783146101fc578063081812fc14610206578063095ea7b3146102365780630fe9c9b214610252575b600080fd5b6101c860048036038101906101c39190612a2d565b610520565b6040516101d59190612a75565b60405180910390f35b6101e6610602565b6040516101f39190612b20565b60405180910390f35b610204610694565b005b610220600480360381019061021b9190612b78565b61085e565b60405161022d9190612be6565b60405180910390f35b610250600480360381019061024b9190612c2d565b61087a565b005b61026c60048036038101906102679190612c6d565b610890565b60405161027d959493929190612ca9565b60405180910390f35b61028e61096e565b60405161029b9190612d03565b60405180910390f35b6102be60048036038101906102b99190612d1e565b610974565b005b6102c8610a76565b6040516102d59190612a75565b60405180910390f35b6102e6610ad6565b6040516102f39190612b20565b60405180910390f35b61031660048036038101906103119190612d1e565b610b61565b005b610320610b81565b005b61032a610cce565b6040516103379190612b20565b60405180910390f35b61035a60048036038101906103559190612c6d565b610e6e565b6040516103679190612d03565b60405180910390f35b61038a60048036038101906103859190612b78565b610ff4565b6040516103979190612be6565b60405180910390f35b6103ba60048036038101906103b59190612c6d565b611006565b6040516103c79190612d03565b60405180910390f35b6103ea60048036038101906103e59190612b78565b6110c0565b005b6103f46111e0565b6040516104019190612b20565b60405180910390f35b610412611272565b60405161041f9190612b20565b60405180910390f35b610442600480360381019061043d9190612d9d565b6113e5565b005b61044c6113fb565b005b61046860048036038101906104639190612f12565b611575565b005b610484600480360381019061047f9190612f95565b611592565b005b6104a0600480360381019061049b9190613076565b61167f565b005b6104aa6118b7565b6040516104b79190612d03565b60405180910390f35b6104da60048036038101906104d59190612b78565b611906565b6040516104e79190612b20565b60405180910390f35b61050a60048036038101906105059190612f95565b61196f565b6040516105179190612a75565b60405180910390f35b60007f80ac58cd000000000000000000000000000000000000000000000000000000007bffffffffffffffffffffffffffffffffffffffffffffffffffffffff1916827bffffffffffffffffffffffffffffffffffffffffffffffffffffffff191614806105eb57507f5b5e139f000000000000000000000000000000000000000000000000000000007bffffffffffffffffffffffffffffffffffffffffffffffffffffffff1916827bffffffffffffffffffffffffffffffffffffffffffffffffffffffff1916145b806105fb57506105fa82611a03565b5b9050919050565b606060008054610611906130ee565b80601f016020809104026020016040519081016040528092919081815260200182805461063d906130ee565b801561068a5780601f1061065f5761010080835404028352916020019161068a565b820191906000526020600020905b81548152906001019060200180831161066d57829003601f168201915b5050505050905090565b6000600660003373ffffffffffffffffffffffffffffffffffffffff1673ffffffffffffffffffffffffffffffffffffffff1681526020019081526020016000206002015403610719576040517f08c379a00000000000000000000000000000000000000000000000000000000081526004016107109061316b565b60405180910390fd5b61016d600660003373ffffffffffffffffffffffffffffffffffffffff1673ffffffffffffffffffffffffffffffffffffffff16815260200190815260200160002060010154146107bd57600660003373ffffffffffffffffffffffffffffffffffffffff1673ffffffffffffffffffffffffffffffffffffffff16815260200190815260200160002060010160008154809291906107b7906131ba565b91905055505b600660003373ffffffffffffffffffffffffffffffffffffffff1673ffffffffffffffffffffffffffffffffffffffff168152602001908152602001600020600201600081548092919061081090613202565b919050555042600660003373ffffffffffffffffffffffffffffffffffffffff1673ffffffffffffffffffffffffffffffffffffffff16815260200190815260200160002060040181905550565b600061086982611a6d565b5061087382611af5565b9050919050565b61088c8282610887611b32565b611b3a565b5050565b60066020528060005260406000206000915090508060000180546108b3906130ee565b80601f01602080910402602001604051908101604052809291908181526020018280546108df906130ee565b801561092c5780601f106109015761010080835404028352916020019161092c565b820191906000526020600020905b81548152906001019060200180831161090f57829003601f168201915b5050505050908060010154908060020154908060030160009054906101000a900473ffffffffffffffffffffffffffffffffffffffff16908060040154905085565b60085481565b600073ffffffffffffffffffffffffffffffffffffffff168273ffffffffffffffffffffffffffffffffffffffff16036109e65760006040517f64a0ae920000000000000000000000000000000000000000000000000000000081526004016109dd9190612be6565b60405180910390fd5b60006109fa83836109f5611b32565b611b4c565b90508373ffffffffffffffffffffffffffffffffffffffff168173ffffffffffffffffffffffffffffffffffffffff1614610a70578382826040517f64283d7b000000000000000000000000000000000000000000000000000000008152600401610a679392919061322b565b60405180910390fd5b50505050565b600080600660003373ffffffffffffffffffffffffffffffffffffffff1673ffffffffffffffffffffffffffffffffffffffff16815260200190815260200160002090506301e13380816004015442610acf9190613262565b1191505090565b60606000600660003373ffffffffffffffffffffffffffffffffffffffff1673ffffffffffffffffffffffffffffffffffffffff16815260200190815260200160002090506000610b25611272565b90508160000181610b398460020154611d66565b604051602001610b4b9392919061344e565b6040516020818303038152906040529250505090565b610b7c83838360405180602001604052806000815250611575565b505050565b6064600660003373ffffffffffffffffffffffffffffffffffffffff1673ffffffffffffffffffffffffffffffffffffffff1681526020019081526020016000206002015414610c2657600a600660003373ffffffffffffffffffffffffffffffffffffffff1673ffffffffffffffffffffffffffffffffffffffff1681526020019081526020016000206002016000828254610c1e91906134a0565b925050819055505b61015e600660003373ffffffffffffffffffffffffffffffffffffffff1673ffffffffffffffffffffffffffffffffffffffff1681526020019081526020016000206001015414610ccc576023600660003373ffffffffffffffffffffffffffffffffffffffff1673ffffffffffffffffffffffffffffffffffffffff1681526020019081526020016000206001016000828254610cc491906134a0565b925050819055505b565b6060600073ffffffffffffffffffffffffffffffffffffffff16600660003373ffffffffffffffffffffffffffffffffffffffff1673ffffffffffffffffffffffffffffffffffffffff16815260200190815260200160002060030160009054906101000a900473ffffffffffffffffffffffffffffffffffffffff1673ffffffffffffffffffffffffffffffffffffffff1603610da1576040517f08c379a0000000000000000000000000000000000000000000000000000000008152600401610d9890613520565b60405180910390fd5b600760003373ffffffffffffffffffffffffffffffffffffffff1673ffffffffffffffffffffffffffffffffffffffff1681526020019081526020016000208054610deb906130ee565b80601f0160208091040260200160405190810160405280929190818152602001828054610e17906130ee565b8015610e645780601f10610e3957610100808354040283529160200191610e64565b820191906000526020600020905b815481529060010190602001808311610e4757829003601f168201915b5050505050905090565b60008173ffffffffffffffffffffffffffffffffffffffff16600660008473ffffffffffffffffffffffffffffffffffffffff1673ffffffffffffffffffffffffffffffffffffffff16815260200190815260200160002060030160009054906101000a900473ffffffffffffffffffffffffffffffffffffffff1673ffffffffffffffffffffffffffffffffffffffff1614610f40576040517f08c379a0000000000000000000000000000000000000000000000000000000008152600401610f37906135b2565b60405180910390fd5b600080600190505b6008548111610fa7578373ffffffffffffffffffffffffffffffffffffffff16610f7182610ff4565b73ffffffffffffffffffffffffffffffffffffffff1603610f9457809150610fa7565b8080610f9f906131ba565b915050610f48565b5060008103610feb576040517f08c379a0000000000000000000000000000000000000000000000000000000008152600401610fe29061361e565b60405180910390fd5b80915050919050565b6000610fff82611a6d565b9050919050565b60008073ffffffffffffffffffffffffffffffffffffffff168273ffffffffffffffffffffffffffffffffffffffff16036110795760006040517f89c62b640000000000000000000000000000000000000000000000000000000081526004016110709190612be6565b60405180910390fd5b600360008373ffffffffffffffffffffffffffffffffffffffff1673ffffffffffffffffffffffffffffffffffffffff168152602001908152602001600020549050919050565b3373ffffffffffffffffffffffffffffffffffffffff16600660003373ffffffffffffffffffffffffffffffffffffffff1673ffffffffffffffffffffffffffffffffffffffff16815260200190815260200160002060030160009054906101000a900473ffffffffffffffffffffffffffffffffffffffff1673ffffffffffffffffffffffffffffffffffffffff1614611190576040517f08c379a00000000000000000000000000000000000000000000000000000000081526004016111879061368a565b60405180910390fd5b6000600660003373ffffffffffffffffffffffffffffffffffffffff1673ffffffffffffffffffffffffffffffffffffffff16815260200190815260200160002090508181600201819055505050565b6060600180546111ef906130ee565b80601f016020809104026020016040519081016040528092919081815260200182805461121b906130ee565b80156112685780601f1061123d57610100808354040283529160200191611268565b820191906000526020600020905b81548152906001019060200180831161124b57829003601f168201915b5050505050905090565b60606000600660003373ffffffffffffffffffffffffffffffffffffffff1673ffffffffffffffffffffffffffffffffffffffff16815260200190815260200160002090506112bf610a76565b15611302576040518060400160405280600881526020017f537569636964616c0000000000000000000000000000000000000000000000008152509150506113e2565b60c881600101541061134c576040518060400160405280600581526020017f48617070790000000000000000000000000000000000000000000000000000008152509150506113e2565b6064816001015410611396576040518060400160405280600581526020017f4368696c6c0000000000000000000000000000000000000000000000000000008152509150506113e2565b60018160010154106113e0576040518060400160405280600381526020017f53616400000000000000000000000000000000000000000000000000000000008152509150506113e2565b505b90565b6113f76113f0611b32565b8383611ec6565b5050565b3373ffffffffffffffffffffffffffffffffffffffff16600660003373ffffffffffffffffffffffffffffffffffffffff1673ffffffffffffffffffffffffffffffffffffffff16815260200190815260200160002060030160009054906101000a900473ffffffffffffffffffffffffffffffffffffffff1673ffffffffffffffffffffffffffffffffffffffff16146114cb576040517f08c379a00000000000000000000000000000000000000000000000000000000081526004016114c2906136f6565b60405180910390fd5b60006114d633610e6e565b90506114e181612035565b600660003373ffffffffffffffffffffffffffffffffffffffff1673ffffffffffffffffffffffffffffffffffffffff168152602001908152602001600020600080820160006115319190612964565b600182016000905560028201600090556003820160006101000a81549073ffffffffffffffffffffffffffffffffffffffff02191690556004820160009055505050565b611580848484610974565b61158c848484846120bb565b50505050565b8173ffffffffffffffffffffffffffffffffffffffff16600660003373ffffffffffffffffffffffffffffffffffffffff1673ffffffffffffffffffffffffffffffffffffffff16815260200190815260200160002060030160009054906101000a900473ffffffffffffffffffffffffffffffffffffffff1673ffffffffffffffffffffffffffffffffffffffff1614611662576040517f08c379a000000000000000000000000000000000000000000000000000000000815260040161165990613788565b60405180910390fd5b600061166d83610e6e565b905061167a838383610974565b505050565b60008151116116c3576040517f08c379a00000000000000000000000000000000000000000000000000000000081526004016116ba906137f4565b60405180910390fd5b600073ffffffffffffffffffffffffffffffffffffffff16600660003373ffffffffffffffffffffffffffffffffffffffff1673ffffffffffffffffffffffffffffffffffffffff16815260200190815260200160002060030160009054906101000a900473ffffffffffffffffffffffffffffffffffffffff1673ffffffffffffffffffffffffffffffffffffffff1614611794576040517f08c379a000000000000000000000000000000000000000000000000000000000815260040161178b90613860565b60405180910390fd5b60006008600081546117a5906131ba565b91905081905590506117b73382612272565b6040518060a0016040528083815260200160648152602001606481526020013373ffffffffffffffffffffffffffffffffffffffff16815260200142815250600660003373ffffffffffffffffffffffffffffffffffffffff1673ffffffffffffffffffffffffffffffffffffffff168152602001908152602001600020600082015181600001908161184a9190613a17565b50602082015181600101556040820151816002015560608201518160030160006101000a81548173ffffffffffffffffffffffffffffffffffffffff021916908373ffffffffffffffffffffffffffffffffffffffff160217905550608082015181600401559050505050565b600080600660003373ffffffffffffffffffffffffffffffffffffffff1673ffffffffffffffffffffffffffffffffffffffff1681526020019081526020016000209050806002015491505090565b606061191182611a6d565b50600061191c612290565b9050600081511161193c5760405180602001604052806000815250611967565b80611946846122a7565b604051602001611957929190613ae9565b6040516020818303038152906040525b915050919050565b6000600560008473ffffffffffffffffffffffffffffffffffffffff1673ffffffffffffffffffffffffffffffffffffffff16815260200190815260200160002060008373ffffffffffffffffffffffffffffffffffffffff1673ffffffffffffffffffffffffffffffffffffffff16815260200190815260200160002060009054906101000a900460ff16905092915050565b60007f01ffc9a7000000000000000000000000000000000000000000000000000000007bffffffffffffffffffffffffffffffffffffffffffffffffffffffff1916827bffffffffffffffffffffffffffffffffffffffffffffffffffffffff1916149050919050565b600080611a7983612375565b9050600073ffffffffffffffffffffffffffffffffffffffff168173ffffffffffffffffffffffffffffffffffffffff1603611aec57826040517f7e273289000000000000000000000000000000000000000000000000000000008152600401611ae39190612d03565b60405180910390fd5b80915050919050565b60006004600083815260200190815260200160002060009054906101000a900473ffffffffffffffffffffffffffffffffffffffff169050919050565b600033905090565b611b4783838360016123b2565b505050565b600080611b5884612375565b9050600073ffffffffffffffffffffffffffffffffffffffff168373ffffffffffffffffffffffffffffffffffffffff1614611b9a57611b99818486612577565b5b600073ffffffffffffffffffffffffffffffffffffffff168173ffffffffffffffffffffffffffffffffffffffff1614611c2b57611bdc6000856000806123b2565b6001600360008373ffffffffffffffffffffffffffffffffffffffff1673ffffffffffffffffffffffffffffffffffffffff168152602001908152602001600020600082825403925050819055505b600073ffffffffffffffffffffffffffffffffffffffff168573ffffffffffffffffffffffffffffffffffffffff1614611cae576001600360008773ffffffffffffffffffffffffffffffffffffffff1673ffffffffffffffffffffffffffffffffffffffff168152602001908152602001600020600082825401925050819055505b846002600086815260200190815260200160002060006101000a81548173ffffffffffffffffffffffffffffffffffffffff021916908373ffffffffffffffffffffffffffffffffffffffff160217905550838573ffffffffffffffffffffffffffffffffffffffff168273ffffffffffffffffffffffffffffffffffffffff167fddf252ad1be2c89b69c2b068fc378daa952ba7f163c4a11628f55a4df523b3ef60405160405180910390a4809150509392505050565b606060008203611dad576040518060400160405280600181526020017f30000000000000000000000000000000000000000000000000000000000000008152509050611ec1565b600082905060005b60008214611ddf578080611dc8906131ba565b915050600a82611dd89190613b3c565b9150611db5565b60008167ffffffffffffffff811115611dfb57611dfa612de7565b5b6040519080825280601f01601f191660200182016040528015611e2d5781602001600182028036833780820191505090505b5090505b60008514611eba57600182611e469190613262565b9150600a85611e559190613b6d565b6030611e6191906134a0565b60f81b818381518110611e7757611e76613b9e565b5b60200101907effffffffffffffffffffffffffffffffffffffffffffffffffffffffffffff1916908160001a905350600a85611eb39190613b3c565b9450611e31565b8093505050505b919050565b600073ffffffffffffffffffffffffffffffffffffffff168273ffffffffffffffffffffffffffffffffffffffff1603611f3757816040517f5b08ba18000000000000000000000000000000000000000000000000000000008152600401611f2e9190612be6565b60405180910390fd5b80600560008573ffffffffffffffffffffffffffffffffffffffff1673ffffffffffffffffffffffffffffffffffffffff16815260200190815260200160002060008473ffffffffffffffffffffffffffffffffffffffff1673ffffffffffffffffffffffffffffffffffffffff16815260200190815260200160002060006101000a81548160ff0219169083151502179055508173ffffffffffffffffffffffffffffffffffffffff168373ffffffffffffffffffffffffffffffffffffffff167f17307eab39ab6107e8899845ad3d59bd9653f200f220920489ca2b5937696c31836040516120289190612a75565b60405180910390a3505050565b60006120446000836000611b4c565b9050600073ffffffffffffffffffffffffffffffffffffffff168173ffffffffffffffffffffffffffffffffffffffff16036120b757816040517f7e2732890000000000000000000000000000000000000000000000000000000081526004016120ae9190612d03565b60405180910390fd5b5050565b60008373ffffffffffffffffffffffffffffffffffffffff163b111561226c578273ffffffffffffffffffffffffffffffffffffffff1663150b7a026120ff611b32565b8685856040518563ffffffff1660e01b81526004016121219493929190613c22565b6020604051808303816000875af192505050801561215d57506040513d601f19601f8201168201806040525081019061215a9190613c83565b60015b6121e1573d806000811461218d576040519150601f19603f3d011682016040523d82523d6000602084013e612192565b606091505b5060008151036121d957836040517f64a0ae920000000000000000000000000000000000000000000000000000000081526004016121d09190612be6565b60405180910390fd5b805181602001fd5b63150b7a0260e01b7bffffffffffffffffffffffffffffffffffffffffffffffffffffffff1916817bffffffffffffffffffffffffffffffffffffffffffffffffffffffff19161461226a57836040517f64a0ae920000000000000000000000000000000000000000000000000000000081526004016122619190612be6565b60405180910390fd5b505b50505050565b61228c82826040518060200160405280600081525061263b565b5050565b606060405180602001604052806000815250905090565b6060600060016122b684612657565b01905060008167ffffffffffffffff8111156122d5576122d4612de7565b5b6040519080825280601f01601f1916602001820160405280156123075781602001600182028036833780820191505090505b509050600082602001820190505b60011561236a578080600190039150507f3031323334353637383961626364656600000000000000000000000000000000600a86061a8153600a858161235e5761235d613b0d565b5b04945060008503612315575b819350505050919050565b60006002600083815260200190815260200160002060009054906101000a900473ffffffffffffffffffffffffffffffffffffffff169050919050565b80806123eb5750600073ffffffffffffffffffffffffffffffffffffffff168273ffffffffffffffffffffffffffffffffffffffff1614155b1561251f5760006123fb84611a6d565b9050600073ffffffffffffffffffffffffffffffffffffffff168373ffffffffffffffffffffffffffffffffffffffff161415801561246657508273ffffffffffffffffffffffffffffffffffffffff168173ffffffffffffffffffffffffffffffffffffffff1614155b80156124795750612477818461196f565b155b156124bb57826040517fa9fbf51f0000000000000000000000000000000000000000000000000000000081526004016124b29190612be6565b60405180910390fd5b811561251d57838573ffffffffffffffffffffffffffffffffffffffff168273ffffffffffffffffffffffffffffffffffffffff167f8c5be1e5ebec7d5bd14f71427d1e84f3dd0314c0f7b2291e5b200ac8c7c3b92560405160405180910390a45b505b836004600085815260200190815260200160002060006101000a81548173ffffffffffffffffffffffffffffffffffffffff021916908373ffffffffffffffffffffffffffffffffffffffff16021790555050505050565b6125828383836127aa565b61263657600073ffffffffffffffffffffffffffffffffffffffff168373ffffffffffffffffffffffffffffffffffffffff16036125f757806040517f7e2732890000000000000000000000000000000000000000000000000000000081526004016125ee9190612d03565b60405180910390fd5b81816040517f177e802f00000000000000000000000000000000000000000000000000000000815260040161262d929190613cb0565b60405180910390fd5b505050565b612645838361286b565b61265260008484846120bb565b505050565b600080600090507a184f03e93ff9f4daa797ed6e38ed64bf6a1f01000000000000000083106126b5577a184f03e93ff9f4daa797ed6e38ed64bf6a1f01000000000000000083816126ab576126aa613b0d565b5b0492506040810190505b6d04ee2d6d415b85acef810000000083106126f2576d04ee2d6d415b85acef810000000083816126e8576126e7613b0d565b5b0492506020810190505b662386f26fc10000831061272157662386f26fc10000838161271757612716613b0d565b5b0492506010810190505b6305f5e100831061274a576305f5e10083816127405761273f613b0d565b5b0492506008810190505b612710831061276f57612710838161276557612764613b0d565b5b0492506004810190505b60648310612792576064838161278857612787613b0d565b5b0492506002810190505b600a83106127a1576001810190505b80915050919050565b60008073ffffffffffffffffffffffffffffffffffffffff168373ffffffffffffffffffffffffffffffffffffffff161415801561286257508273ffffffffffffffffffffffffffffffffffffffff168473ffffffffffffffffffffffffffffffffffffffff1614806128235750612822848461196f565b5b8061286157508273ffffffffffffffffffffffffffffffffffffffff1661284983611af5565b73ffffffffffffffffffffffffffffffffffffffff16145b5b90509392505050565b600073ffffffffffffffffffffffffffffffffffffffff168273ffffffffffffffffffffffffffffffffffffffff16036128dd5760006040517f64a0ae920000000000000000000000000000000000000000000000000000000081526004016128d49190612be6565b60405180910390fd5b60006128eb83836000611b4c565b9050600073ffffffffffffffffffffffffffffffffffffffff168173ffffffffffffffffffffffffffffffffffffffff161461295f5760006040517f73c6ac6e0000000000000000000000000000000000000000000000000000000081526004016129569190612be6565b60405180910390fd5b505050565b508054612970906130ee565b6000825580601f1061298257506129a1565b601f0160209004906000526020600020908101906129a091906129a4565b5b50565b5b808211156129bd5760008160009055506001016129a5565b5090565b6000604051905090565b600080fd5b600080fd5b60007fffffffff0000000000000000000000000000000000000000000000000000000082169050919050565b612a0a816129d5565b8114612a1557600080fd5b50565b600081359050612a2781612a01565b92915050565b600060208284031215612a4357612a426129cb565b5b6000612a5184828501612a18565b91505092915050565b60008115159050919050565b612a6f81612a5a565b82525050565b6000602082019050612a8a6000830184612a66565b92915050565b600081519050919050565b600082825260208201905092915050565b60005b83811015612aca578082015181840152602081019050612aaf565b60008484015250505050565b6000601f19601f8301169050919050565b6000612af282612a90565b612afc8185612a9b565b9350612b0c818560208601612aac565b612b1581612ad6565b840191505092915050565b60006020820190508181036000830152612b3a8184612ae7565b905092915050565b6000819050919050565b612b5581612b42565b8114612b6057600080fd5b50565b600081359050612b7281612b4c565b92915050565b600060208284031215612b8e57612b8d6129cb565b5b6000612b9c84828501612b63565b91505092915050565b600073ffffffffffffffffffffffffffffffffffffffff82169050919050565b6000612bd082612ba5565b9050919050565b612be081612bc5565b82525050565b6000602082019050612bfb6000830184612bd7565b92915050565b612c0a81612bc5565b8114612c1557600080fd5b50565b600081359050612c2781612c01565b92915050565b60008060408385031215612c4457612c436129cb565b5b6000612c5285828601612c18565b9250506020612c6385828601612b63565b9150509250929050565b600060208284031215612c8357612c826129cb565b5b6000612c9184828501612c18565b91505092915050565b612ca381612b42565b82525050565b600060a0820190508181036000830152612cc38188612ae7565b9050612cd26020830187612c9a565b612cdf6040830186612c9a565b612cec6060830185612bd7565b612cf96080830184612c9a565b9695505050505050565b6000602082019050612d186000830184612c9a565b92915050565b600080600060608486031215612d3757612d366129cb565b5b6000612d4586828701612c18565b9350506020612d5686828701612c18565b9250506040612d6786828701612b63565b9150509250925092565b612d7a81612a5a565b8114612d8557600080fd5b50565b600081359050612d9781612d71565b92915050565b60008060408385031215612db457612db36129cb565b5b6000612dc285828601612c18565b9250506020612dd385828601612d88565b9150509250929050565b600080fd5b600080fd5b7f4e487b7100000000000000000000000000000000000000000000000000000000600052604160045260246000fd5b612e1f82612ad6565b810181811067ffffffffffffffff82111715612e3e57612e3d612de7565b5b80604052505050565b6000612e516129c1565b9050612e5d8282612e16565b919050565b600067ffffffffffffffff821115612e7d57612e7c612de7565b5b612e8682612ad6565b9050602081019050919050565b82818337600083830152505050565b6000612eb5612eb084612e62565b612e47565b905082815260208101848484011115612ed157612ed0612de2565b5b612edc848285612e93565b509392505050565b600082601f830112612ef957612ef8612ddd565b5b8135612f09848260208601612ea2565b91505092915050565b60008060008060808587031215612f2c57612f2b6129cb565b5b6000612f3a87828801612c18565b9450506020612f4b87828801612c18565b9350506040612f5c87828801612b63565b925050606085013567ffffffffffffffff811115612f7d57612f7c6129d0565b5b612f8987828801612ee4565b91505092959194509250565b60008060408385031215612fac57612fab6129cb565b5b6000612fba85828601612c18565b9250506020612fcb85828601612c18565b9150509250929050565b600067ffffffffffffffff821115612ff057612fef612de7565b5b612ff982612ad6565b9050602081019050919050565b600061301961301484612fd5565b612e47565b90508281526020810184848401111561303557613034612de2565b5b613040848285612e93565b509392505050565b600082601f83011261305d5761305c612ddd565b5b813561306d848260208601613006565b91505092915050565b60006020828403121561308c5761308b6129cb565b5b600082013567ffffffffffffffff8111156130aa576130a96129d0565b5b6130b684828501613048565b91505092915050565b7f4e487b7100000000000000000000000000000000000000000000000000000000600052602260045260246000fd5b6000600282049050600182168061310657607f821691505b602082108103613119576131186130bf565b5b50919050565b7f596f757220676f7463686920686173206e6f20656e6572677900000000000000600082015250565b6000613155601983612a9b565b91506131608261311f565b602082019050919050565b6000602082019050818103600083015261318481613148565b9050919050565b7f4e487b7100000000000000000000000000000000000000000000000000000000600052601160045260246000fd5b60006131c582612b42565b91507fffffffffffffffffffffffffffffffffffffffffffffffffffffffffffffffff82036131f7576131f661318b565b5b600182019050919050565b600061320d82612b42565b9150600082036132205761321f61318b565b5b600182039050919050565b60006060820190506132406000830186612bd7565b61324d6020830185612c9a565b61325a6040830184612bd7565b949350505050565b600061326d82612b42565b915061327883612b42565b92508282039050818111156132905761328f61318b565b5b92915050565b600081905092915050565b7f4e616d653a200000000000000000000000000000000000000000000000000000600082015250565b60006132d7600683613296565b91506132e2826132a1565b600682019050919050565b60008190508160005260206000209050919050565b6000815461330f816130ee565b6133198186613296565b9450600182166000811461333457600181146133495761337c565b60ff198316865281151582028601935061337c565b613352856132ed565b60005b8381101561337457815481890152600182019150602081019050613355565b838801955050505b50505092915050565b7f0a4d6f6f643a2000000000000000000000000000000000000000000000000000600082015250565b60006133bb600783613296565b91506133c682613385565b600782019050919050565b60006133dc82612a90565b6133e68185613296565b93506133f6818560208601612aac565b80840191505092915050565b7f0a456e657267793a200000000000000000000000000000000000000000000000600082015250565b6000613438600983613296565b915061344382613402565b600982019050919050565b6000613459826132ca565b91506134658286613302565b9150613470826133ae565b915061347c82856133d1565b91506134878261342b565b915061349382846133d1565b9150819050949350505050565b60006134ab82612b42565b91506134b683612b42565b92508282019050808211156134ce576134cd61318b565b5b92915050565b7f426f696c6572476f7463686920646f6573206e6f742065786973742e00000000600082015250565b600061350a601c83612a9b565b9150613515826134d4565b602082019050919050565b60006020820190508181036000830152613539816134fd565b9050919050565b7f4f776e657220646f6573206e6f742068617665206120426f696c6572476f746360008201527f6869000000000000000000000000000000000000000000000000000000000000602082015250565b600061359c602283612a9b565b91506135a782613540565b604082019050919050565b600060208201905081810360008301526135cb8161358f565b9050919050565b7f546f6b656e204944206e6f7420666f756e640000000000000000000000000000600082015250565b6000613608601283612a9b565b9150613613826135d2565b602082019050919050565b60006020820190508181036000830152613637816135fb565b9050919050565b7f43616c6c6572206973206e6f7420746865206f776e65722e0000000000000000600082015250565b6000613674601883612a9b565b915061367f8261363e565b602082019050919050565b600060208201905081810360008301526136a381613667565b9050919050565b7f596f7520646f206e6f74206f776e206120426f696c6572476f74636869000000600082015250565b60006136e0601d83612a9b565b91506136eb826136aa565b602082019050919050565b6000602082019050818103600083015261370f816136d3565b9050919050565b7f4552433732313a207472616e736665722063616c6c6572206973206e6f74206f60008201527f776e6572206e6f7220617070726f766564000000000000000000000000000000602082015250565b6000613772603183612a9b565b915061377d82613716565b604082019050919050565b600060208201905081810360008301526137a181613765565b9050919050565b7f4e616d652073686f756c64206e6f7420626520656d7074790000000000000000600082015250565b60006137de601883612a9b565b91506137e9826137a8565b602082019050919050565b6000602082019050818103600083015261380d816137d1565b9050919050565b7f596f7520616c72656164792068617665206120676f7463686900000000000000600082015250565b600061384a601983612a9b565b915061385582613814565b602082019050919050565b600060208201905081810360008301526138798161383d565b9050919050565b60006020601f8301049050919050565b600082821b905092915050565b6000600883026138cd7fffffffffffffffffffffffffffffffffffffffffffffffffffffffffffffffff82613890565b6138d78683613890565b95508019841693508086168417925050509392505050565b6000819050919050565b600061391461390f61390a84612b42565b6138ef565b612b42565b9050919050565b6000819050919050565b61392e836138f9565b61394261393a8261391b565b84845461389d565b825550505050565b600090565b61395761394a565b613962818484613925565b505050565b5b818110156139865761397b60008261394f565b600181019050613968565b5050565b601f8211156139cb5761399c816132ed565b6139a584613880565b810160208510156139b4578190505b6139c86139c085613880565b830182613967565b50505b505050565b600082821c905092915050565b60006139ee600019846008026139d0565b1980831691505092915050565b6000613a0783836139dd565b9150826002028217905092915050565b613a2082612a90565b67ffffffffffffffff811115613a3957613a38612de7565b5b613a4382546130ee565b613a4e82828561398a565b600060209050601f831160018114613a815760008415613a6f578287015190505b613a7985826139fb565b865550613ae1565b601f198416613a8f866132ed565b60005b82811015613ab757848901518255600182019150602085019450602081019050613a92565b86831015613ad45784890151613ad0601f8916826139dd565b8355505b6001600288020188555050505b505050505050565b6000613af582856133d1565b9150613b0182846133d1565b91508190509392505050565b7f4e487b7100000000000000000000000000000000000000000000000000000000600052601260045260246000fd5b6000613b4782612b42565b9150613b5283612b42565b925082613b6257613b61613b0d565b5b828204905092915050565b6000613b7882612b42565b9150613b8383612b42565b925082613b9357613b92613b0d565b5b828206905092915050565b7f4e487b7100000000000000000000000000000000000000000000000000000000600052603260045260246000fd5b600081519050919050565b600082825260208201905092915050565b6000613bf482613bcd565b613bfe8185613bd8565b9350613c0e818560208601612aac565b613c1781612ad6565b840191505092915050565b6000608082019050613c376000830187612bd7565b613c446020830186612bd7565b613c516040830185612c9a565b8181036060830152613c638184613be9565b905095945050505050565b600081519050613c7d81612a01565b92915050565b600060208284031215613c9957613c986129cb565b5b6000613ca784828501613c6e565b91505092915050565b6000604082019050613cc56000830185612bd7565b613cd26020830184612c9a565b939250505056fea2646970667358221220512e721e3c139208954eb55bd557c41fb6fc9dde44149bcb416c9fb1063b218264736f6c63430008140033",
  "linkReferences": {},
  "deployedLinkReferences": {}
}